S015000052544F535F5072696F726974792E7372656306
S21440000060114020E5014000E1014000E101400070
S214400010E1014000E1014000E10140000000000035
S214400020000000000000000000000000810C4000BE
S214400030E101400000000000210D4000850D400019
S214400040E1014000E1014000E1014000E1014000E3
S214400050E1014000E1014000E1014000E1014000D3
S214400060E101400000000000E1014000E1014000E5
S214400070E1014000E1014000E1014000E1014000B3
S214400080E1014000E1014000E1014000E1014000A3
S214400090E1014000E1014000E1014000E101400093
S2144000A0E1014000E1014000E1014000E101400083
S2144000B0E1014000E1014000E1014000E101400073
S2144000C0E1014000E1014000E1014000E101400063
S2144000D0E1014000E1014000E1014000E101400053
S2144000E0E1014000E1014000E1014000E101400043
S2144000F0E1014000E1014000E1014000E101400033
S214400100E1014000E1014000E1014000E101400022
S214400110E1014000E1014000000000000000000056
S214400120E1014000E1014000E1014000E101400002
S214400130E1014000E1014000E1014000E1014000F2
S214400140E1014000E1014000E1014000E1014000E2
S214400150E1014000E1014000E1014000E1014000D2
S214400160E1014000E101400010B5054C237833B969
S214400170044B13B10448AFF300800123237010BD35
S2144001806800402000000000703540000C4B43B132
S2144001900C480D4910B5AFF300800C48036823B9EE
S2144001A010BD0A48036833B97047094B002BF7D097
S2144001B0BDE810401847064B002BF5D0184700BF47
S2144001C000000000703540006C0040207035400054
S2144001D00000000008B5014B984708BD0D034000DD
S2144001E0FEE7000008B5104B104A9A4209D00E4B65
S2144001F00E4A03E011681960043304320C498B42FE
S214400200F8D30C4B02E000221A6004330A4A9342A9
S214400210F9D30A4A0A4B23F07F039360094B984769
S214400220094B9847FEE700BF00004020703540006D
S2144002306800402068004020600B402000ED00E051
S2144002400000400099294000C9094000054BD3F8FA
S214400250083113F0007F04D14FF00072014BC3F811
S2144002600021704700060E4008B5034B98470349E7
S2144002700348044B984708BD4D0240000000074025
S214400280440B40209903400008B50248024B98476B
S21440029008BD00BF10E000E055034000044B9B69DA
S2144002A013F0800F02D18022014B1A61704700BFC5
S2144002B000060E4008B5054B9847054B9847024642
S2144002C004490548054B984708BD00BF9D024000BD
S2144002D0E108400000080E40500B402095044000C6
S2144002E008B5482204490120044B98470448054B6A
S2144002F00360054B984708BDE43240003105400096
S2144003004C0B402050180E40E508400008B5054B01
S2144003109847054B9847054B9847054B9847054BDC
S214400320984708BD5D0540006902400089024000CC
S214400330B5024000E1024000EFF31083036072B65E
S214400340BFF35F8F7047BFF35F8F036883F31088F8
S2144003507047000008B5024B1860024B984708BD2E
S214400360840040207506400070B5164604460D468B
S214400370002818BF002914BF012000203422044959
S214400380044B98472368324629462046984770BD16
S214400390003340003105400038B50D46044629225A
S2144003A00549003018BF0120044B9847294620468F
S2144003B0034B984738BD00BF14334000310540001A
S2144003C081064000F8B5164605460F46002818BF79
S2144003D0002902D00ABB002000E00020F12210498C
S2144003E0104B984705F1080420460F4B98470028C5
S2144003F0F8D00025795D20460C4B984720460A4B9E
S21440040098470028FAD00135B542F3D32046084B2A
S21440041098470028FAD02846F8BD0120DEE700BFFE
S2144004203033400031054000690840002108400054
S214400430910840002DE9F0411746054688460028B9
S21440044018BF002902D0D2B9002000E000204FF4A7
S21440045086720C490C4B9847002605F10804204646
S2144004600A4B98470028F8D02046094B984708F88A
S21440047006000136BE42F0D33046BDE8F08101208A
S214400480E5E700BF3033400031054000B908400082
S2144004904508400038B504460D46002818BF0029D8
S2144004A014BF0120002034220749084B98472946AC
S2144004B004F10800064B9847034618B9054A62609F
S2144004C0054A2260184638BD3033400031054000AA
S2144004D0B507400035044000C503400010B504464B
S2144004E053220649003018BF0120054B984704F1B7
S2144004F00800044B9847002010BD00BF3033400032
S21440050031054000ED07400038B505460C4600284A
S21440051018BF002914BF0120002069220249034B5E
S21440052098472560002038BD3033400031054000F4
S21440053000B900BE704700000346064A126822B162
S214400540044A10680344136070470349014A116027
S214400550F6E700BF880040206011402000B583B019
S21440056001A80E4B98470E4AD2F8883043F47003E1
S214400570C2F88830BFF34F8FBFF36F8F01A8094B87
S2144005809847094A136823F4706343F4C0631360C2
S214400590064B984703B05DF804FB00BF39034000A4
S2144005A000ED00E047034000000C0E404D064000C2
S2144005B00E490A6A22F002020D4B13430B620B4BA4
S2144005C09B6E13F0010FFAD0084B196A094A0A438A
S2144005D01A62996A084A0A409A62084A9A62034B23
S2144005E09B6E13F0020FFAD0704700BF00060E4015
S2144005F0013E370000003701FFFF00F8013F18209A
S214400600114A136B23F0700313630F4B9B6E13F06A
S214400610080FFAD00C4A136B23F4407343F48073EC
S2144006201363094B9B6E13F0080FFAD0064A136B00
S21440063023F0030343F002031363034B9B6E13F054
S214400640080FFAD0704700BF00060E4008B5024BB0
S2144006509847024B984708BDB10540000106400048
S214400660034B6FF07F425A6005221A60704700BF06
S21440067010E000E008B5014B984708BD6106400011
S21440068038B504460D46002818BF002914BF01207F
S214400690002028220349044B9847256020232371D5
S2144006A0002038BD4C3340003105400010B50446AC
S2144006B040F219221249003018BF0120114B9847CA
S2144006C0114B9C4213D003F500739C4211D003F5A6
S2144006D080539C420FD003F500739C420DD003F527
S2144006E000739C4201D0FF2010BD042010BD0020A6
S2144006F010BD012010BD022010BD032010BD00BF5C
S214400700703340003105400000080E4010B50446E6
S2144007104FF427720E49003018BF01200D4B984702
S21440072020460D4B9847002343B140F2A622084985
S2144007300020084B98470023184610BD03EB4301A2
S2144007408A0006498A5C9042F6D00133DBB2EBE77A
S2144007507033400031054000AD0640006433400031
S21440076010B5044640F2B3220D49003018BF0120B0
S2144007700C4B984720460C4B98470C4BC4F8E4303B
S214400780AC2323604FF48073236000EB400082006C
S214400790074B13445B686360F4232362002010BD5C
S2144007A070334000310540000D074000005241556F
S2144007B064334000F8B50C46094E0746A922314638
S2144007C0003018BF0120074DA847AA223146201CFA
S2144007D018BF0120A8473C602046034B9847F8BD09
S2144007E070334000310540006107400070B50A4E46
S2144007F00446F2223146003018BF0120074DA84774
S214400800246840F2D7223146201C18BF0120A84752
S2144008105023236070BD00BF703340003105400058
S21440082038B50C46054640F295120449003018BFCC
S2144008300120034B98472B68DC6138BD703340007D
S2144008403105400010B5044640F2A7120449003076
S21440085018BF0120034B984723689869C0B210BD63
S214400860703340003105400010B504464FF4D8724E
S2144008700549003018BF0120044B98472368586943
S214400880C0F3400010BD00BF70334000310540004B
S21440089010B5044640F2B9120549003018BF012091
S2144008A0044B984723685869C0F3402010BD00BFEA
S2144008B0703340003105400010B5044640F2CB127C
S2144008C00549003018BF0120044B984723685869F3
S2144008D000F0010010BD00BF7033400031054000FD
S2144008E00020704710B5044668B103684BB101203C
S2144008F033220649064B98472368064A5A6000202A
S21440090010BD0020F4E70020F2E700BF8833400027
S21440091031054000FF2FFF3F10B5044C04492046E8
S214400920044B98472046044B984710BD500B402038
S2144009308C00402009054000DD04400070B582B0C0
S2144009400120164B9847164C6060164B98476368D4
S21440095013B325460123A3600423E36003232361E6
S214400960A368002401940093234640220E490F4872
S2144009700F4EB047EB6801940093234640220D4942
S2144009800D48B0472B6901940093234640220B49FB
S2144009900B48B0470B4B984702B070BDE51440007B
S2144009A08C00402019094000A0334000050A400052
S2144009B09D1C4000B43340006D0A4000C8334000E0
S2144009C0D50A4000111D400008B5034B984700204B
S2144009D0024B9847002008BDD50140003D09400025
S2144009E010B50446044B984782B22146034B18681C
S2144009F0034B984710BD00BF512A40008C00402052
S214400A006903400000B5B5B003E04FF4FA70104BF0
S214400A1098474FF0FF310F4B58680F4B98470128C7
S214400A20F3D10C4C227D0132D2B22275A3680A2142
S214400A300091DBB2094902A8094DA84702A8094B14
S214400A40984700231A4619466068074CA047DCE7DB
S214400A50092040008C004020C1174000DC33400095
S214400A60092A4000E1094000D912400000B5B5B05F
S214400A7003E04FF4FA70104B98474FF0FF310F4B9E
S214400A8058680F4B98470128F3D10C4C227D013211
S214400A90D2B22275E3684B210091DBB2094902A825
S214400AA0094DA84702A8094B984700231A461946FD
S214400AB06068074CA047DCE7092040008C004020D7
S214400AC0C11740001C344000092A4000E10940009C
S214400AD0D912400000B5B5B003E04FF4FA70104BA1
S214400AE098474FF0FF310F4B58680F4B98470128F7
S214400AF0F3D10C4C227D0132D2B222752369C82133
S214400B000091DBB2094902A8094DA84702A8094B43
S214400B10984700231A4619466068074CA047DCE70A
S214400B20092040008C004020C11740005C34400043
S214400B30092A4000E1094000D912400000F10803AC
S214400B4043604FF0FF328260C3600361002303605E
S214400B50704700230361704743684B609A688A6019
S214400B609A68516099600861036801330360704772
S214400B7030B40D68B5F1FF3F02D000F1080202E044
S214400B80026904E01A4653681C68A542FAD25368C4
S214400B904B6099608A605160086103680133036066
S214400BA030BC7047036942688168916082684168DA
S214400BB051605A68904206D0002202611A68013A93
S214400BC01A601868704782685A60F5E782B000235A
S214400BD001930F4B1B68B3F1FF3F0AD04FF08003E1
S214400BE072B683F31188BFF36F8FBFF34F8F62B631
S214400BF0FEE74FF0800372B683F31188BFF36F8F22
S214400C00BFF34F8F62B6019B002BFCD002B07047FB
S214400C100000402008480068006880F308884FF0CD
S214400C20000080F3148862B661B6BFF34F8FBFF3FF
S214400C306F8F00DF00BF000008ED00E0DFF80C001B
S214400C40016841F4700101607047000088ED00E0E3
S214400C504FF0807340F8043C21F0010140F8081C36
S214400C60054B40F80C3C40F8202C6FF0020340F84F
S214400C70243C4438704700BFCD0B400000000000C5
S214400C80074B19680868B0E8F04F80F30988BFF34F
S214400C906F8F4FF0000080F311887047AFF30080ED
S214400CA0D80A40204FF0800372B683F31188BFF312
S214400CB06F8FBFF34F8F62B60B4A136801331360D2
S214400CC0012B0FD1094B1B6813F0FF0F0AD04FF0D2
S214400CD0800372B683F31188BFF36F8FBFF34F8FD5
S214400CE062B6FEE7704700BF0000402004ED00E01B
S214400CF00A4B1B6853B94FF0800372B683F31188D2
S214400D00BFF36F8FBFF34F8F62B6FEE7013B034AD8
S214400D1013600BB983F31188704700BF0000402072
S214400D20EFF30980BFF36F8F154B1A681EF0100F54
S214400D3008BF20ED108A20E9F04F10602DE9090029
S214400D404FF0800072B680F31188BFF34F8FBFF329
S214400D506F8F62B601F088F94FF0000080F311887B
S214400D6009BC19680868B0E8F04F1EF0100F08BFBD
S214400D70B0EC108A80F30988BFF36F8F704700BFCE
S214400D80D80A402008B54FF0800372B683F3118826
S214400D90BFF36F8FBFF34F8F62B6054B984718B1BE
S214400DA04FF08052034B1A60002383F3118808BD2E
S214400DB0C11D400004ED00E0054B00221A600549C5
S214400DC00A600549054A116007221A60704700BF4D
S214400DD010E000E018E000E0DF93040014E000E0DC
S214400DE010B582B02B4B1A78D2B20192FF221A70FD
S214400DF01B78DBB28DF803309DF8033003F0800398
S214400E00254A13700723536009E0234A5368013B81
S214400E1053609DF803305B00DBB28DF803309DF8DD
S214400E20033013F0800FF0D11B4B5B68042B0AD0C5
S214400E304FF0800372B683F31188BFF36F8FBFF312
S214400E404F8F62B6FEE71B0203F4E063124A53601C
S214400E50019BDBB20F4A1370104B1A6842F46002D3
S214400E601A601A6842F060421A600D4B9847002498
S214400E700C4B1C600C4B98470C4A136843F040439D
S214400E8013600B4B98470B4B98470B4B98472046A5
S214400E9002B010BD00E400E0A400402020ED00E0D9
S214400EA0B90D4000000040203D0C400034EF00E00B
S214400EB0150C400069204000CD0B4000EFF3058341
S214400EC00F2B11D9124A9B5CDBB2124A127893421E
S214400ED00AD24FF0800372B683F31188BFF36F8F48
S214400EE0BFF34F8F62B6FEE70B4B1B6803F4E0631D
S214400EF0084A526893420AD94FF0800372B683F389
S214400F001188BFF36F8FBFF34F8F62B6FEE770470F
S214400F10F0E300E0A40040200CED00E038B50446C5
S214400F2010F0070F02D020F007040834114B984702
S214400F30114B1B6893B1104BD3F864391C4440F6F0
S214400F405712944211D8A34211D20B4A15681D4439
S214400F50C2F86449094B9847284638BD064A02F10C
S214400F600C0323F007031360E5E70025F2E70025AE
S214400F70F0E700BFA11D4000AC004020F91E400035
S214400F8050B14FF0800372B683F31188BFF36F8F72
S214400F90BFF34F8F62B6FEE77047436A23B1036BD9
S214400FA01868C0F1050070470020704710B5044629
S214400FB0064B9847A26BE36B9A4204D00024044B3E
S214400FC09847204610BD0124F9E700BFA50C400015
S214400FD0F10C400010B50446054B9847A36B23B16F
S214400FE00024044B9847204610BD0124F9E700BF73
S214400FF0A50C4000F10C400070B504461646856BC3
S214401000026C52B90368002B2AD14068184B9847A7
S214401010002363600135A56370BD6EB98068154BCB
S2144010209847226CA3681344A3606268934219D31E
S2144010302368A3600020EDE7C0680E4B9847236CFA
S2144010405B42E2681A44E26021688A4202D26268E1
S2144010501344E360022E07D145B1013D0020D9E795
S2144010600020D7E70020D5E70020D3E70020D1E7CF
S214401070A1234000E129400070B582B00190846C05
S21440108074B1A26BE36B9A4215D34FF0800372B6ED
S21440109083F31188BFF36F8FBFF34F8F62B6FEE7BF
S2144010A04FF0800372B683F31188BFF36F8FBFF3A0
S2144010B04F8F62B6FEE7A26B934203D800263046B7
S2144010C002B070BD0A4694F845506DB201A920465C
S2144010D00A4B98470646B5F1FF3F0AD1636A002B94
S2144010E0EDD004F12400064B98470028E7D00126AF
S2144010F0E5E76B1C5BB284F84530E0E7F90F40004B
S21440110085214000026C72B110B50346C468144491
S214401110C4604068844201D31868D8600846D968DD
S214401120014B984710BD7047E129400038B5054649
S2144011301F4B984795F8454064B208E06B6ABBB1D0
S21440114005F124001B4B984778B9013C64B2002C4B
S2144011500EDDAB6C002BF1D000212846164B98478D
S2144011600028F2D0154B9847EFE7144B9847ECE72A
S214401170FF2385F84530124B98470D4B984795F816
S214401180444064B201E0013C64B2002C0ADD2B69A5
S21440119043B105F11000074B98470028F3D0074BA2
S2144011A09847F0E7FF2385F84430054B984738BD0D
S2144011B0A50C40008521400079104000C122400027
S2144011C0F10C400038B530B304460D461D4B9847E9
S2144011D02168E26B236C03FB021060600020A06372
S2144011E0A160013A02FB0313E360FF2384F8443016
S2144011F084F84530D5B92369FBB104F11000124B91
S2144012009847D0B14FF08052104B1A60BFF34F8FC3
S214401210BFF36F8F11E04FF0800372B683F31188EF
S214401220BFF36F8FBFF34F8F62B6FEE704F1100037
S214401230074DA84704F12400A847064B98470120CD
S21440124038BD00BFA50C40008521400004ED00E0FD
S2144012503D0B4000F10C400038B51D46049C0B4643
S21440126059B12260E063236401212046044B98472D
S21440127084F850500023A36438BD2460F2E700BFD2
S214401280C511400050B94FF0800372B683F3118801
S214401290BFF36F8FBFF34F8F62B6FEE7F0B583B0F4
S2144012A0054611B101FB00F000E0002017460C4651
S2144012B05430074B9847064638B100903B4600F1FD
S2144012C0540221462846034CA047304603B0F0BDA2
S2144012D01D0F400059124000F0B585B0019270B124
S2144012E00446B9B10125DDB94FF0800372B683F3E9
S2144012F01188BFF36F8FBFF34F8F62B6FEE74FF094
S214401300800372B683F31188BFF36F8FBFF34F8F9E
S21440131062B6FEE7026C0AB90125E4E70025E2E77B
S214401320022B0BD07DB94FF0800372B683F3118841
S214401330BFF36F8FBFF34F8F62B6FEE7E26B012AB3
S214401340F0D00025EEE71E460F46514B984710B9A1
S214401350019B03B1002555B94FF0800372B683F365
S2144013601188BFF36F8FBFF34F8F62B6FEE700253D
S2144013703DE0324639462046464B9847A36C8BB1F3
S21440138031462046444B984738B14FF08052434B45
S2144013901A60BFF34F8FBFF36F8F414B98470120C2
S2144013A005B0F0BD636A73B104F124003D4B984725
S2144013B00028F2D04FF08052384B1A60BFF34F8F60
S2144013C0BFF36F8FE9E70028E7D04FF08052334BEA
S2144013D01A60BFF34F8FBFF36F8FDEE7304B9847EF
S2144013E00020DDE72046304B9847304B9847304B3F
S2144013F09847A26BE36B9A42BBD3022EB9D0019BAF
S214401400002BEBD01DB902A82A4B98470125244B48
S2144014109847294B9847264B984794F844305BB2F8
S214401420B3F1FF3F02D1002384F8443094F84530AE
S2144014305BB2B3F1FF3F02D1002384F84530184B2E
S214401440984701A902A81D4B9847C8B920461C4B8F
S21440145098470028C6D0019904F11000194B9847C8
S2144014602046114B9847114B98470028BFD14FF064
S21440147080520A4B1A60BFF34F8FBFF36F8FB6E7A9
S2144014802046094B9847094B9847002088E700BFFD
S214401490D1224000F90F40007910400004ED00E0F2
S2144014A0F10C4000852140002D114000F91E4000FF
S2144014B0A50C400019224000A11D40002D224000EE
S2144014C0AD0F4000FD20400048B110B500214160FE
S2144014D00160C1600B460A46014CA04710BD7047EC
S2144014E0D912400010B5024600210120034B984710
S2144014F00446034B9847204610BD00BF8512400067
S214401500C91440002DE9F84370B10446B9B1012032
S214401510D8B94FF0800372B683F31188BFF36F8F4C
S214401520BFF34F8F62B6FEE74FF0800372B683F389
S2144015301188BFF36F8FBFF34F8F62B6FEE7006C24
S21440154008B90120E4E70020E2E7022B0BD078B987
S2144015504FF0800372B683F31188BFF36F8FBFF3EB
S2144015604F8F62B6FEE7E56B012DF0D00020EEE728
S2144015701F4690468946284B9847EFF311864FF012
S214401580800372B683F31188BFF36F8FBFF34F8F1C
S21440159062B6A26BE36B9A4201D3022F2FD194F826
S2144015A045506DB23A46494620461C4B9847B5F1E1
S2144015B0FF3F1ED1A36C73B139462046184B98475F
S2144015C0F8B1B8F1000F1ED00120C8F8000086F32D
S2144015D01188BDE8F883636ABBB104F12400114B5F
S2144015E09847A0B1B8F1000F13D00120C8F800000A
S2144015F0EDE76B1C5BB284F845300120E7E700203E
S214401600E5E70120E3E70120E1E70120DFE70120ED
S214401610DDE70120DBE700BFBD0E4000F90F4000CC
S2144016207910400085214000F0B585B0019270B138
S2144016300446B9B10125DDB94FF0800372B683F395
S2144016401188BFF36F8FBFF34F8F62B6FEE74FF040
S214401650800372B683F31188BFF36F8FBFF34F8F4B
S21440166062B6FEE7036C0BB90125E4E70025E2E726
S2144016700E46464B984710B9019B03B1002555B915
S2144016804FF0800372B683F31188BFF36F8FBFF3BA
S2144016904F8F62B6FEE700272FE0314620463C4B90
S2144016A09847013DA563236963B104F11000394BA7
S2144016B0984738B14FF08052374B1A60BFF34F8F80
S2144016C0BFF36F8F354B9847012005B0F0BD334BC5
S2144016D098470020F9E702A8314B9847012716E0C3
S2144016E0002384F844301EE0002384F8453020E090
S2144016F020462C4B98472C4B98472C4B9847A56B2D
S214401700002DCAD1019B002BE1D0002FE3D0234B04
S2144017109847274B9847254B984794F844305BB2F8
S214401720B3F1FF3FDCD094F845305BB2B3F1FF3FF6
S214401730DAD01A4B984701A902A81E4B9847C8B959
S21440174020461D4B98470028D2D0019904F124002A
S2144017501A4B98472046134B9847134B98470028F8
S214401760CBD14FF080520C4B1A60BFF34F8FBFF374
S2144017706F8FC2E720460B4B98470B4B9847204647
S2144017800D4B98470028B8D000209EE7D122400055
S214401790051140008521400004ED00E0F10C4000BA
S2144017A0192240002D114000F91E4000A50C4000B3
S2144017B0A11D40002D224000D50F4000FD204000D6
S2144017C070B584B0019168B10446036CABB14FF07C
S2144017D0800372B683F31188BFF36F8FBFF34F8FCA
S2144017E062B6FEE74FF0800372B683F31188BFF30C
S2144017F06F8FBFF34F8F62B6FEE75D4B984770B969
S214401800019B73B9012373B94FF0800372B683F31B
S2144018101188BFF36F8FBFF34F8F62B6FEE7012389
S214401820F1E70023EFE700252E4650E0013BA36397
S214401830236813B94F4B98476060236963B104F13E
S21440184010004D4B984738B14FF080524B4B1A60C2
S214401850BFF34F8FBFF36F8F494B984701252846FC
S21440186004B070BD55B14FF0800372B683F3118853
S214401870BFF36F8FBFF34F8F62B6FEE7404B98477C
S214401880EDE702A83F4B984701262AE0002384F85C
S214401890443032E0002384F8453034E03A4B9847F1
S2144018A060683A4B98470546354B98473BE020469C
S2144018B0374B9847374B984709E02046344B984774
S2144018C0344B98472046344B9847002840D12E4BFF
S2144018D09847A36B002BA9D1019B002BC2D0002EAA
S2144018E0CFD0274B98472D4B9847274B984794F88F
S2144018F044305BB2B3F1FF3FC8D094F845305BB29A
S214401900B3F1FF3FC6D01E4B984701A902A8244B0F
S21440191098470028D1D120461F4B98470028C6D06C
S2144019202368002BBAD0019904F124001D4B984738
S2144019302046174B9847174B98470028C7D14FF07B
S21440194080520E4B1A60BFF34F8FBFF36F8FBEE7C8
S214401950002D84D00C4B98472046134B98470146A1
S2144019606068124B9847064B9847002577E700BFBC
S214401970D1224000012540008521400004ED00E0D2
S214401980F10C400019224000A50C4000F122400016
S2144019902D114000F91E4000D50F4000A11D40000B
S2144019A02D224000FD2040009B0F40004524400073
S2144019B070B504460D461646124B984794F8443088
S2144019C05BB2B3F1FF3F0DD094F845305BB2B3F154
S2144019D0FF3F0BD00C4B9847A36B5BB120460B4B9D
S2144019E0984770BD002384F84430EDE7002384F820
S2144019F04530EFE73246294604F12400044B984729
S214401A00ECE700BFA50C4000F10C40002D11400053
S214401A103D214000064B9B6A012BFBD94FF080527C
S214401A20044B1A60BFF34F8FBFF36F8FF2E700BFD0
S214401A30140A402004ED00E00B4BD3F88C301B68B2
S214401A4053B9012353B9084BD3F88C20D268D268D7
S214401A505268C3F8902070470023F3E74FF0FF32F8
S214401A60014BC3F890207047140A40202DE9F84FE8
S214401A7081460D4693469A460A9EDDF82C800C9C7D
S214401A809200A521206B1D4B9847276B6FF0404373
S214401A905B4407EB830727F007070023072B07D88D
S214401AA0E95CE21882F83410EA5C0AB10133F5E7E3
S214401AB0002384F83B30042E00D90426E662666490
S214401AC00025A564201DDFF83CB0D84704F1180077
S214401AD0D8472461C6F10506A6616462E56484F8C9
S214401AE05050524649463846054B98472060B8F114
S214401AF0000F01D0C8F80040BDE8F88FF729400035
S214401B00510C4000530B4000F8B5002407E004EBAE
S214401B10840293000D4818440D4B98470134042C1A
S214401B20F5D90C4C04F194073846094DA84704F102
S214401B30A8063046A84704F11400A8472046A84700
S214401B40C4F88C70C4F8BC60F8BD00BF3C0A4020A6
S214401B503D0B4000140A402038B50446284B9847B1
S214401B60284BD3F8C0200132C3F8C020D3F8C43085
S214401B70002B3AD0234BD3F8C8304BB9214BD3F87F
S214401B80C430DA6AE36A9A4202D81E4BC3F8C440AD
S214401B901C4AD2F8CC300133C2F8CC30E363E36A57
S214401BA0D2F8D020934202D9164AC2F8D030154D0A
S214401BB005F1280003EB83039A00211D1044124BC5
S214401BC09847124B9847D5F8C8306BB1D5F8C43013
S214401BD0DA6AE36A9A4207D24FF080520C4B1A6098
S214401BE0BFF34F8FBFF36F8F38BD064BC3F8C4406B
S214401BF0D3F8C030012BCBD1064B9847C8E700BF7F
S214401C00A50C4000140A4020590B4000F10C40003F
S214401C1004ED00E0091B400070B504460E461B4B21
S214401C20D3F8D450D3F8C4000430194B9847B4F1D5
S214401C30FF3F14BF00230123002E08BF0023ABB98B
S214401C402C44124BD3F8C4305C60A54215D80F4DD7
S214401C50D5F88C00D5F8C41004310E4B9847D5F80B
S214401C6090309C4201D2C5F8904070BD0748D0F8ED
S214401C70C4100431084B984770BD044BD3F8BC00E1
S214401C80D3F8C4100431034B984770BD140A402063
S214401C90A50B4000710B4000590B40002DE9F04366
S214401CA085B006460F46154698469000144B984712
S214401CB000B381465420124B98470446B0B1C0F852
S214401CC03090CCB10023039302940D9B01930C9B60
S214401CD0009343462A46394630460A4DA847204692
S214401CE0094B9847012005B0BDE8F0834846074BAE
S214401CF09847E6E70024E4E74FF0FF30F3E700BFFD
S214401D001D0F40006D1A4000591B4000810F4000D7
S214401D1010B582B01B4B01930023009340221A4912
S214401D201A481B4CA047012806D0012807D0B0F11E
S214401D30FF3F1CD002B010BD164B9847F5E74FF05A
S214401D40800372B683F31188BFF36F8FBFF34F8F54
S214401D5062B6114B4FF0FF32C3F890200122C3F811
S214401D60C8200022C3F8D4200C4B9847E2E74FF037
S214401D70800372B683F31188BFF36F8FBFF34F8F24
S214401D8062B6FEE7F00A40209C344000151A400038
S214401D909D1C4000DD254000140A4020E10D400017
S214401DA0034AD2F8D8300133C2F8D830704700BF63
S214401DB0140A4020014BD3F8D4007047140A402040
S214401DC02DE9F041484BD3F8D830002B7DD1464B17
S214401DD0D3F8D4500135C3F8D450F5B9D3F88C3085
S214401DE01B6853B14FF0800372B683F31188BFF37C
S214401DF06F8FBFF34F8F62B6FEE73B4BD3F88C2016
S214401E00D3F8BC10C3F88C10C3F8BC20D3F8E0203D
S214401E100132C3F8E020354B9847334BD3F8903027
S214401E209D4244D20024304AD2F8C430DB6A03EBE9
S214401E30830399000A44936A012B4DD901244BE051
S214401E400124294BD3F88C301B68002B31D000235B
S214401E50002B30D1244BD3F88C30DB68DE687368B7
S214401E609D422ED306F104084046214B9847B36A5C
S214401E701BB106F118001E4B9847F36A1A4AD2F86F
S214401E80D020934202D9184AC2F8D030164F07F1F4
S214401E90280003EB83039A0041461044154B9847AD
S214401EA0F26AD7F8C430DB6A9A42C9D2C9E700243E
S214401EB0C7E70123CCE74FF0FF320B4BC3F8902027
S214401EC0B1E7094AC2F89030ADE7074AD2F8E430A5
S214401ED00133C2F8E4300024034BD3F8E83003B1B2
S214401EE001242046BDE8F081140A4020391A4000FB
S214401EF0A50B4000590B4000F8B53B4BD3F8D83003
S214401F0053B94FF0800372B683F31188BFF36F8FD7
S214401F10BFF34F8F62B6FEE7344B9847324BD3F849
S214401F20D820013AC3F8D820D3F8D830002B56D161
S214401F302D4BD3F8C03023B900242D4B984720466C
S214401F40F8BD0024284B5B6923B3274D2B6ADC6819
S214401F5004F11800274FB847261D3046B847E36AB5
S214401F60D5F8D020934201D9C5F8D0301E4D05F1A2
S214401F70280003EB83039A00314610441E4B9847D3
S214401F80E26AD5F8C430DB6A9A42DBD30122C5F850
S214401F90E820D7E70CB1194B9847134BD3F8E440E9
S214401FA07CB9114BD3F8E830DBB14FF08052144B7C
S214401FB01A60BFF34F8FBFF36F8F0124BDE7013C1C
S214401FC008D0104B98470028F9D00122064BC3F89A
S214401FD0E820F4E70022044BC3F8E420E1E70024BD
S214401FE0ABE70024A9E700BF140A4020A50C400038
S214401FF0F10C4000A50B4000590B4000391A400038
S21440200004ED00E0C11D400010B5C0B10446114BC0
S214402010D3F8D83053B14FF0800372B683F31188AB
S214402020BFF36F8FBFF34F8F62B6FEE70A4B9847FA
S21440203000212046094B9847094B984700E000206E
S21440204038B94FF08052074B1A60BFF34F8FBFF33B
S2144020506F8F10BD140A4020A11D4000191C40007F
S214402060F91E400004ED00E0234BD3F8D8307BB98E
S214402070214B0022C3F8E820D3F8D03003EB83028C
S21440208091001D4A0A44926A92B933B1013BF5E782
S2144020900122194BC3F8E82070474FF0800372B610
S2144020A083F31188BFF36F8FBFF34F8F62B6FEE79F
S2144020B010B4114A9900CC18A0001044C46A646851
S2144020C0C4622832194488000146083002449442CB
S2144020D00DD0094903EB830082000A44D26AD268D5
S2144020E0C1F8C420C1F8D0305DF8044B7047606832
S2144020F0014A0A44D062ECE7140A402050B94FF037
S214402100800372B683F31188BFF36F8FBFF34F8F90
S21440211062B6FEE710B50C46054BD3F8C41018312E
S214402120044B984701212046034B984710BD00BFFB
S214402130140A4020710B4000191C400038B578B195
S2144021400C4615460C4AD2F8C41018310B4B98472B
S2144021500DB14FF0FF3429462046094B984738BD0D
S2144021604FF0800372B683F31188BFF36F8FBFF3CF
S2144021704F8F62B6FEE700BF140A4020590B40005E
S214402180191C400038B5C368DC684CB304F1180528
S21440219028461C4B98471C4BD3F8D8305BBB251DB4
S2144021A02846184B9847E36A174AD2F8D0209342FD
S2144021B002D9154AC2F8D03003EB83039A00294669
S2144021C012481044124B9847E26A0F4BD3F8C4307B
S2144021D0DB6A9A4214D901200B4BC3F8E80038BD9D
S2144021E04FF0800372B683F31188BFF36F8FBFF34F
S2144021F04F8F62B6FEE729460648054B9847E3E709
S214402200002038BDA50B4000140A40203C0A402060
S214402210590B4000280A4020034BD3F8E0200260C8
S214402220D3F8D43043607047140A4020F8B5F0B174
S214402230054639B30C461E4B98471E4BD3F8D40080
S2144022406968421A2368B3F1FF3F2DD02F68194EB4
S214402250D6F8E060B74201D0884227D29A421CD3D3
S214402260002323600124144B98472046F8BD4FF0C6
S214402270800372B683F31188BFF36F8FBFF34F8F1F
S21440228062B6FEE74FF0800372B683F31188BFF361
S2144022906F8FBFF34F8F62B6FEE79B1A23602846C8
S2144022A0064B98470024DEE70024DCE70124DAE703
S2144022B0A50C4000140A4020F10C400019224000B2
S2144022C00122024BC3F8E820704700BF140A4020A2
S2144022D0064BD3F8C8302BB1044BD3F8D8301BB9D3
S2144022E0022070470120704700207047140A4020A3
S2144022F000284AD038B50546C26A2549D1F8C410E8
S214402300C96A8A4236D28169002906DB2049D1F85B
S214402310C410C96AC1F105018161686902EB820295
S21440232091001C4A0A44904208D0002242B9184AFA
S214402330D2F8C420D26AEA62012038BD0122F5E70D
S2144023402C1D2046144B9847114AD2F8C430DB6AFD
S214402350EB62D2F8D020934202D90D4AC2F8D03070
S21440236003EB83039A0021460A4810440B4B9847D8
S214402370012038BD426C064BD3F8C430DB6A9A4223
S21440238001D2012038BD002038BD0020704700BF74
S214402390140A40203C0A4020A50B4000590B400040
S2144023A0002840D038B50446224AD2F8C42090428D
S2144023B00AD04FF0800372B683F31188BFF36F8F55
S2144023C0BFF34F8F62B6FEE7826C52B94FF0800380
S2144023D072B683F31188BFF36F8FBFF34F8F62B629
S2144023E0FEE7013A8264C06A616C88421DD0F2B949
S2144023F0251D2846104B9847636CE362C3F10502DF
S214402400A2610C4AD2F8D020934202D9094AC2F8B7
S214402410D03003EB83039A00294608481044084B03
S2144024209847012038BD00207047002038BD002066
S21440243038BD00BF140A4020A50B40003C0A40208F
S214402440590B4000002852D038B50446806C50B92D
S2144024504FF0800372B683F31188BFF36F8FBFF3DC
S2144024604F8F62B6FEE7626C8A4200D20A46E16A45
S2144024708A4201D0012800D038BD1D48D0F8C4009B
S21440248084420AD14FF0800372B683F31188BFF3BB
S2144024906F8FBFF34F8F62B6FEE7E262A0690028F7
S2144024A002DBC2F10502A261636901EB810188008B
S2144024B0104A0244934218D10122002ADCD0251D3E
S2144024C028460D4B9847E36A094AD2F8D0209342F3
S2144024D002D9074AC2F8D03003EB83039A00294654
S2144024E004481044054B9847C6E70022E5E7704786
S2144024F0140A40203C0A4020A50B4000590B4000DF
S214402500064BD3F8C4302BB1044BD3F8C420936C9D
S21440251001339364014BD3F8C4007047140A40203B
S214402520064B1A681368B3FA83F35B09036013B962
S214402530D368186870470020704700BF000B4020E3
S21440254008B54160006191420CD8D21A83699A421C
S21440255001D3012008BD011D0B4B58680B4B984713
S214402560002008BD9A422CBF00220122994238BF63
S21440257000220AB1012008BD011D034B1868034B19
S2144025809847002008BD00BF000B4020710B40005C
S214402590F8B50D4B98470D4B9B6813B10C4B9847BD
S2144025A0F8BD0A4C04F10C0630460A4FB84704F111
S2144025B020052846B8472660656000220C21022088
S2144025C0054B9847A060E9E7A50C4000000B40206B
S2144025D0F10C40003D0B40008512400010B582B023
S2144025E00F4B98470F4B9B68ABB10F4B01930223A1
S2144025F00093002340220D490D480E4CA04760B979
S2144026004FF0800372B683F31188BFF36F8FBFF32A
S2144026104F8F62B6FEE70020F1E702B010BD00BF64
S21440262091254000000B4020340B4020B43440003D
S214402630752940009D1C4000C8B130B585B0154690
S2144026400446184A906800282AD01A4601910295F6
S214402650039405291EDC144B9847022812D0002309
S2144026601A4601A90F488068104CA04716E04FF064
S214402670800372B683F31188BFF36F8FBFF34F8F1B
S21440268062B6FEE70023089A01A906488068074C10
S214402690A04703E0002301A9054CA04705B030BD84
S2144026A00020FBE7000B4020D1224000D91240001A
S2144026B005154000214B1B681A68002A39D070B5B2
S2144026C082B0DB681E68DC68251D28461C4B984790
S2144026D0636A20469847E369012B0AD0174B1B686C
S2144026E01A68002AEDD1154A51681160536002B04D
S2144026F070BDA36933449E4207D263602461294675
S2144027000E4B18680F4B9847E8E7002100910B46A0
S214402710324620460C4CA0470028DFD14FF08003BD
S21440272072B683F31188BFF36F8FBFF34F8F62B6D5
S214402730FEE7024A5168116053607047000B402024
S214402740A50B4000710B40003926400038B50546C1
S214402750084B98470446084B9B6B984205D300238A
S2144027602B60054B9C63204638BD044B984701239D
S2144027702B60F6E7B51D4000000B4020B526400014
S21440278070B582B005460E46154B1B68DB68DC68A4
S214402790201D144B9847E369012B04D0636A2046FA
S2144027A0984702B070BDA1692B4632462944204660
S2144027B00D4EB0470028F1D0002100910B462A4626
S2144027C020460A4DA8470028E8D14FF0800372B64D
S2144027D083F31188BFF36F8FBFF34F8F62B6FEE768
S2144027E0000B4020A50B4000412540003926400004
S2144027F070B582B006460C46174B984701A8174B53
S2144028009847019B23BB0546B04228BF002C18D0F2
S2144028102CB1134B5B681C68B4FA84F464092246F6
S214402820711B0F4B98680F4B98470F4B984788B9CA
S2144028304FF080520D4B1A60BFF34F8FBFF36F8F30
S21440284008E0094B984729463046094B984701E02F
S214402850054B984702B070BDA11D40004D27400073
S214402860000B4020B1194000F91E400004ED00E086
S2144028708127400030B587B0002203A9364B9868C0
S214402880364B9847002864D0039B002BF4DB059C0E
S214402890636913B1201D324B984702A8314B9847C5
S2144028A0039B092BE8D801A252F823F0D528400014
S2144028B0D5284000D52840007928400021294000EE
S2144028C04B294000D5284000D528400079284000B4
S2144028D0212940000499A5690B4602462944204612
S2144028E0214DA8470028C7D0636A20469847E36929
S2144028F0012BC1D1A269002100910B4604980244E5
S21440290020461A4CA0470028B6D14FF0800372B636
S21440291083F31188BFF36F8FBFF34F8F62B6FEE726
S2144029200499A16131B103460246014420460E4C4B
S214402930A047A1E74FF0800372B683F31188BFF338
S2144029406F8FBFF34F8F62B6FEE72046084B98471F
S21440295092E707B030BD00BF000B4020291640006C
S214402960A50B40004D274000412540003926400039
S214402970810F400000B583B001A8044B98470199E9
S214402980034B9847034B9847F6E700BF2125400086
S214402990F12740007528400070B50D4E0D4CA41B25
S2144029A0A4100025A54209D10B4E0C4C00F0D0FDDA
S2144029B0A41BA4100025A54205D170BD56F82530AD
S2144029C098470135EEE756F8253098470135F2E747
S2144029D05C3540005C3540005C354000603540006A
S2144029E010B5431E0A44914200D110BD11F8014B68
S2144029F003F8014FF7E702440346934200D170477D
S214402A0003F8011BF9E700000EB400B59CB04FF484
S214402A1002711DABADF81410029006906FF00041A5
S214402A200A48049107914FF6FF7153F8042BADF80E
S214402A3016100068019302A900F0CCF8029B002211
S214402A401A701CB05DF804EB03B0704704004020D9
S214402A50034613F8012B002AFBD1181A0138704799
S214402A6070B5CD1C25F0030508350C2D38BF0C2558
S214402A70002D064601DBA94203D90C233360002013
S214402A8070BD00F0AFFB234A1468214691B9224C32
S214402A9023681BB9304600F027FB206029463046A5
S214402AA000F022FB431C26D10C233360304600F056
S214402AB09AFBE4E70B685B1B1AD40B2B0FD90B6011
S214402AC0CD50CC18304600F08EFB04F10B00231D91
S214402AD020F00700C31A1BD05A42E25070BD8C4209
S214402AE00DBF63684B686360136018BF0C46E9E728
S214402AF00C464968CAE7C41C24F00304A04205D02B
S214402B00211A304600F0F0FA0130CDD02560D9E7E2
S214402B1070BD00BF3C0B4020400B40202DE9F047E5
S214402B208E689E4282460C469146984635D88A899B
S214402B3012F4906F31D0256809696F1A65690223CF
S214402B4005EB450595FBF3F508F101033B449D4233
S214402B5038BF1D46530531D52946FFF781FF064647
S214402B6050B90C23CAF80030A38943F04003A38130
S214402B704FF0FF30BDE8F0873A462169FFF730FF57
S214402B80A38923F4906343F08003A38126616561A3
S214402B903E44ED1B2660A5604646464528BF464651
S214402BA032464946206800F003FBA3689B1BA3609F
S214402BB023681E4426600020BDE8F0872A4600F0C1
S214402BC061FB06460028E1D12169504600F00CFB27
S214402BD0C7E700002DE9F04F9DB0804603938B89F0
S214402BE01C060D4616460FD50B696BB94021FFF7FC
S214402BF037FF2860286128B90C23C8F800304FF00A
S214402C00FF30C5E040236B610023099320238DF8F5
S214402C10293030238DF82A304FF0010B37463C469A
S214402C2014F8013B002B3CD1B7EB060A0BD05346B9
S214402C30324629464046FFF771FF013000F0A38038
S214402C40099B534409933B78002B00F09C8000235B
S214402C504FF0FF3204930793059206938DF8533056
S214402C601A9305222178504800F052FA671C049BBC
S214402C70D8B9D90644BF20228DF853201A0744BF3E
S214402C802B228DF8532022782A2A16D0079A002124
S214402C900A20274601343B78303B092B51D9C9B12D
S214402CA011E0252BC0D02746B9E73F4A801A0BFAD9
S214402CB000F0184304903C46D3E7039A111D12686F
S214402CC00391002A01DB079204E0524243F00203DC
S214402CD0079204933B782E2B0ED17B782A2B07F154
S214402CE0010132D1039B1A1D1B680392002BB8BF0B
S214402CF04FF0FF33023705932C4C39780322204699
S214402D0000F006FA38B14023001B03FA00F0049B9B
S214402D10034304930137397825488DF82810062256
S214402D207E1C00F0F5F9002835D0224BFBB9039BFA
S214402D30073323F0070308330393099B4B44099357
S214402D406CE700FB02320121A3E7002305931846F7
S214402D500A240F4601313A78303A092A03D9002B23
S214402D60CAD00590C8E704FB00200123F1E703AB77
S214402D7000932A46104B04A94046AFF30080B0F1BA
S214402D80FF3F8146D9D1AB895B063FF538AF0998FE
S214402D901DB0BDE8F08F03AB00932A46064B04A94E
S214402DA0404600F081F8EAE71C35400022354000F6
S214402DB026354000000000001D2B40002DE9F0475E
S214402DC091461F468A680B69DDF820809342B8BF5B
S214402DD01346C9F8003091F8432006460C4612B117
S214402DE00133C9F800302368990642BFD9F800304D
S214402DF00233C9F80030256815F0060507D104F1FE
S214402E00190AE368D9F800209B1A9D4229DB94F8FA
S214402E1043302268003318BF012392062ED404F1B3
S214402E20430239463046C047013021D02368E56822
S214402E30D9F8002003F00603042B08BFAD1AA36898
S214402E4022690CBF25EAE57500259342C4BF9B1A4C
S214402E50ED184FF000091A344D451BD10020BDE84F
S214402E60F0870123524639463046C047013003D1E9
S214402E704FF0FF30BDE8F0870135C2E7E1185A1C35
S214402E80302081F84300224494F8451082F84310DD
S214402E900233C4E70123224639463046C047013054
S214402EA0E6D009F10109D7E72DE9F04317460A7E37
S214402EB085B06E2A984606460C460C9B01F1430E9A
S214402EC000F0BC801AD8632A2ED00AD8002A00F018
S214402ED0C880582A00F08A8004F1420584F84220CF
S214402EE02AE0642A01D0692AF6D121681A6811F0CE
S214402EF0800F23D0111D1960136827E0732A00F055
S214402F00B48008D86F2A2AD0702AE5D10A6842F0E1
S214402F1020020A6003E0752A21D0782ADCD1782284
S214402F2084F845206E4964E01A6801F14205111D97
S214402F301960136884F842300123A3E011F0400F73
S214402F4002F104011960D7D0B2F90030002B03DA41
S214402F502D225B4284F8432062490A2217E020680B
S214402F60196810F0800F03D0081D18600B6806E043
S214402F7010F0400F01F104001860F7D00B88594953
S214402F806F2A14BF0A220822002084F8430065688E
S214402F90A560002DC0F29C80206820F004002060D0
S214402FA0002B3FD1002D40F095807546082A0BD166
S214402FB02368DA0708D5236962689A42DEBF302361
S214402FC005F8013C05F1FF35AEEB05032361CDF86E
S214402FD000803B4603AA21463046FFF7EFFE01300D
S214402FE055D14FF0FF3005B0BDE8F08381F845205D
S214402FF03C492268186812F0800F00F104051D60F5
S21440300001D0036802E05506FBD50388D00744BFCD
S21440301042F0200222601BB9226822F02002226081
S2144030201022B1E77546B3FBF2F002FB1033CB5CDF
S21440303005F8013D03460028F5D1B7E708681A6849
S214403040496910F0800F04D0101D1860136819608D
S21440305007E010F0400F02F1040018601368F6D045
S2144030601980002323617546B1E71A68111D19605F
S214403070156862680021284600F04AF808B1401BEF
S214403080606063682361002384F843309FE72369C8
S2144030902A4639463046C0470130A2D023689B07AF
S2144030A007D5002504F11909E368039A9B1A9D4247
S2144030B005DBE068039B9842B8BF184693E70123B8
S2144030C04A4639463046C04701308AD00135EBE79C
S2144030D0002BA7D10B7884F8423004F1420565E70F
S2144030E03E3540002D35400038B5064C0023054699
S2144030F008462360FDF720FA431C02D1236803B13B
S2144031002B6038BD5C0B4020000000000000000033
S21440311001F0FF01102A2BDB10F0070F08D010F843
S214403120013B013A8B422DD010F0070F42B3F6D147
S214403130F0B441EA012141EA014122F007047FF060
S21440314000070023F0E80256083C85EA010586EAB7
S214403150010685FA47F5A3FA87F586FA47F6A5FAF3
S21440316087F68EB9EED1F0BC01F0FF0102F00702FF
S21440317032B110F8013B013A83EA010313B1F8D1AA
S2144031800020704701387047002D06BF354603388B
S214403190073815F0010F07D1013015F4807F02BFC4
S2144031A0013015F4C03F0130F0BC0138704700BF15
S2144031B0884210B501EB020303D8421E99420CD157
S2144031C010BD9842F9D28118D21AD34200D110BD10
S2144031D013F8014D01F8014DF7E711F8014B02F8DD
S2144031E0014FEBE77047704738B50546002945D094
S2144031F051F8043C0C1F002BB8BFE418FFF7F2FF51
S2144032001F4A1368104633B9636014602846BDE809
S2144032103840FFF7E8BFA3420CD9216862189342B2
S21440322004BF1A685B68636004BF5218226004607B
S214403230ECE713465A680AB1A242FAD919685818F8
S214403240A0420BD120680144581882421960DDD153
S214403250106852685A6001441960D7E702D90C23B7
S2144032602B60D3E7206821188A4204BF1168526851
S214403270626004BF091821605C60C7E738BD00BFC4
S2144032803C0B4020F8B5074614460E4621B9114679
S214403290BDE8F840FFF7E4BB22B9FFF7A5FF254697
S2144032A02846F8BD00F014F884420FD92146384627
S2144032B0FFF7D6FB05460028F2D031462246FFF7F8
S2144032C08FFB31463846FFF78FFFE9E73546E7E79D
S2144032D051F8040C0028A0F10400BCBF0B58C018DD
S2144032E0704700002E2E2F68616C2F696E636C75D8
S2144032F064652F68616C5F7764742E680000000018
S2144033002E2E2F68616C2F7372632F68616C5F6915
S2144033106F2E63002E2E2F68616C2F7372632F689A
S214403320616C5F72616E645F73796E632E630000DA
S2144033302E2E2F68616C2F7372632F68616C5F75D9
S214403340736172745F73796E632E63002E2E2F68DE
S214403350706C2F74726E672F68706C5F74726E67D5
S2144033602E6300000000000000080000F40000008B
S2144033702E2E2F68706C2F756172742F68706C5F7C
S214403380756172742E6300002E2E2F68706C2F7736
S21440339064742F68706C5F7764742E63000000005E
S2144033A0436F6D7075746174696F6E205461736B92
S2144033B020310000436F6D7075746174696F6E20C4
S2144033C05461736B20320000436F6D707574617486
S2144033D0696F6E205461736B20330000436F6D70CD
S2144033E075746174696F6E205461736B20312C2044
S2144033F0496E7374616E63652025752C2050726922
S2144034006F726974793A202575202C204E756D624E
S2144034106572203A2025750A00000000436F6D70E3
S21440342075746174696F6E205461736B20322C2002
S214403430496E7374616E63652025752C20507269E1
S2144034406F726974793A202575202C204E756D620E
S2144034506572203A2025750A00000000436F6D70A3
S21440346075746174696F6E205461736B20332C20C1
S214403470496E7374616E63652025752C20507269A1
S2144034806F726974793A202575202C204E756D62CE
S2144034906572203A2025750A0000000049444C45D4
S2144034A0000000000925630925750925750925755D
S2144034B00D0A0000546D7220537663000000000031
S2144034C000000000000000000000000000000000B7
S2144034D000000000000000000000000000000000A7
S2144034E00000000000000000000000000000000097
S2144034F00000000000000000000000000000000087
S2144035000000000000000000000000000000000076
S214403510000000000000000000000000232D302BBB
S2144035202000686C4C00656667454647003031327F
S21440353033343536373839414243444546003031D6
S2144035403233343536373839616263646566000035
S214403550F8B500BFF8BC08BC9E4670478D014000D9
S214403560F8B500BFF8BC08BC9E46704769014000ED
S214403570AAAAAAAA0800402000000000DC344000A6
S214403580FC344000BC344000000000000000000056
S21440359000000000000000000000000000000000E6
S2144035A000000000000000000000000000000000D6
S2144035B000000000000000000000000000000000C6
S2144035C000000000000000000000000000000000B6
S20C4035D00000000000000000AE
S804400000BB
