:020000040040BA
:1000000058114020E5014000E1014000E1014000BD
:10001000E1014000E1014000E1014000000000007A
:10002000000000000000000000000000810B400004
:10003000E101400000000000210C4000850C400060
:10004000E1014000E1014000E1014000E101400028
:10005000E1014000E1014000E1014000E101400018
:10006000E101400000000000E1014000E10140002A
:10007000E1014000E1014000E1014000E1014000F8
:10008000E1014000E1014000E1014000E1014000E8
:10009000E1014000E1014000E1014000E1014000D8
:1000A000E1014000E1014000E1014000E1014000C8
:1000B000E1014000E1014000E1014000E1014000B8
:1000C000E1014000E1014000E1014000E1014000A8
:1000D000E1014000E1014000E1014000E101400098
:1000E000E1014000E1014000E1014000E101400088
:1000F000E1014000E1014000E1014000E101400078
:10010000E1014000E1014000E1014000E101400067
:10011000E1014000E101400000000000000000009B
:10012000E1014000E1014000E1014000E101400047
:10013000E1014000E1014000E1014000E101400037
:10014000E1014000E1014000E1014000E101400027
:10015000E1014000E1014000E1014000E101400017
:10016000E1014000E101400010B5054C237833B9AE
:10017000044B13B10448AFF300800123237010BD7A
:100180000400402000000000C82A40000C4B43B18E
:100190000C480D4910B5AFF300800C48036823B933
:1001A00010BD0A48036833B97047094B002BF7D0DC
:1001B000BDE810401847064B002BF5D0184700BF8C
:1001C00000000000C82A400008004020C82A400063
:1001D0000000000008B5014B984708BDD10240005F
:1001E000FEE7000008B5104B104A9A4209D00E4BAA
:1001F0000E4A03E011681960043304320C498B4243
:10020000F8D30C4B02E000221A6004330A4A9342EE
:10021000F9D30A4A0A4B23F07F039360094B9847AE
:10022000094B9847FEE700BF00004020C82A400065
:100230000400402004004020580B402000ED00E066
:100240000000400099284000190A40000B4B1A6F2B
:1002500022F080521A675A6F22F080525A674FF08C
:1002600080525A601A6F22F080421A675A6F22F049
:1002700080425A674FF080425A60704700140E4027
:10028000054BD3F8083113F4005F04D14FF400524A
:10029000014BC3F80021704700060E4008B5064B1D
:1002A0009847064B9847024605490648064B98472B
:1002B000064B984708BD00BF81024000F10740008F
:1002C000001C0E40B80A4020110440004D024000BE
:1002D00008B5054B9847054A536843F400435360FB
:1002E000034B984708BD00BFB504400050180E40AE
:1002F0009D024000EFF31083036072B6BFF35F8F7F
:100300007047BFF35F8F036883F310887047000066
:1003100070B5164604460D46002818BF002914BFC4
:100320000120002034220449044B984723683246B8
:1003300029462046984770BD08294000AD0440007A
:10034000F8B5164605460F46002818BF002902D00A
:100350000ABB002000E00020F1221049104B984712
:1003600005F1080420460F4B98470028F8D00025D7
:10037000795D20460C4B984720460A4B9847002849
:10038000FAD00135B542F3D32046084B98470028F0
:10039000FAD02846F8BD0120DEE700BF1C29400046
:1003A000AD0440007907400031074000A10740003C
:1003B0002DE9F041174605468846002818BF002958
:1003C00002D0D2B9002000E000204FF486720C4920
:1003D0000C4B9847002605F1080420460A4B984725
:1003E0000028F8D02046094B984708F80600013647
:1003F000BE42F0D33046BDE8F0810120E5E700BF02
:100400001C294000AD044000C907400055074000CA
:1004100038B504460D46002818BF002914BF012036
:10042000002034220749084B9847294604F1080068
:10043000064B9847034618B9054A6260054A226090
:10044000184638BD1C294000AD044000C5064000D8
:10045000B10340004103400010B504465322064951
:10046000003018BF0120054B984704F10800044BE9
:100470009847002010BD00BF1C294000AD0440007B
:10048000FD06400038B505460C46002818BF002977
:1004900014BF0120002069220249034B98472560C0
:1004A000002038BD1C294000AD04400000B900BE4A
:1004B0007047000000B583B001A80E4B98470E4A64
:1004C000D2F8883043F47003C2F88830BFF34F8FFE
:1004D000BFF36F8F01A8094B9847094A136823F4AB
:1004E000706343F4C0631360064B984703B05DF834
:1004F00004FB00BFF502400000ED00E003034000F4
:10050000000C0E40A50540000E490A6A22F00202C6
:100510000D4B13430B620B4B9B6E13F0010FFAD084
:10052000084B196A094A0A431A62996A084A0A403A
:100530009A62084A9A62034B9B6E13F0020FFAD03C
:10054000704700BF00060E40013E37000000370133
:10055000FFFF00F8013F1820114A136B23F07003CE
:1005600013630F4B9B6E13F0080FFAD00C4A136BFA
:1005700023F4407343F480731363094B9B6E13F0B1
:10058000080FFAD0064A136B23F0030343F002036B
:100590001363034B9B6E13F0080FFAD0704700BF34
:1005A00000060E4008B5024B9847024B984708BD1D
:1005B000090540005905400010B5044640F21922D3
:1005C0001249003018BF0120114B9847114B9C4233
:1005D00013D003F500739C4211D003F580539C4265
:1005E0000FD003F500739C420DD003F500739C42BD
:1005F00001D0FF2010BD042010BD002010BD01203F
:1006000010BD022010BD032010BD00BF44294000D2
:10061000AD04400000080E4010B504464FF42772A8
:100620000E49003018BF01200D4B984720460D4B56
:100630009847002343B140F2A62208490020084B06
:1006400098470023184610BD03EB43018A00064972
:100650008A5C9042F6D00133DBB2EBE744294000DC
:10066000AD044000B90540003829400010B50446EB
:1006700040F2B3220E49003018BF01200D4B9847BD
:1006800020460D4B98470D4BC4F8E430AC23236053
:100690004FF48073236000EB40008200084B13444A
:1006A0005B6863604FF474732362002010BD00BF69
:1006B00044294000AD044000190640000052415555
:1006C00038294000F8B50C46094E0746A9223146A4
:1006D000003018BF0120074DA847AA223146201C30
:1006E00018BF0120A8473C602046034B9847F8BD3F
:1006F00044294000AD0440006D06400070B50A4E2C
:100700000446F2223146003018BF0120074DA847A9
:10071000246840F2D7223146201C18BF0120A84788
:100720005023236070BD00BF44294000AD04400049
:1007300038B50C46054640F295120449003018BF02
:100740000120034B98472B68DC6138BD44294000E9
:10075000AD04400010B5044640F2A7120449003031
:1007600018BF0120034B984723689869C0B210BD99
:1007700044294000AD04400010B504464FF4D8723F
:100780000549003018BF0120044B98472368586979
:10079000C0F3400010BD00BF44294000AD0440003C
:1007A00010B5044640F2B9120549003018BF0120C7
:1007B000044B984723685869C0F3402010BD00BF20
:1007C00044294000AD04400010B5044640F2CB126D
:1007D0000549003018BF0120044B98472368586929
:1007E00000F0010010BD00BF44294000AD044000EE
:1007F0000020704708B580220146024B1868024B62
:10080000984708BD480B40201103400008B503E09D
:100810004FF47A700D4B98474FF0FF310C4B18682E
:100820000C4B98470128F3D10B480C4CA0470C48BF
:10083000A0474FF400020B4B5A6300231A46194697
:1008400003480068084CA047E2E700BF091F4000CA
:100850004C0B4020C11640005C294000F5074000C9
:1008600078294000000E0E40D911400000B583B039
:100870000AE000231A46194612480068124CA047A5
:100880004FF47A70114B98474FF0FF310D4B1868B9
:100890000F4B98470128F3D10E480F4B98470F4B49
:1008A0001B68002BE5D10E480B4B98470B4B01936F
:1008B00002230093002340220A490B480B4CA04717
:1008C000D7E700BF4C0B4020D9114000091F400062
:1008D000C116400088294000F5074000C40A4020A6
:1008E000A4294000C0294000F10840009D1B4000A1
:1008F00008B503E04FF47A700D4B98474FF0FF3185
:100900000C4B18680C4B98470128F3D10B480C4C42
:10091000A0470C48A0474FF400020B4B1A6300237A
:100920001A46194603480068084CA047E2E700BF92
:10093000091F40004C0B4020C1164000D429400044
:10094000F5074000F0294000000E0E40D91140008C
:1009500010B5084C08492046084B98472046084BDC
:100960009847084B4FF400021A61C3F890205A666A
:1009700010BD00BFB80A4020480B4020850440004D
:1009800059044000000E0E4030B583B00120134BD7
:100990009847134C20601348134B98472368D3B1F2
:1009A0001248114CA047124B0193012300930023DE
:1009B000402210491048114DA8471148A047114B3B
:1009C00001930023009340220F491048A847104884
:1009D000A047104B984703B030BD00BFE51340005F
:1009E0004C0B4020002A4000F5074000142A40002C
:1009F000540B4020302A40000D0840009D1B400051
:100A0000442A4000500B4020602A40006D084000FE
:100A1000742A4000111C400008B5044B9847044B51
:100A200098470020034B9847002008BDD50140009F
:100A3000510940008909400000F1080343604FF06C
:100A4000FF328260C36003610023036070470023AC
:100A50000361704743684B609A688A609A68516086
:100A600099600861036801330360704730B40D6812
:100A7000B5F1FF3F02D000F1080202E0026904E094
:100A80001A4653681C68A542FAD253684B609960B5
:100A90008A605160086103680133036030BC7047AD
:100AA00003694268816891608268416851605A6850
:100AB000904206D0002202611A68013A1A60186852
:100AC000704782685A60F5E782B0002301930F4BAC
:100AD0001B68B3F1FF3F0AD04FF0800372B683F377
:100AE0001188BFF36F8FBFF34F8F62B6FEE74FF0F1
:100AF000800372B683F31188BFF36F8FBFF34F8FFC
:100B000062B6019B002BFCD002B070470000402071
:100B100008480068006880F308884FF0000080F300
:100B2000148862B661B6BFF34F8FBFF36F8F00DFDB
:100B300000BF000008ED00E0DFF80C00016841F4A0
:100B4000700101607047000088ED00E04FF0807395
:100B500040F8043C21F0010140F8081C054B40F826
:100B60000C3C40F8202C6FF0020340F8243C443841
:100B7000704700BFC90A40000000000000000000EC
:100B8000074B19680868B0E8F04F80F30988BFF395
:100B90006F8F4FF0000080F311887047AFF3008033
:100BA000540A40204FF0800372B683F31188BFF3DC
:100BB0006F8FBFF34F8F62B60B4A13680133136018
:100BC000012B0FD1094B1B6813F0FF0F0AD04FF018
:100BD000800372B683F31188BFF36F8FBFF34F8F1B
:100BE00062B6FEE7704700BF0000402004ED00E061
:100BF0000A4B1B6853B94FF0800372B683F3118818
:100C0000BFF36F8FBFF34F8F62B6FEE7013B034A1E
:100C100013600BB983F31188704700BF00004020B8
:100C2000EFF30980BFF36F8F154B1A681EF0100F9A
:100C300008BF20ED108A20E9F04F10602DE909006F
:100C40004FF0800072B680F31188BFF34F8FBFF36F
:100C50006F8F62B601F088F94FF0000080F31188C1
:100C600009BC19680868B0E8F04F1EF0100F08BF03
:100C7000B0EC108A80F30988BFF36F8F704700BF14
:100C8000540A402008B54FF0800372B683F31188F0
:100C9000BFF36F8FBFF34F8F62B6054B984718B104
:100CA0004FF08052034B1A60002383F3118808BD74
:100CB000C11C400004ED00E0054B00221A6005490C
:100CC0000A600549054A116007221A60704700BF93
:100CD00010E000E018E000E0DF93040014E000E022
:100CE00010B582B02B4B1A78D2B20192FF221A7043
:100CF0001B78DBB28DF803309DF8033003F08003DE
:100D0000254A13700723536009E0234A5368013BC7
:100D100053609DF803305B00DBB28DF803309DF823
:100D2000033013F0800FF0D11B4B5B68042B0AD00B
:100D30004FF0800372B683F31188BFF36F8FBFF358
:100D40004F8F62B6FEE71B0203F4E063124A536062
:100D5000019BDBB20F4A1370104B1A6842F4600219
:100D60001A601A6842F060421A600D4B98470024DE
:100D70000C4B1C600C4B98470C4A136843F04043E3
:100D800013600B4B98470B4B98470B4B98472046EB
:100D900002B010BD00E400E02000402020ED00E0A3
:100DA000B90C400000004020390B400034EF00E057
:100DB000110B4000691F4000C90A4000EFF3058392
:100DC0000F2B11D9124A9B5CDBB2124A1278934264
:100DD0000AD24FF0800372B683F31188BFF36F8F8E
:100DE000BFF34F8F62B6FEE70B4B1B6803F4E06363
:100DF000084A526893420AD94FF0800372B683F3CF
:100E00001188BFF36F8FBFF34F8F62B6FEE7704755
:100E1000F0E300E0200040200CED00E038B504468F
:100E200010F0070F02D020F007040834114B984748
:100E3000114B1B6893B1104BD3F864391C4440F636
:100E40005712944211D8A34211D20B4A15681D447F
:100E5000C2F86449094B9847284638BD064A02F152
:100E60000C0323F007031360E5E70025F2E70025F4
:100E7000F0E700BFA11C400028004020F91D400001
:100E800050B14FF0800372B683F31188BFF36F8FB8
:100E9000BFF34F8F62B6FEE77047436A23B1036B1F
:100EA0001868C0F1050070470020704710B504466F
:100EB000064B9847A26BE36B9A4204D00024044B84
:100EC0009847204610BD0124F9E700BFA50B40005C
:100ED000F10B400010B50446054B9847A36B23B1B6
:100EE0000024044B9847204610BD0124F9E700BFB9
:100EF000A50B4000F10B400070B504461646856B0B
:100F0000026C52B90368002B2AD14068184B9847ED
:100F1000002363600135A56370BD6EB98068154B11
:100F20009847226CA3681344A3606268934219D364
:100F30002368A3600020EDE7C0680E4B9847236C40
:100F40005B42E2681A44E26021688A4202D2626827
:100F50001344E360022E07D145B1013D0020D9E7DB
:100F60000020D7E70020D5E70020D3E70020D1E715
:100F7000A1224000E128400070B582B00190846C4D
:100F800074B1A26BE36B9A4215D34FF0800372B633
:100F900083F31188BFF36F8FBFF34F8F62B6FEE705
:100FA0004FF0800372B683F31188BFF36F8FBFF3E6
:100FB0004F8F62B6FEE7A26B934203D800263046FD
:100FC00002B070BD0A4694F845506DB201A92046A2
:100FD0000A4B98470646B5F1FF3F0AD1636A002BDA
:100FE000EDD004F12400064B98470028E7D00126F5
:100FF000E5E76B1C5BB284F84530E0E7F90E400092
:1010000085204000026C72B110B50346C4681444D8
:10101000C4604068844201D31868D8600846D96823
:10102000014B984710BD7047E128400038B5054690
:101030001F4B984795F8454064B208E06B6ABBB116
:1010400005F124001B4B984778B9013C64B2002C91
:101050000EDDAB6C002BF1D000212846164B9847D3
:101060000028F2D0154B9847EFE7144B9847ECE770
:10107000FF2385F84530124B98470D4B984795F85C
:10108000444064B201E0013C64B2002C0ADD2B69EB
:1010900043B105F11000074B98470028F3D0074BE8
:1010A0009847F0E7FF2385F84430054B984738BD53
:1010B000A50B400085204000790F4000C121400071
:1010C000F10B400038B530B304460D461D4B984730
:1010D0002168E26B236C03FB021060600020A063B8
:1010E000A160013A02FB0313E360FF2384F844305C
:1010F00084F84530D5B92369FBB104F11000124BD7
:101100009847D0B14FF08052104B1A60BFF34F8F09
:10111000BFF36F8F11E04FF0800372B683F3118835
:10112000BFF36F8FBFF34F8F62B6FEE704F110007D
:10113000074DA84704F12400A847064B9847012013
:1011400038BD00BFA50B40008520400004ED00E045
:10115000390A4000F10B400038B51D46049C0B468F
:1011600059B12260E063236401212046044B984773
:1011700084F850500023A36438BD2460F2E700BF18
:10118000C510400050B94FF0800372B683F3118848
:10119000BFF36F8FBFF34F8F62B6FEE7F0B583B03A
:1011A000054611B101FB00F000E0002017460C4697
:1011B0005430074B9847064638B100903B4600F143
:1011C000540221462846034CA047304603B0F0BDE8
:1011D0001D0E400059114000F0B585B0019270B16C
:1011E0000446B9B10125DDB94FF0800372B683F32F
:1011F0001188BFF36F8FBFF34F8F62B6FEE74FF0DA
:10120000800372B683F31188BFF36F8FBFF34F8FE4
:1012100062B6FEE7026C0AB90125E4E70025E2E7C1
:10122000022B0BD07DB94FF0800372B683F3118887
:10123000BFF36F8FBFF34F8F62B6FEE7E26B012AF9
:10124000F0D00025EEE71E460F46514B984710B9E7
:10125000019B03B1002555B94FF0800372B683F3AB
:101260001188BFF36F8FBFF34F8F62B6FEE7002583
:101270003DE0324639462046464B9847A36C8BB139
:1012800031462046444B984738B14FF08052434B8B
:101290001A60BFF34F8FBFF36F8F414B9847012008
:1012A00005B0F0BD636A73B104F124003D4B98476B
:1012B0000028F2D04FF08052384B1A60BFF34F8FA6
:1012C000BFF36F8FE9E70028E7D04FF08052334B30
:1012D0001A60BFF34F8FBFF36F8FDEE7304B984735
:1012E0000020DDE72046304B9847304B9847304B85
:1012F0009847A26BE36B9A42BBD3022EB9D0019BF5
:10130000002BEBD01DB902A82A4B98470125244B8E
:101310009847294B9847264B984794F844305BB23E
:10132000B3F1FF3F02D1002384F8443094F84530F4
:101330005BB2B3F1FF3F02D1002384F84530184B74
:10134000984701A902A81D4B9847C8B920461C4BD5
:1013500098470028C6D0019904F11000194B98470E
:101360002046114B9847114B98470028BFD14FF0AA
:1013700080520A4B1A60BFF34F8FBFF36F8FB6E7EF
:101380002046094B9847094B9847002088E700BF43
:10139000D1214000F90E4000790F400004ED00E03B
:1013A000F10B4000852040002D104000F91D400049
:1013B000A50B400019214000A11C40002D21400038
:1013C000AD0E4000FD1F400048B110B50021416046
:1013D0000160C1600B460A46014CA04710BD704732
:1013E000D911400010B5024600210120034B984757
:1013F0000446034B9847204610BD00BF85114000AE
:10140000C91340002DE9F84370B10446B9B1012079
:10141000D8B94FF0800372B683F31188BFF36F8F92
:10142000BFF34F8F62B6FEE74FF0800372B683F3CF
:101430001188BFF36F8FBFF34F8F62B6FEE7006C6A
:1014400008B90120E4E70020E2E7022B0BD078B9CD
:101450004FF0800372B683F31188BFF36F8FBFF331
:101460004F8F62B6FEE7E56B012DF0D00020EEE76E
:101470001F4690468946284B9847EFF311864FF058
:10148000800372B683F31188BFF36F8FBFF34F8F62
:1014900062B6A26BE36B9A4201D3022F2FD194F86C
:1014A00045506DB23A46494620461C4B9847B5F127
:1014B000FF3F1ED1A36C73B139462046184B9847A5
:1014C000F8B1B8F1000F1ED00120C8F8000086F373
:1014D0001188BDE8F883636ABBB104F12400114BA5
:1014E0009847A0B1B8F1000F13D00120C8F8000050
:1014F000EDE76B1C5BB284F845300120E7E7002084
:10150000E5E70120E3E70120E1E70120DFE7012033
:10151000DDE70120DBE700BFBD0D4000F90E400014
:10152000790F400085204000F0B585B0019270B180
:101530000446B9B10125DDB94FF0800372B683F3DB
:101540001188BFF36F8FBFF34F8F62B6FEE74FF086
:10155000800372B683F31188BFF36F8FBFF34F8F91
:1015600062B6FEE7036C0BB90125E4E70025E2E76C
:101570000E46464B984710B9019B03B1002555B95B
:101580004FF0800372B683F31188BFF36F8FBFF300
:101590004F8F62B6FEE700272FE0314620463C4BD6
:1015A0009847013DA563236963B104F11000394BED
:1015B000984738B14FF08052374B1A60BFF34F8FC6
:1015C000BFF36F8F354B9847012005B0F0BD334B0B
:1015D00098470020F9E702A8314B9847012716E009
:1015E000002384F844301EE0002384F8453020E0D6
:1015F00020462C4B98472C4B98472C4B9847A56B73
:10160000002DCAD1019B002BE1D0002FE3D0234B4A
:101610009847274B9847254B984794F844305BB23E
:10162000B3F1FF3FDCD094F845305BB2B3F1FF3F3C
:10163000DAD01A4B984701A902A81E4B9847C8B99F
:1016400020461D4B98470028D2D0019904F1240070
:101650001A4B98472046134B9847134B984700283E
:10166000CBD14FF080520C4B1A60BFF34F8FBFF3BA
:101670006F8FC2E720460B4B98470B4B984720468D
:101680000D4B98470028B8D000209EE7D12140009C
:10169000051040008520400004ED00E0F10B400003
:1016A000192140002D104000F91D4000A50B4000FD
:1016B000A11C40002D214000D50E4000FD1F400020
:1016C00070B584B0019168B10446036CABB14FF0C2
:1016D000800372B683F31188BFF36F8FBFF34F8F10
:1016E00062B6FEE74FF0800372B683F31188BFF352
:1016F0006F8FBFF34F8F62B6FEE75D4B984770B9AF
:10170000019B73B9012373B94FF0800372B683F361
:101710001188BFF36F8FBFF34F8F62B6FEE70123CF
:10172000F1E70023EFE700252E4650E0013BA363DD
:10173000236813B94F4B98476060236963B104F184
:1017400010004D4B984738B14FF080524B4B1A6008
:10175000BFF34F8FBFF36F8F494B98470125284642
:1017600004B070BD55B14FF0800372B683F3118899
:10177000BFF36F8FBFF34F8F62B6FEE7404B9847C2
:10178000EDE702A83F4B984701262AE0002384F8A2
:10179000443032E0002384F8453034E03A4B984737
:1017A00060683A4B98470546354B98473BE02046E2
:1017B000374B9847374B984709E02046344B9847BA
:1017C000344B98472046344B9847002840D12E4B45
:1017D0009847A36B002BA9D1019B002BC2D0002EF0
:1017E000CFD0274B98472D4B9847274B984794F8D5
:1017F00044305BB2B3F1FF3FC8D094F845305BB2E0
:10180000B3F1FF3FC6D01E4B984701A902A8244B55
:1018100098470028D1D120461F4B98470028C6D0B2
:101820002368002BBAD0019904F124001D4B98477E
:101830002046174B9847174B98470028C7D14FF0C1
:1018400080520E4B1A60BFF34F8FBFF36F8FBEE70E
:10185000002D84D00C4B98472046134B98470146E7
:101860006068124B9847064B9847002577E700BF02
:10187000D1214000012440008520400004ED00E01B
:10188000F10B400019214000A50B4000F121400060
:101890002D104000F91D4000D50E4000A11C400055
:1018A0002D214000FD1F40009B0E400045234000BD
:1018B00070B504460D461646124B984794F84430CE
:1018C0005BB2B3F1FF3F0DD094F845305BB2B3F19A
:1018D000FF3F0BD00C4B9847A36B5BB120460B4BE3
:1018E000984770BD002384F84430EDE7002384F866
:1018F0004530EFE73246294604F12400044B98476F
:10190000ECE700BFA50B4000F10B40002D1040009C
:101910003D204000064B9B6A012BFBD94FF08052C3
:10192000044B1A60BFF34F8FBFF36F8FF2E700BF16
:101930009009402004ED00E00B4BD3F88C301B687D
:1019400053B9012353B9084BD3F88C20D268D2681D
:101950005268C3F8902070470023F3E74FF0FF323E
:10196000014BC3F890207047900940202DE9F84FB3
:1019700081460D4693469A460A9EDDF82C800C9CC3
:101980009200A521206B1D4B9847276B6FF04043B9
:101990005B4407EB830727F007070023072B07D8D3
:1019A000E95CE21882F83410EA5C0AB10133F5E729
:1019B000002384F83B30042E00D90426E6626664D6
:1019C0000025A564201DDFF83CB0D84704F11800BD
:1019D000D8472461C6F10506A6616462E56484F80F
:1019E0005050524649463846054B98472060B8F15A
:1019F000000F01D0C8F80040BDE8F88FF72840007C
:101A00004D0B40004F0A4000F8B5002407E004EBFE
:101A1000840293000D4818440D4B98470134042C60
:101A2000F5D90C4C04F194073846094DA84704F148
:101A3000A8063046A84704F11400A8472046A84746
:101A4000C4F88C70C4F8BC60F8BD00BFB809402071
:101A5000390A40009009402038B50446284B984781
:101A6000284BD3F8C0200132C3F8C020D3F8C430CB
:101A7000002B3AD0234BD3F8C8304BB9214BD3F8C5
:101A8000C430DA6AE36A9A4202D81E4BC3F8C440F3
:101A90001C4AD2F8CC300133C2F8CC30E363E36A9D
:101AA000D2F8D020934202D9164AC2F8D030154D50
:101AB00005F1280003EB83039A00211D1044124B0B
:101AC0009847124B9847D5F8C8306BB1D5F8C43059
:101AD000DA6AE36A9A4207D24FF080520C4B1A60DE
:101AE000BFF34F8FBFF36F8F38BD064BC3F8C440B1
:101AF000D3F8C030012BCBD1064B9847C8E700BFC5
:101B0000A50B400090094020550A4000F10B400011
:101B100004ED00E0091A400070B504460E461B4B68
:101B2000D3F8D450D3F8C4000430194B9847B4F11B
:101B3000FF3F14BF00230123002E08BF0023ABB9D1
:101B40002C44124BD3F8C4305C60A54215D80F4D1D
:101B5000D5F88C00D5F8C41004310E4B9847D5F851
:101B600090309C4201D2C5F8904070BD0748D0F833
:101B7000C4100431084B984770BD044BD3F8BC0027
:101B8000D3F8C4100431034B984770BD900940202E
:101B9000A10A40006D0A4000550A40002DE9F043BB
:101BA00085B006460F46154698469000144B984758
:101BB00000B381465420124B98470446B0B1C0F898
:101BC0003090CCB10023039302940D9B01930C9BA6
:101BD000009343462A46394630460A4DA8472046D8
:101BE000094B9847012005B0BDE8F0834846074BF4
:101BF0009847E6E70024E4E74FF0FF30F3E700BF43
:101C00001D0E40006D194000591A4000810E400021
:101C100010B582B01B4B01930023009340221A4958
:101C20001A481B4CA047012806D0012807D0B0F164
:101C3000FF3F1CD002B010BD164B9847F5E74FF0A0
:101C4000800372B683F31188BFF36F8FBFF34F8F9A
:101C500062B6114B4FF0FF32C3F890200122C3F857
:101C6000C8200022C3F8D4200C4B9847E2E74FF07D
:101C7000800372B683F31188BFF36F8FBFF34F8F6A
:101C800062B6FEE76C0A4020882A40001519400021
:101C90009D1B4000DD24400090094020E10C4000E5
:101CA000034AD2F8D8300133C2F8D830704700BFA9
:101CB00090094020014BD3F8D40070479009402090
:101CC0002DE9F041484BD3F8D830002B7DD1464B5D
:101CD000D3F8D4500135C3F8D450F5B9D3F88C30CB
:101CE0001B6853B14FF0800372B683F31188BFF3C2
:101CF0006F8FBFF34F8F62B6FEE73B4BD3F88C205C
:101D0000D3F8BC10C3F88C10C3F8BC20D3F8E02083
:101D10000132C3F8E020354B9847334BD3F890306D
:101D20009D4244D20024304AD2F8C430DB6A03EB2F
:101D3000830399000A44936A012B4DD901244BE097
:101D40000124294BD3F88C301B68002B31D00023A1
:101D5000002B30D1244BD3F88C30DB68DE687368FD
:101D60009D422ED306F104084046214B9847B36AA2
:101D70001BB106F118001E4B9847F36A1A4AD2F8B5
:101D8000D020934202D9184AC2F8D030164F07F13A
:101D9000280003EB83039A0041461044154B9847F3
:101DA000F26AD7F8C430DB6A9A42C9D2C9E7002484
:101DB000C7E70123CCE74FF0FF320B4BC3F890206D
:101DC000B1E7094AC2F89030ADE7074AD2F8E430EB
:101DD0000133C2F8E4300024034BD3F8E83003B1F8
:101DE00001242046BDE8F0819009402039194000C7
:101DF000A10A4000550A4000F8B53B4BD3F8D83053
:101E000053B94FF0800372B683F31188BFF36F8F1D
:101E1000BFF34F8F62B6FEE7344B9847324BD3F88F
:101E2000D820013AC3F8D820D3F8D830002B56D1A7
:101E30002D4BD3F8C03023B900242D4B98472046B2
:101E4000F8BD0024284B5B6923B3274D2B6ADC685F
:101E500004F11800274FB847261D3046B847E36AFB
:101E6000D5F8D020934201D9C5F8D0301E4D05F1E8
:101E7000280003EB83039A00314610441E4B984719
:101E8000E26AD5F8C430DB6A9A42DBD30122C5F896
:101E9000E820D7E70CB1194B9847134BD3F8E4402F
:101EA0007CB9114BD3F8E830DBB14FF08052144BC2
:101EB0001A60BFF34F8FBFF36F8F0124BDE7013C62
:101EC00008D0104B98470028F9D00122064BC3F8E0
:101ED000E820F4E70022044BC3F8E420E1E7002403
:101EE000ABE70024A9E700BF90094020A50B400004
:101EF000F10B4000A10A4000550A4000391940008A
:101F000004ED00E0C11C400010B5C0B10446114B07
:101F1000D3F8D83053B14FF0800372B683F31188F1
:101F2000BFF36F8FBFF34F8F62B6FEE70A4B984740
:101F300000212046094B9847094B984700E00020B4
:101F400038B94FF08052074B1A60BFF34F8FBFF381
:101F50006F8F10BD90094020A11C4000191B40004C
:101F6000F91D400004ED00E0234BD3F8D8307BB9D5
:101F7000214B0022C3F8E820D3F8D03003EB8302D2
:101F800091001D4A0A44926A92B933B1013BF5E7C8
:101F90000122194BC3F8E82070474FF0800372B656
:101FA00083F31188BFF36F8FBFF34F8F62B6FEE7E5
:101FB00010B4114A9900CC18A0001044C46A646897
:101FC000C462283219448800014608300244944211
:101FD0000DD0094903EB830082000A44D26AD2681B
:101FE000C1F8C420C1F8D0305DF8044B7047606878
:101FF000014A0A44D062ECE79009402050B94FF002
:10200000800372B683F31188BFF36F8FBFF34F8FD6
:1020100062B6FEE710B50C46054BD3F8C410183174
:10202000044B984701212046034B984710BD00BF41
:10203000900940206D0A4000191B400038B578B166
:102040000C4615460C4AD2F8C41018310B4B984771
:102050000DB14FF0FF3429462046094B984738BD53
:102060004FF0800372B683F31188BFF36F8FBFF315
:102070004F8F62B6FEE700BF90094020550A40002E
:10208000191B400038B5C368DC684CB304F118056F
:1020900028461C4B98471C4BD3F8D8305BBB251DFA
:1020A0002846184B9847E36A174AD2F8D020934243
:1020B00002D9154AC2F8D03003EB83039A002946AF
:1020C00012481044124B9847E26A0F4BD3F8C430C1
:1020D000DB6A9A4214D901200B4BC3F8E80038BDE3
:1020E0004FF0800372B683F31188BFF36F8FBFF395
:1020F0004F8F62B6FEE729460648054B9847E3E74F
:10210000002038BDA10A400090094020B8094020B5
:10211000550A4000A4094020034BD3F8E020026098
:10212000D3F8D4304360704790094020F8B5F0B13F
:10213000054639B30C461E4B98471E4BD3F8D400C6
:102140006968421A2368B3F1FF3F2DD02F68194EFA
:10215000D6F8E060B74201D0884227D29A421CD319
:10216000002323600124144B98472046F8BD4FF00C
:10217000800372B683F31188BFF36F8FBFF34F8F65
:1021800062B6FEE74FF0800372B683F31188BFF3A7
:102190006F8FBFF34F8F62B6FEE79B1A236028460E
:1021A000064B98470024DEE70024DCE70124DAE749
:1021B000A50B400090094020F10B40001921400080
:1021C0000122024BC3F8E820704700BF900940206D
:1021D000064BD3F8C8302BB1044BD3F8D8301BB919
:1021E000022070470120704700207047900940206E
:1021F00000284AD038B50546C26A2549D1F8C4102E
:10220000C96A8A4236D28169002906DB2049D1F8A1
:10221000C410C96AC1F105018161686902EB8202DB
:1022200091001C4A0A44904208D0002242B9184A40
:10223000D2F8C420D26AEA62012038BD0122F5E753
:102240002C1D2046144B9847114AD2F8C430DB6A43
:10225000EB62D2F8D020934202D90D4AC2F8D030B6
:1022600003EB83039A0021460A4810440B4B98471E
:10227000012038BD426C064BD3F8C430DB6A9A4269
:1022800001D2012038BD002038BD0020704700BFBA
:1022900090094020B8094020A10A4000550A40009A
:1022A000002840D038B50446224AD2F8C4209042D3
:1022B0000AD04FF0800372B683F31188BFF36F8F9B
:1022C000BFF34F8F62B6FEE7826C52B94FF08003C6
:1022D00072B683F31188BFF36F8FBFF34F8F62B66F
:1022E000FEE7013A8264C06A616C88421DD0F2B98F
:1022F000251D2846104B9847636CE362C3F1050225
:10230000A2610C4AD2F8D020934202D9094AC2F8FD
:10231000D03003EB83039A00294608481044084B49
:102320009847012038BD00207047002038BD0020AC
:1023300038BD00BF90094020A10A4000B8094020E4
:10234000550A4000002852D038B50446806C50B978
:102350004FF0800372B683F31188BFF36F8FBFF322
:102360004F8F62B6FEE7626C8A4200D20A46E16A8B
:102370008A4201D0012800D038BD1D48D0F8C400E1
:1023800084420AD14FF0800372B683F31188BFF301
:102390006F8FBFF34F8F62B6FEE7E262A06900283D
:1023A00002DBC2F10502A261636901EB81018800D1
:1023B000104A0244934218D10122002ADCD0251D84
:1023C00028460D4B9847E36A094AD2F8D020934239
:1023D00002D9074AC2F8D03003EB83039A0029469A
:1023E00004481044054B9847C6E70022E5E77047CC
:1023F00090094020B8094020A10A4000550A400039
:10240000064BD3F8C4302BB1044BD3F8C420936CE3
:1024100001339364014BD3F8C40070479009402006
:10242000064B1A681368B3FA83F35B09036013B9A8
:10243000D368186870470020704700BF7C0A4020AE
:1024400008B54160006191420CD8D21A83699A4262
:1024500001D3012008BD011D0B4B58680B4B984759
:10246000002008BD9A422CBF00220122994238BFA9
:1024700000220AB1012008BD011D034B1868034B5F
:102480009847002008BD00BF7C0A40206D0A40002C
:10249000F8B50D4B98470D4B9B6813B10C4B984703
:1024A000F8BD0A4C04F10C0630460A4FB84704F157
:1024B00020052846B8472660656000220C210220CE
:1024C000054B9847A060E9E7A50B40007C0A402037
:1024D000F10B4000390A40008511400010B582B070
:1024E0000F4B98470F4B9B68ABB10F4B01930223E7
:1024F0000093002340220D490D480E4CA04760B9BF
:102500004FF0800372B683F31188BFF36F8FBFF370
:102510004F8F62B6FEE70020F1E702B010BD00BFAA
:10252000912440007C0A4020B00A4020A02A4000AC
:10253000752840009D1B4000C8B130B585B01546D8
:102540000446184A906800282AD01A46019102953C
:10255000039405291EDC144B9847022812D000234F
:102560001A4601A90F488068104CA04716E04FF0AA
:10257000800372B683F31188BFF36F8FBFF34F8F61
:1025800062B6FEE70023089A01A906488068074C56
:10259000A04703E0002301A9054CA04705B030BDCA
:1025A0000020FBE77C0A4020D1214000D9114000E7
:1025B00005144000214B1B681A68002A39D070B5F9
:1025C00082B0DB681E68DC68251D28461C4B9847D6
:1025D000636A20469847E369012B0AD0174B1B68B2
:1025E0001A68002AEDD1154A51681160536002B093
:1025F00070BDA36933449E4207D2636024612946BB
:102600000E4B18680F4B9847E8E7002100910B46E6
:10261000324620460C4CA0470028DFD14FF0800303
:1026200072B683F31188BFF36F8FBFF34F8F62B61B
:10263000FEE7024A51681160536070477C0A4020EF
:10264000A10A40006D0A40003925400038B5054612
:10265000084B98470446084B9B6B984205D30023D0
:102660002B60054B9C63204638BD044B98470123E3
:102670002B60F6E7B51C40007C0A4020B5254000E1
:1026800070B582B005460E46154B1B68DB68DC68EA
:10269000201D144B9847E369012B04D0636A204640
:1026A000984702B070BDA1692B46324629442046A6
:1026B0000D4EB0470028F1D0002100910B462A466C
:1026C00020460A4DA8470028E8D14FF0800372B693
:1026D00083F31188BFF36F8FBFF34F8F62B6FEE7AE
:1026E0007C0A4020A10A40004124400039254000D6
:1026F00070B582B006460C46174B984701A8174B99
:102700009847019B23BB0546B04228BF002C18D038
:102710002CB1134B5B681C68B4FA84F4640922463C
:10272000711B0F4B98680F4B98470F4B984788B910
:102730004FF080520D4B1A60BFF34F8FBFF36F8F76
:1027400008E0094B984729463046094B984701E075
:10275000054B984702B070BDA11C40004D264000BB
:102760007C0A4020B1184000F91D400004ED00E053
:102770008126400030B587B0002203A9364B986807
:10278000364B9847002864D0039B002BF4DB059C54
:10279000636913B1201D324B984702A8314B98470B
:1027A000039B092BE8D801A252F823F0D52740005B
:1027B000D5274000D5274000792740002128400038
:1027C0004B284000D5274000D527400079274000FE
:1027D000212840000499A5690B4602462944204659
:1027E000214DA8470028C7D0636A20469847E3696F
:1027F000012BC1D1A269002100910B46049802442B
:1028000020461A4CA0470028B6D14FF0800372B67C
:1028100083F31188BFF36F8FBFF34F8F62B6FEE76C
:102820000499A16131B103460246014420460E4C91
:10283000A047A1E74FF0800372B683F31188BFF37E
:102840006F8FBFF34F8F62B6FEE72046084B984765
:1028500092E707B030BD00BF7C0A40202915400038
:10286000A10A40004D264000412440003925400087
:10287000810E400000B583B001A8044B9847019930
:10288000034B9847034B9847F6E700BF21244000CD
:10289000F12640007527400070B50D4E0D4CA41B6D
:1028A000A4100025A54209D10B4E0C4C00F0FCF8F9
:1028B000A41BA4100025A54205D170BD56F82530F3
:1028C00098470135EEE756F8253098470135F2E78D
:1028D000B42A4000B42A4000B42A4000B82A40007C
:1028E00010B5431E0A44914200D110BD11F8014BAE
:1028F00003F8014FF7E702440346934200D17047C3
:1029000003F8011BF9E700002E2E2F68616C2F736E
:1029100072632F68616C5F696F2E63002E2E2F68C3
:10292000616C2F7372632F68616C5F757361727471
:102930005F73796E632E63000300000000080000DF
:10294000D00300002E2E2F68706C2F756172742FCB
:1029500068706C5F756172742E6300004578656302
:1029600075746520436F6D7075746174696F6E2046
:102970005461736B20310A005475726E204C4544CB
:10298000204F4E0A0000000045786563757465208D
:10299000436F6D7075746174696F6E205461736BF1
:1029A00020320A004372656174657320436F6D7055
:1029B00075746174696F6E205461736B20330A0003
:1029C000436F6D7075746174696F6E205461736BC1
:1029D000203300004578656375746520436F6D7022
:1029E00075746174696F6E205461736B20330A00D3
:1029F0005475726E204C4544204F46460A00000034
:102A0000456E74657220436F6E74726F6C205461F2
:102A1000736B00004372656174657320436F6D7062
:102A200075746174696F6E205461736B20310A0094
:102A3000436F6D7075746174696F6E205461736B50
:102A4000203100004372656174657320436F6D70BF
:102A500075746174696F6E205461736B20320A0063
:102A6000436F6D7075746174696F6E205461736B20
:102A70002032000053746172745461736B2053638D
:102A8000686564756C65720049444C45000000003F
:102A90000925630925750925750925750D0A0000A5
:102AA000546D722053766300F8B500BFF8BC08BCC3
:102AB0009E4670478D014000F8B500BFF8BC08BCC9
:082AC0009E46704769014000C9
:042AC800AAAAAAAA62
:0400000500400000B7
:00000001FF
