S01C000052544F535F52756E74696D655F5461736B2832292E7372656308
S21440000058114020E1014000DD014000DD01400084
S214400010DD014000DD014000DD0140000000000041
S21440002000000000000000000000000071084000D2
S214400030DD01400000000000110940007509400045
S214400040DD014000DD014000DD014000DD014000F3
S214400050DD014000DD014000DD014000DD014000E3
S214400060DD01400000000000DD014000DD014000F1
S214400070DD014000DD014000DD014000DD014000C3
S214400080DD014000DD014000DD014000DD014000B3
S214400090DD014000DD014000DD014000DD014000A3
S2144000A0DD014000DD014000DD014000DD01400093
S2144000B0DD014000DD014000DD014000DD01400083
S2144000C0DD014000DD014000DD014000DD01400073
S2144000D0DD014000DD014000DD014000DD01400063
S2144000E0DD014000DD014000DD014000DD01400053
S2144000F0DD014000DD014000DD014000DD01400043
S214400100DD014000DD014000DD014000DD01400032
S214400110DD014000DD01400000000000000000005E
S214400120DD014000DD014000DD014000DD01400012
S214400130DD014000DD014000DD014000DD01400002
S214400140DD014000DD014000DD014000DD014000F2
S214400150DD014000DD014000DD014000DD014000E2
S214400160DD014000DD01400010B5054C237833B971
S214400170044B13B10448AFF300800123237010BD35
S21440018004004020000000006C2340000C4B43B1AC
S2144001900C480D4910B5AFF300800C48036823B9EE
S2144001A010BD0A48036833B97047094B002BF7D097
S2144001B0BDE810401847064B002BF5D0184700BF47
S2144001C0000000006C234000080040206C234000E4
S2144001D000000000004B1847C5024000FEE7000044
S2144001E008B50F4A0F4B9A420ED10F4B00210F4ACB
S2144001F0934212D30E4B0F4A23F07F0393600E4B6D
S21440020098470E4B9847FEE7043A0D498B42ECD28E
S21440021052F8040F43F8040BF8E743F8041BE7E7EB
S2144002206C2340000000402004004020580B402033
S2144002300000400000ED00E08D2140001D0740001A
S214400240040040200B4B1A6F22F080521A675A6FF8
S21440025022F080525A674FF080525A601A6F22F04E
S21440026080421A675A6F22F080425A674FF08042A7
S2144002705A60704700140E40044BD3F8082192048D
S21440028003D44FF40052C3F80021704700060E40D6
S21440029010B5064B9847064B9847064B024606490C
S2144002A006489847064BBDE810401847790240007C
S2144002B00905400091034000001C0E40B80A40204B
S2144002C04502400010B5054B9847054A536843F42D
S2144002D00043BDE810405360024B1847CD03400032
S2144002E050180E4091024000EFF31083036072B640
S2144002F0BFF35F8F7047BFF35F8F036883F3108849
S21440030070470368184700002DE9F8430F4C0F4626
S214400310164600F10805A1462846A0470028FBD00F
S2144003200024DFF83080395D2846C0472846C84755
S2144003300028FBD00134B442F5D3054E2846B047DA
S2144003400028FBD02046BDE8F88300BFEB04400001
S214400350F5044000DD0440002DE9F8430F461646FC
S214400360002400F10805DFF82090DFF820802846BA
S214400370C8470028FBD02846C04738550134B44209
S214400380F5D32046BDE8F883FF044000E304400070
S21440039010B5054B04460830984718B9034B6360C0
S2144003A0034B236010BD00BF990440005903400032
S2144003B00903400008B50830014B9847002008BDA7
S2144003C0D5044000086000207047000007B50E4B7B
S2144003D001A898470D4AD2F8883043F47003C2F813
S2144003E08830BFF34F8FBFF36F8F094B01A89847F4
S2144003F0084A136823F4706343F4C0631360064BE3
S214400400984703B05DF804FBE902400000ED00E0C9
S214400410F7024000000C0E401D0440001A4B1B4AD9
S214400420196A21F002010A431A629A6ED107FCD576
S2144004301A6A42F09B7242F480321A629A6A22F03A
S214400440FF6222F4E0229A62114A9A629A6E9207FA
S214400450FCD51A6B22F070021A639A6E1007FCD510
S2144004601A6B22F4407242F480721A639A6E110735
S214400470FCD51A6B22F0030242F002021A639A6E0F
S2144004801207FCD5704700BF00060E40013E3700FD
S214400490013F18200020704708B5016008460A4B07
S2144004A098470A4B0A4AC1F8E430AC230B604FF435
S2144004B080730B600C2303FB0020436800204B60D6
S2144004C04FF474730B6208BD9504400000524155CA
S2144004D0FC214000036850221A6070470368D961C7
S2144004E0704703689869C0B2704703685869C0F39C
S2144004F04000704703685869C0F34020704703685F
S214400500586900F00100704700207047024B0146D2
S21440051080221868014B1847480B402003034000D0
S214400520134CDFF87480A14683B54FF0FF31206846
S214400530C047012817D10F4E0F48104FB8473568AF
S21440054055B90F48B84702230196402200932B46E0
S2144005500C490D480D4DA8470023D9F800000C4D16
S2144005601A461946A8474FF47A700A4B9847DCE774
S2144005704C0B4020C40A40200D2240000D05400090
S2144005802922400045224000F9054000551540000C
S214400590350E40007D1940008912400080B50E4C53
S2144005A00E4E0F4F4FF0FF312068B04701280DD157
S2144005B00C4D0D48A8470D48A8474FF40003206847
S2144005C07B6300230A4D1A461946A8474FF47A70B3
S2144005D0084B9847E6E700BF4C0B40208912400086
S2144005E0000E0E400D054000582240007422400088
S2144005F0350E40007D19400080B50E4C0E4E0F4F14
S2144006004FF0FF312068B04701280DD10C4D0D4802
S214400610A8470D48A8474FF4000320683B630023D3
S2144006200A4D1A461946A8474FF47A70084B984721
S214400630E6E700BF4C0B402089124000000E0E40FB
S2144006400D054000812240009D224000350E4000AE
S2144006507D19400010B5084C0849094B204698477C
S214400660084B20469847084B4FF400021A61C3F8DF
S21440067090205A6610BD00BFB80A4020480B402064
S214400680C5034000B5034000000E0E4037B5144D7C
S2144006900120144B9847144C28601448A0472B68F8
S2144006A0E3B11348A047134B40221349019301235B
S2144006B0124D009300231248A8471248A047124BF9
S2144006C0402212490193002311480093A84711483D
S2144006D0A047114B03B0BDE83040184703B030BDCB
S2144006E04C0B4020F10F40000D054000AB2240006F
S2144006F0BE224000540B4020DA22400055154000F0
S2144007009D054000ED224000500B4020092340004C
S214400710210540001C234000F516400008B5044B58
S2144007209847044B98470020034B9847002008BD45
S214400730D5014000550640008D06400000F10803F4
S2144007404FF0FF324360C360036100238260036062
S214400750704700230361704743689A684B608A601D
S2144007609A68516099600368086101330360704776
S2144007700A68531C30B50AD103695A684A609160CA
S2144007808B605960036808610133036030BD00F137
S21440079008035C682568AA42EFD32346F9E7416818
S2144007A0826803698A60826851605968884208BFD7
S2144007B05A60002202611A68013A1A601868704747
S2144007C0002382B001930F4B1B6801330AD04FF0D1
S2144007D0800372B683F31188BFF36F8FBFF34F8FDA
S2144007E062B6FEE74FF0800372B683F31188BFF31C
S2144007F06F8FBFF34F8F62B6019B002BFCD002B0C9
S214400800704700BF0000402008480068006880F33A
S21440081008884FF0000080F3148862B661B6BFF3D4
S2144008204F8FBFF36F8F00DF00BF000008ED00E082
S214400830DFF80C00016841F4700101607047000069
S21440084088ED00E04FF0807321F0010140F8202C45
S21440085044380364034BC16383636FF0020303624F
S214400860704700BFC10740000000000000000000C5
S214400870074B19680868B0E8F04F80F30988BFF363
S2144008806F8F4FF0000080F311887047AFF3008001
S214400890000A40204FF0800372B683F31188BFF3FE
S2144008A06F8FBFF34F8F62B60B4A13680133012B2D
S2144008B013600FD1094B1B6813F0FF0F0AD04FF09F
S2144008C0800372B683F31188BFF36F8FBFF34F8FE9
S2144008D062B6FEE7704700BF0000402004ED00E02F
S2144008E0094A136853B94FF0800372B683F31188F0
S2144008F0BFF36F8FBFF34F8F62B6FEE7013B1360C7
S2144009000BB983F3118870470000402000000000B8
S214400910EFF30980BFF36F8F154B1A681EF0100F68
S21440092008BF20ED108A20E9F04F10602DE909003D
S2144009304FF0800072B680F31188BFF34F8FBFF33D
S2144009406F8F62B601F048F84FF0000080F31188D0
S21440095009BC19680868B0E8F04F1EF0100F08BFD1
S214400960B0EC108A80F30988BFF36F8F704700BFE2
S214400970000A402008B54FF0800372B683F3118812
S214400980BFF36F8FBFF34F8F62B6054B984718B1D2
S2144009904FF08052034B1A60002383F3118808BD42
S2144009A09D17400004ED00E00022054B05491A6003
S2144009B00A60054A0549116007221A60704700BF61
S2144009C010E000E018E000E014E000E0DF930400F0
S2144009D02B4B13B51A780021D2B20192FF221A701F
S2144009E01B78DBB28DF803309DF80320254B02F0D0
S2144009F080021A7007225A609DF80300541E0006B3
S214400A000FD401B15A605A68042A13D04FF08003BD
S214400A1072B683F31188BFF36F8FBFF34F8F62B602
S214400A20FEE79DF8032001215200D2B28DF8032044
S214400A302246E1E71202002402F4E0625A60019B7B
S214400A400F4ADBB21370104B1A6842F460021A6009
S214400A501A6842F060421A600C4B98470C4B1C6078
S214400A600C4B98470C4A136843F0404313600B4BBB
S214400A7098470B4B98470B4B9847204602B010BD03
S214400A8000E400E02000402020ED00E0A9094000FE
S214400A90000040203108400034EF00E009084000E4
S214400AA0D9194000C1074000EFF305830F2B124AC7
S214400AB00FD912495B5C117899420AD94FF08003EE
S214400AC072B683F31188BFF36F8FBFF34F8F62B652
S214400AD0FEE70B4B52681B6803F4E06393420AD967
S214400AE04FF0800372B683F31188BFF36F8FBFF366
S214400AF04F8F62B6FEE7704720004020F0E300E0EC
S214400B000CED00E038B543070446104B1CBF20F000
S214400B100704083498470E4B1A6822B903F10C02B2
S214400B2022F007021A60D3F8642940F6571114449D
S214400B308C4209D8A24207D21D68C3F864491544BE
S214400B40044B9847284638BD0025F9E77D174000F6
S214400B50280040208D18400050B14FF0800372B6F8
S214400B6083F31188BFF36F8FBFF34F8F62B6FEE7F4
S214400B707047000010B50446044B9847044BA46BDE
S214400B809847B4FA84F0400910BD00BF950840006D
S214400B90E108400070B51546026C0446866B42B9C3
S214400BA005689DB94068144B984765600136A66352
S214400BB070BD124B65B980689847A368226C134491
S214400BC062689342A36001D32368A3600020EDE7E8
S214400BD0C0689847236CE2685B4221681A448A42A0
S214400BE0E2603EBF62689B18E360022DEED10EB114
S214400BF0013EEBE73046D9E7A91C4000D52140002E
S214400C00034608461A6C10B462B1D9685C68114451
S214400C10A142D96024BF1968D960D9685DF8044BF1
S214400C20024B18475DF8044B704700BFD521400083
S214400C304FF0800372B683F31188BFF36F8FBFF314
S214400C404F8F62B6FEE7000073B5846C0A4601908B
S214400C500CB9184B9847A16BE36B99420AD34FF0F7
S214400C60800372B683F31188BFF36F8FBFF34F8F45
S214400C7062B6FEE7A16B8B421AD994F8455001A99B
S214400C800D4B20466DB2984706466B1C0BD1636AE7
S214400C9033B104F12400094B9847002818BF0126B9
S214400CA0304602B070BD01356DB284F84550F7E766
S214400CB00026F5E7310C4000950B4000CD1A400069
S214400CC02DE9F04704461F4FB8471F4E94F845504D
S214400CD0DFF87C806DB2DFF87C90002D17DCFF23B8
S214400CE01A4EDFF8648084F84530B047DFF86090ED
S214400CF0B84794F8445004F110076DB2002D17DC45
S214400D00FF2384F844303346BDE8F0471847A36CC9
S214400D103BB100212046C84700B1C047013D6DB2F7
S214400D20DBE7636A002BDAD004F12400B047F3E730
S214400D302369002BE4D03846C04700B1C847013D80
S214400D406DB2DBE795084000CD1A4000E108400050
S214400D50F51B4000490C400038B50D46044608B91E
S214400D60184B9847184B9847206CE36B22684343D0
S214400D70A260D1181B1A134461600021E360FF2370
S214400D80A16384F8443084F8453095B9236963B14B
S214400D9004F110000D4B984738B14FF080520C4B81
S214400DA01A60BFF34F8FBFF36F8F0A4B98470120EF
S214400DB038BD04F11000084DA84704F12400A847A8
S214400DC0F3E700BF310C400095084000CD1A4000C4
S214400DD004ED00E0E10840003D074000F8B50D4650
S214400DE01746064650B94FF0800372B683F3118813
S214400DF0BFF36F8FBFF34F8F62B6FEE748430B4B90
S214400E0054309847044658B165B92060084B0121D4
S214400E10E663204625649847002384F85070A36410
S214400E202046F8BD00F154030360EFE7050B400091
S214400E30590D40002DE9F04F87B08A461F460446BC
S214400E40039250B94FF0800372B683F31188BFF314
S214400E506F8FBFF34F8F62B6FEE7002940F0938056
S214400E60036C002B00F08F804FF0800372B683F344
S214400E701188BFF36F8FBFF34F8F62B6FEE7039BB9
S214400E80002B00F08B804FF0800372B683F31188FE
S214400E90BFF36F8FBFF34F8F62B6FEE7636A002BD8
S214400EA05BD004F12400454B984756E0039D15B9A6
S214400EB0B04700205CE013B904A8414B9847B047C0
S214400EC0404B9847C04794F84430FF2B02D100234C
S214400ED084F8443094F84530FF2B02D1002384F840
S214400EE04530B04703A904A8374B9847DFF8F8B019
S214400EF0364D002843D1C047A16BE26B0291019268
S214400F00B047019A0299914235D1039904F11000F5
S214400F102F4A90472046D847A84738B94FF08053C5
S214400F202C4A1360BFF34F8FBFF36F8F012301939B
S214400F30C847A16BE26B284E914202D3022F019B19
S214400F40B4D1264B3A46514620469847A36C002BD0
S214400F50A4D039462046224B984738B14FF08052AD
S214400F601C4B1A60BFF34F8FBFF36F8FB047012003
S214400F7007B0BDE8F08F2046D847A847D6E72046BA
S214400F80D847A84795E7022F02D1E36B012B09D13A
S214400F90144B984700283FF472AF0023DFF84C907C
S214400FA0C846C4E74FF0800372B683F31188BFF398
S214400FB06F8FBFF34F8F62B6FEE700BFCD1A40007B
S214400FC0591B40007D1740006D1B40008D184000A7
S214400FD0451A400004ED00E0E1084000950B400053
S214400FE0490C4000051C4000C10C400095084000DC
S214400FF038B5024600210120064B9847044638B1D2
S2144010000023054D43601A4603601946C360A8474F
S214401010204638BDDD0D4000350E40002DE9F84332
S214401020884691461F46044650B94FF0800372B634
S21440103083F31188BFF36F8FBFF34F8F62B6FEE71F
S21440104029BB036C1BB34FF0800372B683F3118841
S214401050BFF36F8FBFF34F8F62B6FEE7B9F1000F55
S21440106041D00120C9F8000086F31188BDE8F88316
S214401070636A002B37D004F12400214B984730E0B8
S21440108001356DB284F845502DE00020ECE7022F84
S21440109002D1E36B012B28D11A4B9847EFF3118608
S2144010A04FF0800372B683F31188BFF36F8FBFF3A0
S2144010B04F8F62B6A26BE36B9A4201D3022FE4D104
S2144010C094F845503A46104B41466DB220469847F4
S2144010D06B1CD5D1A36C002BCAD0394620460B4B8F
S2144010E098470028BAD10120BEE74FF0800372B679
S2144010F083F31188BFF36F8FBFF34F8F62B6FEE75F
S214401100CD1A4000A90A4000950B4000490C40000B
S2144011102DE9F04F85B089460446019250B94FF00C
S214401120800372B683F31188BFF36F8FBFF34F8F80
S21440113062B6FEE7002940F08280036C002B7ED02A
S2144011404FF0800372B683F31188BFF36F8FBFF3FF
S2144011504F8F62B6FEE7019E002E75D04FF080039B
S21440116072B683F31188BFF36F8FBFF34F8F62B6AB
S214401170FEE7019D15B9B847002051E016B902A810
S214401180344B9847B847344B9847D84794F8443040
S214401190FF2B02D1002384F8443094F84530FF2BCF
S2144011A002D1002384F84530B84701A902A82B4B4A
S2144011B098472B4F2B4E2C4D002838D12046B84709
S2144011C0002830D0019904F12400284B9847204647
S2144011D0B047A84738B94FF08053CAF80030BFF33D
S2144011E04F8FBFF36F8F0126C047A56B204F002D52
S2144011F0BFD0013D1F4B494620469847A56323690B
S21440120063B104F110001C4B984738B14FF0805240
S2144012101A4B1A60BFF34F8FBFF36F8FB84701204A
S21440122005B0BDE8F08F2046B047A847DBE720462C
S214401230B047A8472046B8470028D4D09CE7104B74
S2144012409847002887D00026DFF83880DFF82CA0A3
S214401250C346C9E7591B40007D1740006D1B400040
S214401260750B4000C10C40008D184000451A4000E8
S214401270E1084000010C4000CD1A400004ED00E0BB
S214401280051C4000950840002DE9F04F85B0044607
S214401290019150B94FF0800372B683F31188BFF3C3
S2144012A06F8FBFF34F8F62B6FEE7056C55B14FF0B8
S2144012B0800372B683F31188BFF36F8FBFF34F8FEF
S2144012C062B6FEE7524B984718B9019D002D40F094
S2144012D09380DFF86C912E46DFF840A14F46C84712
S2144012E0A36BE3B1013BA363236813B9494B98470B
S2144012F06060236963B104F11000474B984738B1EA
S2144013004FF08052454B1A60BFF34F8FBFF36F8F3D
S2144013100125434B9847284605B0BDE8F08F019B12
S21440132073B955B14FF0800372B683F31188BFF39B
S2144013306F8FBFF34F8F62B6FEE7394B9847EAE7A9
S21440134016B902A8374B9847354EB047364B9847A4
S214401350B84794F84430FF2B02D1002384F8443039
S21440136094F84530FF2B02D1002384F84530B0472F
S2144013702E4B01A902A89847DFF8C8B02C4BDFF8DF
S214401380C88008BB20469847D0B123682BB9B847D9
S2144013906068284B98470546B047019904F12400F9
S2144013A0254B98472046D847C04738B94FF080531A
S2144013B0CAF80030BFF34F8FBFF36F8F01268EE71A
S2144013C02046D847C047F9E720460093D847C0474D
S2144013D02046009B98470028F0D0002D9BD0B84769
S2144013E0616A19B1236B1968C1F10501606800256F
S2144013F0124B9847B0478EE74FF0800372B683F3A0
S2144014001188BFF36F8FBFF34F8F62B6FEE700BF02
S214401410051C4000D91D4000CD1A400004ED00E0F8
S214401420E1084000591B40007D1740006D1B4000FE
S214401430750B4000251C4000451A4000351D4000F5
S21440144095084000C10C40008D18400070B5044619
S214401450104B0D461646984794F84430FF2B02D161
S214401460002384F8443094F84530FF2B02D1002303
S21440147084F84530084B9847A36B2BB9324629462B
S21440148004F12400054B98472046054BBDE87040C4
S214401490184700BF95084000E1084000851A400004
S2144014A0C10C400006494FF08052064B08680128A0
S2144014B0FCD91A60BFF34F8FBFF36F8FF6E700BFBC
S2144014C09009402004ED00E0064B5A6E12681AB9A7
S2144014D04FF0FF329A6670475A6ED268D2685268AA
S2144014E0F8E700BF900940202DE9F041154E05462B
S2144014F0154B8846F76E3446306F043098476B1C61
S2144015000AD1B8F1000F07D0316F06F174000F4BC7
S2144015100431BDE8F04118473D44236FAF425D605B
S2144015200B4B04D9D4F88800216F0431F1E7606E84
S214401530216F04319847A36E9D4200D2A566BDE850
S214401540F08100BF900940209F07400059074000A7
S214401550710740002DE9F84F940080465A4D0F46DB
S21440156020469946A8470646002800F09E8054200C
S214401570A8470546002800F0958022460663534B50
S214401580A5213046043C98472B6B05F134021C4499
S2144015907B1E073724F0070A597802F8011B13F818
S2144015A0011F09B1BB42F7D10A9C4FF0000B2F1D1B
S2144015B0474E042C85F83BB03846C5F848B028BF9F
S2144015C00424EC626C64C4F10504B04705F11800CD
S2144015D0B047C5F84CB03F4B4A462D614146AC61DA
S2144015E050466D6285F850B098470B9B286003B113
S2144015F01D60394C394B9847D4F8A0300133C4F8B5
S214401600A030236F002B54D12567D4F8A030012B8F
S21440161020D1334E2046B04704F11400B04704F1C1
S2144016202800B04704F1A40904F13C0004F1B808CE
S214401630B04704F15000B0474846B0474046B04730
S21440164004F18C00B04704F17400B047C4F86490CD
S214401650C4F88880D4F8D030D4F8D4200133C4F805
S214401660D030EB63EB6A934201D9C4F8D4301420EF
S214401670394600FB03401B4B98471B4B9847D4F812
S214401680CC3063B1236FDA6AEB6A9A4207D24FF0E6
S2144016908052164B1A60BFF34F8FBFF36F8F0120F7
S2144016A0BDE8F88F3046124B98474FF0FF30BDE804
S2144016B0F88FD4F8CC30002BCCD1236FDA6AEB6AA3
S2144016C09A42C7D82567C5E7050B4000EB21400086
S2144016D053074000450840009009402095084000C8
S2144016E03D07400059074000E108400004ED00E097
S2144016F0590B400073B51B4C002540221A4904F193
S214401700DC030095194801932B46194EB047012833
S21440171018D1184B9847012814D14FF0800372B661
S21440172083F31188BFF36F8FBFF34F8F62B64FF0CE
S214401730FF33A366104BC4F8CC00E56602B0BDE8A4
S2144017407040184701300AD14FF0800372B683F3D9
S2144017501188BFF36F8FBFF34F8F62B6FEE702B0BC
S21440176070BD00BF9009402030234000A5144000C3
S21440177055154000791E4000D1094000034AD2F872
S214401780D8300133C2F8D830704700BF90094020A7
S214401790014BD86E704700BF900940202DE9F84FA6
S2144017A0364BD3F8D8201C46002A3ED1DE6E013692
S2144017B0DE66D6B95B6E1B6853B14FF0800372B6D7
S2144017C083F31188BFF36F8FBFF34F8F62B6FEE788
S2144017D0636ED4F888206266C4F88830D4F8E03067
S2144017E00133C4F8E030264B9847A36E00259E424E
S2144017F00BD3DFF890804FF0140ADFF88CB0636E9E
S2144018001B68CBB94FF0FF33A366236FDA6A142305
S2144018105343E358022B28BF0125D4F8E830002B69
S21440182018BF01252846BDE8F88FD3F8E4300025D8
S2144018300133C4F8E430F0E7636EDB68DF687B684A
S2144018409E42E1D307F104094846C047BB6A13B13C
S21440185007F11800C047F86AD4F8D430984201D946
S214401860C4F8D40049460AFB0040D847236FFA6ABA
S214401870DB6A9A4228BF0125C1E700BF9009402095
S214401880C91440009F074000590740002DE9F8431F
S214401890324CD4F8D83053B94FF0800372B683F345
S2144018A01188BFF36F8FBFF34F8F62B6FEE72C4BA6
S2144018B09847D4F8D830013BC4F8D830D4F8D8503C
S2144018C02DB10024274B98472046BDE8F883D4F82E
S2144018D0A030002BF5D0244F4FF01408DFF8989036
S2144018E0D4F88C30EBB90DB1204B9847D4F8E4507F
S2144018F04DB11F4E0127B04708B1C4F8E870013D0E
S214401900F9D1C4F8E450D4F8E830002BD9D04FF0E1
S2144019108052184B1A60BFF34F8FBFF36F8F01246E
S214401920D0E7D4F89830DD682E1D05F11800B8478A
S2144019303046B847E86AD4F8D430984201D9C4F85B
S214401940D400314608FB0040C847236FEA6ADB6A8A
S2144019509A42C5D30123C4F8E830C1E79009402035
S21440196095084000E10840009F074000C914400029
S2144019709D17400004ED00E05907400008B540B907
S2144019804FF080520F4B1A60BFF34F8FBFF36F8FED
S21440199008BD0D4BD3F8D81051B14FF0800372B646
S2144019A083F31188BFF36F8FBFF34F8F62B6FEE7A6
S2144019B0064B9847064B9847064B98470028DFD07B
S2144019C008BD00BF04ED00E0900940207D174000B0
S2144019D0E91440008D184000194AD2F8D810134632
S2144019E030B519B10123C2F8E83030BDC2F8E8106E
S2144019F01425D2F8D41005FB01F29C5898188CB1E7
S214401A004468083264681A449442446004BF62687A
S214401A104260142202FB01325268D2681A67C3F849
S214401A20D41030BD51B94FF0800372B683F311889D
S214401A30BFF36F8FBFF34F8F62B6FEE70139DAE729
S214401A409009402010B50C4650B94FF0800372B64E
S214401A5083F31188BFF36F8FBFF34F8F62B6FEE7F5
S214401A60054B196F054B1831984720460121044B0A
S214401A70BDE81040184700BF90094020710740005D
S214401A80E914400070B50D46144650B94FF0800337
S214401A9072B683F31188BFF36F8FBFF34F8F62B672
S214401AA0FEE7074B196F074B18319847002C214625
S214401AB0054B0CBF28464FF0FF30BDE87040184736
S214401AC09009402059074000E9144000C3682DE9BA
S214401AD0F041D3F80C80B8F1000F0AD14FF08003E4
S214401AE072B683F31188BFF36F8FBFF34F8F62B622
S214401AF0FEE708F11806154C154F3046154DB84709
S214401B00D4F8D830DBB908F104063046B847D8F8E0
S214401B102C30D4F8D420934201D9C4F8D4301420C1
S214401B20314600FB0340A847236FD8F82C20DB6AD9
S214401B309A4208D90120C4F8E800BDE8F081314651
S214401B4004F18C00EFE70020BDE8F08190094020CA
S214401B509F07400059074000034BD3F8E020DB6E58
S214401B6002604360704700BF9009402070B50C4645
S214401B70054650B94FF0800372B683F31188BFF321
S214401B806F8FBFF34F8F62B6FEE751B94FF08003B9
S214401B9072B683F31188BFF36F8FBFF34F8F62B671
S214401BA0FEE7104B984723680F485E1C6968C26E74
S214401BB00ED0D0F8E0002E68864201D08A420ED27F
S214401BC0521A9A4209D29B1A28462360074B9847D6
S214401BD00024074B9847204670BD0023236001240D
S214401BE0F7E700BF9508400090094020591B400089
S214401BF0E10840000122024BC3F8E820704700BFCE
S214401C0090094020064BD3F8CC2032B1D3F8D830D8
S214401C10002B0CBF0220002070470120704700BFF9
S214401C209009402070B50446002831D01B4AC36A4C
S214401C30116F1546C96A8B4222D28269002A04DB9C
S214401C402A6FD26AC2F105028261142202FB035354
S214401C5062699A421DD1261D114B304698472B6F1C
S214401C60D5F8D420DB6A9342E36201D9C5F8D43074
S214401C701420314600FB03500A4B9847012070BDA4
S214401C80136F406CDC6AA0422CBF0020012070BD60
S214401C9070BD2B6FDB6AE362F0E700BF900940201F
S214401CA09F0740005907400070B5044608B9002019
S214401CB070BD1D4D2B6F98420AD04FF0800372B610
S214401CC083F31188BFF36F8FBFF34F8F62B6FEE783
S214401CD0836C53B94FF0800372B683F31188BFF319
S214401CE06F8FBFF34F8F62B6FEE7C16A013B426C0F
S214401CF083649142DBD0002BD9D1061D0B4B304676
S214401D009847636CC3F10502E362A261D5F8D4201C
S214401D10934201D9C5F8D4301420314600FB035015
S214401D20034B9847012070BD900940209F07400014
S214401D305907400070B50446002846D0826C52B918
S214401D404FF0800372B683F31188BFF36F8FBFF3F3
S214401D504F8F62B6FEE7436C994238BF1946C36A56
S214401D608B4232D0012A30D1184D2A6F90420AD188
S214401D704FF0800372B683F31188BFF36F8FBFF3C3
S214401D804F8F62B6FEE78269C162002A4FF01402A6
S214401D90A8BFC1F1050102FB03534269A8BF816198
S214401DA09A4212D1061D0A4B30469847E36AD5F848
S214401DB0D420934201D9C5F8D4301420314600FBD4
S214401DC00350044BBDE87040184770BD9009402052
S214401DD09F07400059074000044B1A6F1AB1196F0D
S214401DE08A6C01328A64186F704700BF90094020A1
S214401DF02DE9F0410C4C0D4B9847256885B9271DB9
S214401E0004F11806DFF830803846C0473046C047F1
S214401E102A460C210220064BE7622663984720603C
S214401E20044BBDE8F04118477C0A40209508400026
S214401E30DD0D4000E10840003D074000914208B5F6
S214401E40416000610AD8D21A83699A420ED2084B82
S214401E50011D186B074B9847002008BD9A4201D2D7
S214401E60994203D2024B011DD86AF3E7012008BD10
S214401E707C0A4020710740000F4B13B598470F4B24
S214401E801A6852B94FF0800372B683F31188BFF3D5
S214401E906F8FBFF34F8F62B6FEE734334022084958
S214401EA001930223074800930023074CA0470028CD
S214401EB0E8D002B010BD00BFF11D40007C0A4020B3
S214401EC044234000B91F40005515400030B5154624
S214401ED085B01A46034650B94FF0800372B683F376
S214401EE01188BFF36F8FBFF34F8F62B6FEE70D4C7E
S214401EF0206878B105290191029503930CDC0A4BC2
S214401F00984700230228094D01A920680CBF089A6B
S214401F101A46A84705B030BD002301A9044CA04787
S214401F20F8E700BF7C0A4020051C4000350E400004
S214401F301D1040002DE9F3411B4D1C4FEB6A1A68FB
S214401F402AB92A6B2B63EA6202B0BDE8F081DB68EF
S214401F50DC681E6804F104084046B847636A2046B9
S214401F609847E369012BE9D1A36933449E4206D2E0
S214401F70636041462461E86A0D4B9847DEE70023DC
S214401F80204632460B4C00931946A0470028D5D130
S214401F904FF0800372B683F31188BFF36F8FBFF3A1
S214401FA04F8F62B6FEE700BF7C0A40209F07400086
S214401FB071074000CD1E40002DE9F04F87B0674DB9
S214401FC0EA6AA846D2F80090B9F1000F3DD0D26830
S214401FD01668634A634F9047B847AA6B824690425A
S214401FE035D20124604A9047C5F838A0DFF898B14A
S214401FF0002C75D1B9F1000F5AD056456ED8D84747
S214402000EB6ADB68DD68594B281D9847EB69012B66
S2144020101FD1A9695246334628463144DFF864A1A9
S214402020D047B0B100942346214632462846504C0D
S214402030A04770B94FF0800372B683F31188BFF3A0
S2144020406F8FBFF34F8F62B6FEE74E46C1E7002460
S214402050CAE76B6A28469847464D434E002203A976
S214402060D8F80000A8470028A9D0039B002BF5DB32
S214402070059C636913B1201D3C4B9847B847D8F878
S21440208038308346984200D2B047039AC8F838B0F2
S214402090092AE3D80123934013F4047A48D113F075
S2144020A0C70F1FD19B06D9D52046334B9847D4E758
S2144020B02B6B1A68B2FA82F25209A6EB0A0128681C
S2144020C02E4B9847D8470028C6D14FF080522C4B0D
S2144020D01A60BFF34F8FBFF36F8FBDE72246ECE722
S2144020E0D847B9E7A1695A46049B2046254E19446D
S2144020F0B0470028B1D0636A20469847E369012B71
S214402100ABD1A269204604995346CDF800A00A44B4
S214402110174C5146A04700289FD14FF0800372B617
S21440212083F31188BFF36F8FBFF34F8F62B6FEE71E
S2144021300499A16151B94FF0800372B683F31188B8
S214402140BFF36F8FBFF34F8F62B6FEE75B465A46CC
S214402150594420460B4CA0477FE700BF7C0A4020EE
S2144021607D17400091174000351F40009F074000F4
S214402170CD1E400011114000590B40004D14400048
S21440218004ED00E03D1E40008D18400070B50D4E39
S2144021900D4CA41BA4100025A54209D10B4E0C4C97
S2144021A000F0D4F8A41BA4100025A54205D170BDAC
S2144021B056F8253098470135EEE756F825309847CB
S2144021C00135F2E75823400058234000582340008A
S2144021D05C23400010B5431E0A44914200D110BD16
S2144021E011F8014B03F8014FF7E7024403469342C8
S2144021F000D1704703F8011BF9E700000300000018
S21440220000080000D003000007082C2D2E457865F6
S2144022106375746520436F6D7075746174696F6E15
S214402220205461736B20320A004372656174657393
S21440223020436F6D7075746174696F6E205461735E
S2144022406B20330A00436F6D7075746174696F6EEE
S214402250205461736B203300457865637574652040
S214402260436F6D7075746174696F6E205461736BE3
S21440227020310A005475726E204C4544204F4E0A59
S214402280004578656375746520436F6D707574613D
S21440229074696F6E205461736B20330A00547572F4
S2144022A06E204C4544204F46460A00456E74657283
S2144022B020436F6E74726F6C205461736B00437270
S2144022C0656174657320436F6D7075746174696F72
S2144022D06E205461736B20310A00436F6D707574C5
S2144022E06174696F6E205461736B20310043726570
S2144022F06174657320436F6D7075746174696F6E39
S214402300205461736B20320A00436F6D70757461A0
S21440231074696F6E205461736B203200537461721F
S214402320745461736B205363686564756C657200A2
S21440233049444C4500092563092575092575092535
S214402340750D0A00546D722053766300F8B500BFD1
S214402350F8BC08BC9E4670478D014000F8B500BFEB
S210402360F8BC08BC9E467047690140006F
S20840236CAAAAAAAA80
S804400000BB
