S00B00004344482E737265634A
S214400000B8174020E5014000690240006902400000
S214400010690240006902400069024000000000009A
S214400020000000000000000000000000D133400047
S2144000306902400000000000F1354000593640009B
S21440004069024000690240006902400069024000BF
S21440005069024000690240006902400069024000AF
S214400060690240000000000069024000690240004A
S214400070690240006902400069024000690240008F
S214400080690240006902400069024000690240007F
S2144000906902400069024000690240004523400072
S2144000A0690240006902400069024000690240005F
S2144000B0690240006902400069024000690240004F
S2144000C0690240006902400069024000690240003F
S2144000D0690240006902400069024000690240002F
S2144000E0690240006902400069024000690240001F
S2144000F0690240006902400069024000690240000F
S21440010069024000690240006902400069024000FE
S2144001106902400069024000000000000000000044
S21440012069024000690240006902400069024000DE
S21440013069024000690240006902400069024000CE
S21440014069024000690240006902400069024000BE
S21440015069024000690240006902400069024000AE
S214400160690240006902400010B5054C237833B957
S214400170044B13B10448AFF300800123237010BD35
S2144001804C00402000000000485B40000C4B43B150
S2144001900C480D4910B5AFF300800C48036823B9EE
S2144001A010BD0A48036833B97047094B002BF7D097
S2144001B0BDE810401847064B002BF5D0184700BF47
S2144001C000000000485B400050004020485B400074
S2144001D00000000080B500AF014B984700BF80BDCF
S2144001E0850B400080B582B000AF164B7B60164B47
S2144001F03B607A683B689A420CD007E03B681A1D21
S2144002003A607A68111D796012681A603B680F4A36
S2144002109342F3D30E4B3B6004E03B681A1D3A60B2
S21440022000221A603B680B4A9342F6D30A4B7B6027
S2144002300A4A7B6823F07F039360094B9847094B33
S2144002409847FEE7485B40004C0040204C0040206A
S214400250B40B4020B40B4020485B400000ED00E06B
S21440026001584000150D400080B400AFFEE780B452
S21440027083B000AF786039607B68D3F814213B6860
S2144002801A437B68C3F8142100BF0C37BD465DF89F
S214400290047B704780B483B000AF786039607B6879
S2144002A03A681A6000BF0C37BD465DF8047B70475D
S2144002B080B483B000AF786039607B683A685A6033
S2144002C000BF0C37BD465DF8047B704780B483B0F2
S2144002D000AF786039607B683A681A6100BF0C37B7
S2144002E0BD465DF8047B704780B483B000AF78604D
S2144002F039607B683A685A6100BF0C37BD465DF886
S214400300047B704780B483B000AF786039607B6808
S2144003103A681A6300BF0C37BD465DF8047B7047E9
S21440032080B483B000AF786039607B683A685A63BF
S21440033000BF0C37BD465DF8047B704780B483B081
S21440034000AF786039607B683A685A6600BF0C3701
S214400350BD465DF8047B704780B483B000AF7860DC
S21440036039607B683A681A6600BF0C37BD465DF850
S214400370047B704780B483B000AF786039607B6898
S2144003803A68C3F8942000BF0C37BD465DF8047B3E
S214400390704780B483B000AF786039607B683A6855
S2144003A0C3F8902000BF0C37BD465DF8047B70470D
S2144003B080B485B000AFF8600B467A60FB72FA7A7C
S2144003C0F97AFB681C3153F821107B681943FB68A7
S2144003D01C3243F8221000BF1437BD465DF8047B3C
S2144003E0704780B485B000AFF8600B467A60FB7209
S2144003F0FA7AF97AFB681C3153F821107B68DB43A4
S2144004001940FB681C3243F8221000BF1437BD4623
S2144004105DF8047B704780B483B000AF7860396085
S2144004207B683A681A6100BF0C37BD465DF8047BAE
S214400430704780B485B000AF786039607B689B6950
S214400440FB60FA683B681340FB60FB68184614374D
S214400450BD465DF8047B704780B483B000AF7860DB
S21440046039607B683A68C3F8002100BF0C37BD4648
S2144004705DF8047B704780B485B000AF7860396023
S2144004807B68D3F80831FB60FA683B681340FB6032
S214400490FB6818461437BD465DF8047B704780B449
S2144004A083B000AF786039607B683A68C3F80C2147
S2144004B000BF0C37BD465DF8047B704780B483B000
S2144004C000AF78607B68D3F80C3118460C37BD46D1
S2144004D05DF8047B704780B483B000AF78607B687B
S2144004E05B6843F400427B685A6000BF0C37BD46E9
S2144004F05DF8047B7047000080B483B000AF0346CD
S214400500FB71FB795B021A46034B134418460C37C3
S214400510BD465DF8047B7047000E0E4080B584B043
S21440052000AF03463960FB711346BB71FB79184632
S2144005300E4B9847F860BB79002B0EDB012B02DD93
S214400540022B05D009E03968F868094B984709E05E
S2144005503968F868074B984704E04122064900206E
S214400560064B984700BF1037BD4680BDF904400093
S214400570E9024000CD024000705840008D15400012
S21440058080B584B000AF03463960FB711346BB713B
S214400590FB791846094B9847F860BB79002B04D086
S2144005A03968F868064B984703E03968F868054BA1
S2144005B0984700BF1037BD4680BD00BFF9044000D5
S2144005C0050340002103400080B584B000AF0346D9
S2144005D0FB710B46BB7113467B71FB791846234B68
S2144005E09847F8607B79012B14D0022B23D0002B40
S2144005F032D1BB79012202FA03F31946F8681C4B44
S2144006009847BB79012202FA03F31946F868194B5A
S214400610984727E0BB79012202FA03F31946F868A7
S214400620144B9847BB79012202FA03F31946F8683F
S214400630114B984716E0BB79012202FA03F319469C
S214400640F8680B4B9847BB79012202FA03F3194628
S214400650F8680A4B984705E0832209490020094B71
S214400660984700BF00BF1037BD4680BDF904400024
S21440067059034000930340003D034000750340008B
S214400680705840008D15400080B584B000AF78604B
S21440069039607B685B09FB737B68DBB203F01F0342
S2144006A0BB73FB7B1846334B9847B860FB7B012BEC
S2144006B016D1BB7B042B0BD0BB7B052B08D0BB7B5A
S2144006C0062B05D0BB7B072B02D0BB7B0C2B07D160
S2144006D0BB7B012202FA03F319462748274B98476B
S2144006E03B68B3F1FF3F08D1BB7B012202FA03F31C
S2144006F01946B868224B984737E03B6803F0010339
S214400700002B09D0BB7B012202FA03F31A460021D4
S214400710B8681C4B984708E0BB7B012202FA03F3FB
S2144007201A460021B868184B98473B6803F0020306
S214400730002B09D0BB7B012202FA03F31A460121A3
S214400740B868104B984708E0BB7B012202FA03F3D7
S2144007501A460121B8680C4B9847BB7B012202FA27
S21440076003F31946B868094B984700BF1037BD4693
S21440077080BD00BFF9044000008008406F02400082
S21440078095024000B1034000E3034000B102400040
S21440079080B582B000AF03460A46FB711346BB7174
S2144007A0FB795B09D8B2FB7903F01F03DBB2BA7959
S2144007B01946034B984700BF0837BD4680BD00BF6B
S2144007C0C905400080B582B000AF786039603968AE
S2144007D07868034B984700BF0837BD4680BD00BFCA
S2144007E08906400080B582B000AF03460A46FB71DA
S2144007F01346BB71FB795B09D8B2FB7903F01F0344
S214400800012202FA03F3BA791946034B984700BF10
S2144008100837BD4680BD00BF1D05400080B582B08C
S21440082000AF03460A46FB711346BB71FB795B0972
S214400830D8B2FB7903F01F03012202FA03F3BA7918
S2144008401946034B984700BF0837BD4680BD00BFDA
S2144008508105400080B500AF014B984700BF80BD82
S2144008601917400080B582B000AF786039607B6869
S214400870002B04D03B68002B01D0012300E000236E
S21440088003F00103DBB2482207491846074B984756
S2144008907B683A681A607B681846054B984703465B
S2144008A018460837BD4680BDA05840008D1540000C
S2144008B0612D400080B584B000AF78607B681F2B08
S2144008C013D801227B6802FA03F319461F48204BCF
S2144008D098470346002B35D101227B6802FA03F382
S2144008E019461A481B4B98472CE07B683F2B16D876
S2144008F07B68203B7B6001227B6802FA03F3194643
S2144009001248154B98470346002B1BD101227B68A3
S21440091002FA03F319460D48104B984712E07B68DD
S21440092003F07F03194609480D4B984707480D4B7F
S2144009309847F860FB6843F01023FB60F96803486B
S214400940074B984700BF1037BD4680BD00060E4097
S2144009503304400017044000770440005904400028
S2144009609F044000BD04400080B400AF00BFBD46B9
S2144009705DF8047B7047000080B500AF1720074B3A
S2144009809847074B9847074B984703461A460649E9
S2144009900648074B984700BF80BD00BFB5084000DB
S2144009A0690940003523400000C00040680B4020E5
S2144009B0F511400080B500AF0248034B984700BF92
S2144009C080BD00BF10E000E0C50E400080B500AF1F
S2144009D002490348034B984700BF80BD50180E405D
S2144009E02C0B40206508400080B500AF01217420E4
S2144009F0054B984701217520034B984701217620E7
S214400A00014B984700BF80BDC507400080B500AF8A
S214400A101520024B984700BF80BD00BFB508400078
S214400A2080B500AF084B9847084B98470346194691
S214400A300748084B984708490548084B9847084BCD
S214400A40984700BF80BD00BF0D0A4000351F4000DC
S214400A50140B4020ED0F4000008000402510400061
S214400A60E909400080B500AF00210420034B9847B9
S214400A7000210320014B984700BF80BDC5074000BA
S214400A8080B500AF1320024B984700BF80BD00BF23
S214400A90B508400080B500AF044B98470449054868
S214400AA0054B9847054B984700BF80BD810A4000DC
S214400AB000800140300B40208D0F4000650A40000A
S214400AC080B500AF02217C20034B984702217B2053
S214400AD0014B984700BF80BDC507400080B500AFBA
S214400AE02920024B984700BF80BD00BFB508400094
S214400AF080B500AF044B984704490548054B9847D6
S214400B00054B984700BF80BDDD0A40000000064008
S214400B10840B40208D0F4000C10A400080B500AFD6
S214400B2000210920034B984700210A20014B984793
S214400B3000BF80BDC507400080B500AF0720024B10
S214400B40984700BF80BD00BFB508400080B500AFE5
S214400B50064B9847064B984703461A4605490648AB
S214400B60064B9847064B984700BF80BD390B400060
S214400B70112C400000080E405C0B4020C113400082
S214400B801D0B400080B500AF1C4B98470C201C4BFB
S214400B9098471C481C4B984700214F201B4B9847B2
S214400BA002214F201A4B98474FF0FF314F20194BE8
S214400BB0984701215620164B984700215620164B41
S214400BC098474FF0FF315620124B98470221172086
S214400BD00F4B9847012117200F4B98470F4B9847CC
S214400BE00F4B98470F4B98470F4B98470F4B9847DC
S214400BF00F4B98470F4B984700BF80BD55084000A5
S214400C00B508400050180E40D70440001D0840006C
S214400C10E5074000C50740009107400079094000BD
S214400C20B5094000CD094000210A4000950A400021
S214400C30F10A40004D0B400080B483B000AF7860AE
S214400C4039607B683A681A6300BF0C37BD465DF86A
S214400C50047B704780B483B000AF786039607B68AF
S214400C603A685A6300BF0C37BD465DF8047B704750
S214400C7080B483B000AF0346FB71FB795B021A4633
S214400C80034B134418460C37BD465DF8047B70474B
S214400C90000E0E4080B584B000AF03463960FB714D
S214400CA01346BB71FB791846094B9847F860BB79E9
S214400CB0002B04D03968F868064B984703E039683B
S214400CC0F868054B984700BF1037BD4680BD00BF4B
S214400CD0710C4000390C4000550C400080B582B085
S214400CE000AF03460A46FB711346BB71FB795B09AE
S214400CF0D8B2FB7903F01F03012202FA03F3BA7954
S214400D001946034B984700BF0837BD4680BD00BF15
S214400D10950C400080B500AF034B98470020034B2E
S214400D2098470023184680BDD5014000310D40004D
S214400D3090B585B002AF7860144B98470246144B86
S214400D401A60134B1B68002B1CD0114B1B680221EA
S214400D501846104B9847104B0193022300930023EC
S214400D6040220E490E480F4CA0470F4B01930123DB
S214400D700093002340220D490D480A4CA0470D4BD6
S214400D80984700E000BF0C37BD4690BDB52D4000EB
S214400D90AC0B40202D304000A40B4020D0584000E3
S214400DA0B90D400051434000A80B4020DC5840009D
S214400DB0190E40006946400090B585B002AF786095
S214400DC00F4B18684FF0FF33009301230022022197
S214400DD00C4CA047002117200B4B98474FF47A70D5
S214400DE00A4B9847064B1B6802211846084B984703
S214400DF0034B1B6801211846064B9847E0E700BFA7
S214400E00AC0B4020ED2D4000DD0C4000F14540008D
S214400E10B12F40002D30400090B585B002AF7860CD
S214400E200F4B18684FF0FF33009301230022012137
S214400E300C4CA047012117200B4B98474FF47A7073
S214400E400A4B9847064B1B6801211846084B9847A3
S214400E50034B1B6802211846064B9847E0E700BF45
S214400E60AC0B4020ED2D4000DD0C4000F14540002D
S214400E70B12F40002D30400080B485B000AF786080
S214400E80EFF31083FB60FA687B681A6072B6BFF3B4
S214400E905F8F00BF1437BD465DF8047B704780B453
S214400EA085B000AF7860BFF35F8F7B681B68FB60E0
S214400EB0FB6883F3108800BF1437BD465DF8047B9B
S214400EC07047000080B582B000AF7860054A7B6806
S214400ED01360044B1B681846034B984700BF0837FF
S214400EE0BD4680BD680040206D1F400080B58AB07A
S214400EF000AFF860B9601346FB80FB68143B7B622A
S214400F007B6A9B8BBB82FB88BB6148F20103FB82FA
S214400F10BB68FB617B6A07F1140211461846064B14
S214400F20984738623B6A002B01D03B6A00E0FB885A
S214400F3018462837BD4680BDC125400080B58AB0DA
S214400F4000AFF860B9601346FB80FB68143B7B62D9
S214400F507B6A9B8BBB82FB88BB614FF40043FB8262
S214400F60BB68FB617B6A07F1140211461846064BC4
S214400F70984738623B6A002B01D03B6A00E0FB880A
S214400F8018462837BD4680BDC125400080B584B090
S214400F9000AF786039607B68002B14BF01230023C4
S214400FA0DBB25E220C4918460C4B98477B68396882
S214400FB018460B4B9847F860FB68002B01D0FB683F
S214400FC006E07B68074A9A617B68074A5A610023B5
S214400FD018461037BD4680BDEC5840008D15400081
S214400FE01D254000ED0E40003D0F400080B582B00C
S214400FF000AF786039607B68002B14BF0123002364
S214401000DBB2392205491846054B98477B683A6853
S2144010101A6000BF0837BD4680BD00BF205940005B
S2144010208D15400080B584B000AF786039600023ED
S214401030FB607B68002B04D03B68002B01D001236B
S21440104000E0002303F00103DBB2402210491846BB
S214401050104B98477B683A685A607B680433396817
S21440106018460D4B9847F860FB68002B01DAFB6882
S2144010700AE07B684FF400429A827B68074A1A610E
S2144010807B68074ADA60002318461037BD4680BDA5
S214401090205940008D154000F11B4000A51040002F
S2144010A0FD10400080B588B000AFF860B9601346C8
S2144010B0FB80FB68002B14BF01230023DBB2872292
S2144010C00B4918460B4B9847FB680C3BFB61BB68CB
S2144010D07B6100233B61FB88BB6107F11003194627
S2144010E0F869054B9847034618462037BD4680BDED
S2144010F0205940008D1540005511400080B588B0FD
S21440110000AFF860B9601346FB80FB68002B14BF45
S21440111001230023DBB2A3220B4918460B4B98470A
S214401120FB680C3BFB6100237B61BB683B61FB8833
S214401130BB6107F110031946F869054B984703460B
S21440114018462037BD4680BD205940008D154000CA
S2144011505511400080B586B000AF786039607B6836
S214401160002B04D03B68002B01D0012300E0002375
S21440117003F00103DBB2B3220C4918460C4B9847E8
S2144011803B681B68FB603B685B683B613B689B68F1
S2144011907B617B68043307F10C0211461846054B09
S2144011A09847034618461837BD4680BD205940002C
S2144011B08D154000351E400080B483B000AF786087
S2144011C07B681B6818460C37BD465DF8047B704745
S2144011D080B483B000AF78607B68002B02D07B6819
S2144011E01B6800E0002318460C37BD465DF8047BBC
S2144011F07047000080B584B000AFF860B9607A6090
S214401200FB68002B04D0BB68002B01D0012300E014
S214401210002303F00103DBB23B220A4918460A4B7F
S2144012209847FB68B9681846084B9847FB68002201
S2144012301A61FB68064A1A60002318461037BD46F6
S21440124080BD00BF545940008D1540000522400027
S2144012500513400080B588B000AFF860B9607A608A
S2144012600023BB61F868234B984738613B69002BE5
S21440127004D1B968F868204B984737E03B69FB6172
S21440128022E0FB695A687B689A4208D8FB699A68EC
S214401290FB6959687B68CB1A13447B6109E0FB699C
S2144012A09A68FB695B681A447B685B421344013367
S2144012B07B61BB689A687B699A4209D9FB69BB61C6
S2144012C0F8690E4B9847F861FB69002BD9D100E0CE
S2144012D000BFFA693B699A4204D1B968F868064B80
S2144012E0984703E0B968B869054B98472037BD462C
S2144012F080BD00BFB9114000ED154000D11140003F
S2144013004516400080B586B000AF78607B683B618C
S2144013103B6914331846274B984778613B691B69ED
S2144013205A1C3B691A613B691B69FB603B691B7E23
S214401330DBB203F00103002B06D13B691B7EDBB218
S21440134003F00203002B27D03B691B7EDBB243F041
S2144013500203DAB23B691A7629E07B69BB603B69D7
S21440136014331846144B9847BB681B7C012B09D195
S214401370BB68FA685A603B691433FA68B96818461D
S2144013800E4B98473B69143318460A4B984778618A
S214401390BB68DB68B86898477B69002B07D07B69D9
S2144013A05B68FA68D21A7B699B689A42D5D218372E
S2144013B0BD4680BDB9114000691640005512400038
S2144013C080B586B000AFF860B9607A60FB68002BE5
S2144013D004D0BB68002B01D0012300E0002303F0BB
S2144013E00103DBB234220D4918460D4B9847FB6883
S2144013F00833B96818460B4B984778617B69002BD1
S21440140001D07B6906E0FB68074A5A60FB68074ADA
S2144014101A60002318461837BD4680BD80594000E4
S2144014208D154000E9294000F91440003114400071
S21440143080B586B000AFF860B9601346FB800023E5
S2144014407B61FB683B61FB68002B07D0BB68002BC9
S21440145004D0FB88002B01D0012300E0002303F0DA
S2144014600103DBB2F1221F4918461F4B984700BFC5
S2144014703B69083318461D4B9847034683F00103E3
S214401480DBB2002BF4D13B6903F10800BA687B69F4
S21440149013441B781946164B984700BF3B690833E0
S2144014A01846124B9847034683F00103DBB2002BE5
S2144014B0F4D17B6901337B61FB887A699A42E2D337
S2144014C000BF3B69083318460A4B9847034683F0EB
S2144014D00103DBB2002BF4D17B6918461837BD46B2
S2144014E080BD00BF805940008D154000CD2A400089
S2144014F0412A40000D2B400090B587B000AFF86001
S214401500B9601346FB8000237B61FB683B61FB6848
S214401510002B07D0BB68002B04D0FB88002B01D0E3
S214401520012300E0002303F00103DBB24FF4867290
S21440153012491846124B984700BF3B690833184675
S214401540104B9847034683F00103DBB2002BF4D1DF
S214401550BA687B69D4183B69083318460A4B9847E3
S214401560034623707B6901337B61FB887A699A4224
S214401570E2D37B6918461C37BD4690BD8059400073
S2144015808D1540004D2B4000892A400080B485B020
S21440159000AF0346B9607A60FB73FB7B83F00103C0
S2144015A0DBB2002B00D000BE00BF1437BD465DF84E
S2144015B0047B704780B485B000AF786039607B6844
S2144015C01B68FB6008E0FA683B689A4201D1012339
S2144015D006E0FB681B68FB60FB68002BF3D100232A
S2144015E018461437BD465DF8047B704780B582B018
S2144015F000AF78603960396878680F4B9847034683
S214401600002B14BF01230023DBB283F00103DBB2BF
S21440161003F00103DBB2392208491846084B9847C5
S2144016207B681A683B681A607B683A681A6000BF35
S2144016300837BD4680BD00BFB5154000B4594000D0
S2144016408D15400080B483B000AF786039607B6809
S2144016501A683B681A607B683A681A6000BF0C37A5
S214401660BD465DF8047B704780B485B000AF7860B7
S2144016707B681B68002B09D07B681B68FB607B6817
S2144016801B681A687B681A60FB6800E000231846EF
S2144016901437BD465DF8047B704780B485B000AF14
S2144016A0786039607B681B68FB60FB6823F4706376
S2144016B0FB603B681B0203F47063FA681343FB60ED
S2144016C07B68FA681A6000BF1437BD465DF8047B35
S2144016D07047000080B582B000AF3B1D18460B4BEC
S2144016E098470B4A0A4BD3F8883043F47003C2F845
S2144016F08830BFF34F8FBFF36F8F3B1D1846054BA7
S214401700984700BF0837BD4680BD00BF790E4000F1
S21440171000ED00E09F0E400080B500AF044B9847B8
S21440172006210448044B9847044B984700BF80BDA9
S214401730D5164000000C0E409B164000411A400053
S21440174080B483B000AF78607B689B6E03F0010383
S214401750002B14BF01230023DBB218460C37BD46CE
S2144017605DF8047B704780B483B000AF78607B68D8
S2144017709B6E03F00203002B14BF01230023DBB251
S21440178018460C37BD465DF8047B704780B483B07E
S21440179000AF78607B689B6E03F00803002B14BF95
S2144017A001230023DBB218460C37BD465DF8047BA8
S2144017B0704780B483B000AF786039607B681A6A3F
S2144017C03B681A437B681A6200BF0C37BD465DF81B
S2144017D0047B704780B483B000AF786039607B6824
S2144017E03A681A6200BF0C37BD465DF8047B704706
S2144017F080B483B000AF78607B681B6A18460C37AD
S214401800BD465DF8047B704780B485B000AF786015
S21440181039607B689B6AFB60FA68094B1340FB6043
S2144018203B681A04074B1340FA681343FB607B6817
S214401830FA689A6200BF1437BD465DF8047B70476D
S214401840FFFF00F80000FF0780B483B000AF786069
S21440185039607B683A689A6200BF0C37BD465DF8CF
S214401860047B704780B485B000AF786039607B6891
S2144018701B6BFB60FB6823F00303FB603B6803F0D5
S2144018800303FA681343FB607B68FA681A6300BF79
S2144018901437BD465DF8047B704780B485B000AF12
S2144018A0786039607B681B6BFB60FB6823F07003D5
S2144018B0FB603B681B0103F07003FA681343FB6050
S2144018C07B68FA681A6300BF1437BD465DF8047B30
S2144018D0704780B485B000AF786039607B681B6B1A
S2144018E0FB60FB6823F44073FB603B681B0203F419
S2144018F04073FA681343FB607B68FA681A6300BF5C
S2144019001437BD465DF8047B7047000080B582B052
S21440191000AF00237B601C481C4B9847034623F0CF
S21440192002037B607A681A4B13437B6079681648DB
S214401930184B984700BF1448174B9847034683F008
S2144019400103DBB2002BF6D114490F48144B9847DD
S214401950144B7B6000210C48134B98477B6843F040
S214401960005319460848114B984700BF0648104B8D
S2144019709847034683F00103DBB2002BF6D100BF45
S2144019800837BD4680BD00BF00060E40F117400038
S214401990013E3700D5174000411740000000370190
S2144019A0B3174000013F180009184000491840008E
S2144019B06717400080B500AF00211548154B984783
S2144019C000BF1348144B9847034683F00103DBB22D
S2144019D0002BF6D101210E48104B984700BF0C480B
S2144019E00D4B9847034683F00103DBB2002BF6D13C
S2144019F0022107480A4B984700BF0548064B9847C0
S214401A00034683F00103DBB2002BF6D100BF80BD56
S214401A1000060E409B1840008D174000D31840002B
S214401A206518400080B400AF00BFBD465DF8047B3B
S214401A30704780B400AF00BFBD465DF8047B70477A
S214401A4080B500AF044B9847044B9847044B9847E3
S214401A50044B984700BF80BD0D194000B5194000A3
S214401A60251A4000331A400080B483B000AF786037
S214401A707B689B689BB218460C37BD465DF8047B76
S214401A80704780B483B000AF78607B681B6903F40E
S214401A908033002B14BF01230023DBB218460C37DB
S214401AA0BD465DF8047B704780B485B000AF786073
S214401AB039607B681B69FB60FA683B681340FB60D3
S214401AC0FB6818461437BD465DF8047B704780B403
S214401AD083B000AF78607B681B6918460C37BD46FC
S214401AE05DF8047B704780B483B000AF786039609F
S214401AF07B683A685A6000BF0C37BD465DF8047B89
S214401B00704780B485B000AFF8600B467A60FB72D1
S214401B10FA7AFB680C32796843F8221000BF143713
S214401B20BD465DF8047B704780B483B000AF7860F4
S214401B3039607B683A681A6000BF0C37BD465DF86E
S214401B40047B704780B483B000AF786039607B68B0
S214401B503A68DA6000BF0C37BD465DF8047B7047D4
S214401B6080B485B000AF78607A68084B13441B0C8D
S214401B70FB73FB7B052B01D1012300E000231846B5
S214401B801437BD465DF8047B704700BF0080FFBF3A
S214401B9080B584B000AF78607B681846124B984793
S214401BA00346BB730023FB7315E0FA7B0F491346CD
S214401BB09B0013449B000B441B78BA7B9A4207D188
S214401BC0FA7B13469B0013449B00084A134406E0E6
S214401BD0FB7B0133FB73FB7B002BE6D000231846D0
S214401BE01037BD4680BD00BF611B4000E85940002D
S214401BF080B584B000AF786039603B6818462A4BA1
S214401C009847F8607B68002B04D03B68002B01D0D7
S214401C10012300E0002303F00103DBB24FF49A7285
S214401C2022491846224B9847FB68002B02D16FF09A
S214401C300C0335E038681F4B98470346002B02D00C
S214401C406FF010032CE0802138681B4B98477B6868
S214401C503A681A60FB685A68184B13401946386849
S214401C60154B9847FB689A68154B1340154A1A431C
S214401C7011463868144B9847FB68DB681A460021C3
S214401C803868124B9847FB681A8A7B68DA80FB688C
S214401C90DB68DBB223F00F03DAB27B681A710023ED
S214401CA018461037BD4680BD911B4000FC59400089
S214401CB08D154000831A4000291B40007CFFFFFE24
S214401CC06FFFF1FF10000E00E71A4000031B4000B4
S214401CD080B582B000AF786000BF4FF4007178687E
S214401CE0044B98470346002BF7D000BF0837BD4645
S214401CF080BD00BFA91A400080B584B000AF7860B0
S214401D0039607868174B9847034603F00103002B69
S214401D1001D1002322E07868134B9847F8603B686F
S214401D205B68002B14D03B685B68591C3A6851606E
S214401D30FA68D2B21A703B681B7C012B08D93B6804
S214401D405B68591C3A685160FA68120AD2B21A7037
S214401D503B68DB685A1C3B68DA600123184610373C
S214401D60BD4680BDCF1A4000691A400080B586B097
S214401D7000AFF860B9601346FB80F8681A4B984786
S214401D80034603F00203002B01D1002328E0BB6882
S214401D901B68002B18D0BB681B68591CBA681160BA
S214401DA01B787B61BB681B7C012B0FD9BB681B680B
S214401DB01B781B021A467B6913437B61BB681B6812
S214401DC05A1CBB681A6001E0FB887B61BB689B6855
S214401DD05A1CBB689A607969F868044B9847012397
S214401DE018461837BD4680BDCF1A4000451B4000F8
S214401DF080B582B000AF786039603B68002B14BF76
S214401E0001230023DBB240F2222208491846084B41
S214401E1098477B6803F00803002B02D06FF012034C
S214401E2000E0002318460837BD4680BDFC594000F8
S214401E308D15400080B58AB000AF786039607B6809
S214401E401B683B6200237B623B681B68FB603B6809
S214401E505B683B6100237B610023BB617B681B7929
S214401E603B777B68002B04D03B6A002B01D00123D4
S214401E7000E0002303F00103DBB240F231222549A3
S214401E801846254B9847386A244B9847034683F0B4
S214401E900103DBB2002B02D06FF0130335E007F1ED
S214401EA00C031946386A1E4B9847034683F00103D5
S214401EB0DBB2002B0BD0BA697B699A4207D37B68AA
S214401EC0DA8807F10C031946386A164B9847386A81
S214401ED0154B98470346396A1846144B984778621C
S214401EE07B6A002B0CDB7A693B689B689A42D6D3A8
S214401EF0BA693B689B689A42D1D37B697B6200E0B3
S214401F0000BF386A0A4B98477B6A18462837BD4652
S214401F1080BD00BFFC5940008D154000831A40002C
S214401F20F91C40006D1D4000CF1A4000F11D4000D6
S214401F30D11C400080B400AF00231846BD465DF873
S214401F40047B704780B483B000AF7860064B6FF078
S214401F507F425A60044B05221A6000BF0C37BD46CC
S214401F605DF8047B704700BF10E000E080B582B0AB
S214401F7000AF78607868034B984700BF0837BD4687
S214401F8080BD00BF451F400080B483B000AF03460D
S214401F90FB7197F90730002B0BDB094997F907309F
S214401FA05B09FA7902F01F02012000FA02F241F8BA
S214401FB0232000BF0C37BD465DF8047B704700BF4A
S214401FC000E100E080B483B000AF0346FB7197F9B0
S214401FD00730002B10DB0B4997F907305B09FA797D
S214401FE002F01F02012000FA02F2203341F82320BB
S214401FF0BFF34F8FBFF36F8F00BF0C37BD465DF802
S214402000047B704700E100E080B483B000AF034635
S214402010FB7197F90730002B0CDB094997F907301D
S2144020205B09FA7902F01F02012000FA02F26033DF
S21440203041F8232000BF0C37BD465DF8047B70474F
S21440204000E100E080B485B000AFF8600B467A60EF
S214402050FB72FB7AFA689B01134424337A681A6051
S21440206000BF1437BD465DF8047B704780B483B02C
S21440207000AF78600B46FB70FB787A689B01134490
S21440208020331B6803F01003002B14BF01230023EA
S214402090DBB218460C37BD465DF8047B704780B40B
S2144020A085B000AFF8600B467A60FB72FB7AFA6840
S2144020B09B01134404337A681A6000BF1437BD4648
S2144020C05DF8047B704780B485B000AFF8600B467F
S2144020D07A60FB72FB7AFA689B01134414337A6881
S2144020E01A6000BF1437BD465DF8047B704780B465
S2144020F085B000AFF8600B467A60FB72FB7AFA68F0
S2144021009B01134418337A681A6000BF1437BD46E3
S2144021105DF8047B704780B485B000AFF8600B462E
S2144021207A60FB72FB7AFA689B0113441C337A6828
S2144021301A6000BF1437BD465DF8047B704780B414
S21440214085B000AFF8600B467A60FB72FB7AFA689F
S2144021509B01134430337A681A6000BF1437BD467B
S2144021605DF8047B704780B483B000AF7860396018
S2144021707B683A68C3F8D82000BF0C37BD465DF888
S214402180047B704780B485B000AF78600023FB7353
S21440219015E0FA7B0F491346DB0013449B000B44C3
S2144021A01A687B689A4207D1FA7B1346DB001344D1
S2144021B09B00084A134406E0FB7B0133FB73FB7B22
S2144021C0002BE6D0002318461437BD465DF8047B46
S2144021D0704700BF0000402080B483B000AF7860F6
S2144021E039607B68054A934202D1054A3B681360D2
S2144021F000BF0C37BD465DF8047B704700C000400A
S2144022006C00402080B584B000AF78603960386894
S2144022102E4B9847B860BB689B68FB607B683A6803
S214402220DA6091222A4901202A4B9847FB6803F43A
S2144022300043002B03D0FB6843F41423FB60FA688A
S21440224000213868244B9847BB685B691A460021D2
S2144022503868224B9847BB689B691A460021386805
S2144022601F4B9847BB68DB681A46002138681D4BF1
S2144022709847BB68DB691A46002138681A4B98476E
S214402280102200213868194B9847BB681B691946CD
S2144022903868174B984779683868164B9847BB6834
S2144022A093F904301846144B9847BB6893F90430AA
S2144022B01846124B9847BB6893F904301846104BA3
S2144022C09847002318461037BD4680BD85214000FC
S2144022D0285A40008D1540009F204000C7204000EF
S2144022E0EF2040003F21400017214000452040009D
S2144022F067214000D9214000C51F4000092040000A
S214402300891F400080B584B000AF78607B68DB688A
S214402310FB600021F868064B98470346002B03D025
S2144023207B681B687868984700BF1037BD4680BDFD
S2144023306D20400080B400AF00231846BD465DF8CF
S214402340047B704780B500AF034B1B681846034BB1
S214402350984700BF80BD00BF6C004020052340006A
S21440236080B483B000AF78607B681B6A03F00103DB
S214402370002B14BF01230023DBB218460C37BD46A2
S2144023805DF8047B704780B483B000AF78607B68AC
S2144023901B6A03F00203002B14BF01230023DBB2A9
S2144023A018460C37BD465DF8047B704780B483B052
S2144023B000AF78607B681B6A03F48073002B14BF01
S2144023C001230023DBB218460C37BD465DF8047B7C
S2144023D0704780B483B000AF78607B681B6A18464D
S2144023E00C37BD465DF8047B704780B483B000AFC1
S2144023F078607B681B6B18460C37BD465DF8047BDF
S214402400704780B483B000AF786039607B683A68C4
S2144024105A6000BF0C37BD465DF8047B704780B4F9
S21440242083B000AF786039607B683A68DA6000BF96
S2144024300C37BD465DF8047B704780B483B000AF70
S214402440786039607B683A681A6100BF0C37BD46D1
S2144024505DF8047B704780B483B000AF7860396025
S2144024607B683A689A6300BF0C37BD465DF8047BCC
S214402470704780B483B000AF786039607B683A6854
S2144024805A6400BF0C37BD465DF8047B704780B485
S21440249083B000AF786039607B683A681A6000BFE6
S2144024A00C37BD465DF8047B704780B483B000AF00
S2144024B0786039607B683A685A6300BF0C37BD461F
S2144024C05DF8047B7047000080B485B000AF78604C
S2144024D00023FB7315E0FA7B0F4913465B00134459
S2144024E0DB000B441A687B689A4207D1FA7B134696
S2144024F05B001344DB00084A134406E0FB7B0133D1
S214402500FB73FB7B012BE6D9002318461437BD46E8
S2144025105DF8047B704700BF505A400080B584B0D9
S21440252000AF786039607B68002B04D03B68002B96
S21440253001D0012300E0002303F00103DBB27E223A
S21440254018491846184B98477B683A681A617B6862
S2144025501B691846154B9847F8607B681A69FB68F4
S2144025605B6819461046124B98477B681A69FB68A9
S2144025709B68194610460F4B98477B681A69FB685C
S214402580DB68194610460C4B98477B681A69FB680F
S2144025901B6919461046094B9847002318461037C2
S2144025A0BD4680BD805A40008D154000C92440007D
S2144025B08F24400057244000732440003B244000B2
S2144025C080B582B000AF786039607B68002B04D05D
S2144025D03B68002B01D0012300E0002303F00103F9
S2144025E0DBB2C02211491846114B98477B685B887E
S2144025F09BB203F48073002B02D06FF0050311E00A
S2144026003B685B889BB203F00103002B05D039681A
S2144026107868084B9847034604E039687868064B64
S2144026209847034618460837BD4680BD805A400046
S2144026308D154000752740003D26400080B586B089
S21440264000AF7860396000233B613B685B889BB293
S21440265043F480739AB23B685A803B681B8803F405
S2144026608063002B1BD07B681A693B681B881B0A5B
S2144026709BB243F078039BB21B0403F4FE0343F47F
S214402680807319461046354B98477B681A693B68F5
S2144026901B88DBB219461046314B98470AE07B68E8
S2144026A01A693B681B881B0403F4FE031946104650
S2144026B02A4B984700237B6123E07B681B691846BA
S2144026C0284B9847F860FB6803F48073002B03D0D0
S2144026D06FF001033B6104E0FB6803F00403002B4A
S2144026E0EBD03B69002B13D17B6818693B689A682E
S2144026F07B6913441B7819461B4B98477B6901330B
S2144027007B613B685B681A467B699A42D5D800E095
S21440271000BF3B685B889BB21BB2002B11DA7B681C
S2144027201B6902211846114B984700BF7B681B69FE
S21440273018460F4B9847034683F00103DBB2002B45
S214402740F4D17B685B889BB223F480739AB27B6833
S2144027505A803B6918461837BD4680BD0324400062
S2144027601F244000D3234000AB2440008F24400069
S2144027706123400090B585B000AF786039603B6813
S2144027805B889BB243F480739AB23B685A803B683E
S2144027901B8803F48063002B1BD07B681A693B6858
S2144027A01B881B0A9BB243F078039BB21B0403F4BE
S2144027B0FE0343F48853194610463D4B98477B68C2
S2144027C01A693B681B88DBB219461046394B984756
S2144027D00CE07B681A693B681B881B0403F4FE0305
S2144027E043F4805319461046314B98477B681A6924
S2144027F03B685B68012B01D1032300E001231946A7
S21440280010462D4B98470023FB6031E07B681B69E0
S21440281018462A4B98470346002B02D06FF0010318
S21440282041E07B681B691846254B9847034683F072
S2144028300103DBB2002BE9D13B689A68FB68D418E9
S2144028407B681B6918461F4B98470346DBB22370CC
S2144028503B685B68023B1A46FB689A4205D17B6838
S2144028601B6902211846144B9847FB680133FB60EE
S2144028703B685B681A46FB689A42D2D800BF7B68C2
S2144028801B691846104B9847034683F00103DBB29A
S214402890002BF4D17B685B889BB223F480739AB29A
S2144028A07B685A80002318461437BD4690BD00BF4B
S2144028B0032440001F2440008F244000AD234000E6
S2144028C087234000EB2340006123400080B483B060
S2144028D000AF78607B685B6903F00103002B14BF90
S2144028E001230023DBB218460C37BD465DF8047B57
S2144028F0704780B483B000AF78607B685B6903F054
S2144029000203002B14BF01230023DBB218460C370A
S214402910BD465DF8047B704780B483B000AF7860F6
S2144029207B685B6903F40073002B14BF012300230C
S214402930DBB218460C37BD465DF8047B704780B462
S21440294083B000AF78607B689B69DBB218460C3773
S214402950BD465DF8047B704780B483B000AF7860B6
S21440296039607B683A685A6000BF0C37BD465DF8F0
S214402970047B704780B483B000AF786039607B6872
S2144029803A681A6200BF0C37BD465DF8047B704754
S21440299080B483B000AF786039607B683A68C3F82B
S2144029A0E42000BF0C37BD465DF8047B704780B41A
S2144029B083B000AF786039607B683A681A6000BFC1
S2144029C00C37BD465DF8047B704780B483B000AFDB
S2144029D0786039607B683A68DA6100BF0C37BD467C
S2144029E05DF8047B7047000080B582B000AF786029
S2144029F039607B68002B14BF01230023DBB2A92279
S214402A000C4918460C4B98473B68002B14BF0123D3
S214402A100023DBB2AA2207491846074B98477B6833
S214402A203A681A603868054B984703461846083790
S214402A30BD4680BDB05A40008D1540009D2C4000DC
S214402A4080B582B000AF78600B46FB707B68002B89
S214402A5014BF01230023DBB240F295120749184603
S214402A60074B98477B681B68FA7811461846054B13
S214402A70984700BF0837BD4680BD00BFB05A4000EB
S214402A808D154000CB29400080B582B000AF7860FD
S214402A907B68002B14BF01230023DBB240F2A71251
S214402AA007491846074B98477B681B681846064BED
S214402AB098470346DBB218460837BD4680BD00BF80
S214402AC0B05A40008D1540003F29400080B582B086
S214402AD000AF78607B68002B14BF01230023DBB275
S214402AE04FF4D87206491846064B98477B681B68D1
S214402AF01846054B9847034618460837BD4680BDDE
S214402B00B05A40008D154000F328400080B582B092
S214402B1000AF78607B68002B14BF01230023DBB234
S214402B2040F2B91206491846064B98477B681B6820
S214402B301846054B9847034618460837BD4680BD9D
S214402B40B05A40008D1540001929400080B582B02B
S214402B5000AF78607B68002B14BF01230023DBB2F4
S214402B6040F2CB1206491846064B98477B681B68CE
S214402B701846054B9847034618460837BD4680BD5D
S214402B80B05A40008D154000CD28400080B582B038
S214402B9000AF78607B68002B14BF01230023DBB2B4
S214402BA040F2192213491846134B98477B68134A3C
S214402BB0934201D1002318E07B68114A934201D129
S214402BC0012312E07B680F4A934201D102230CE0B6
S214402BD07B680D4A934201D1032306E07B680B4A8B
S214402BE0934201D1042300E0FF2318460837BD4630
S214402BF080BD00BFB05A40008D15400000080E4012
S214402C00000A0E40001A0E40001C0E40001E0E40E9
S214402C1080B400AF00231846BD465DF8047B70477D
S214402C2080B584B000AF78607B68002B14BF01236A
S214402C300023DBB24FF4277214491846144B9847CA
S214402C407868144B98470346BB730023FB730FE02A
S214402C50FA7B114913465B0013449B000B441B78D8
S214402C60BA7B9A4201D1FB7B0CE0FB7B0133FB73C2
S214402C70FB7B022BECD940F2A62204490020044BF1
S214402C809847002318461037BD4680BDB05A4000CE
S214402C908D1540008D2B40002400402080B584B028
S214402CA000AF78607B68002B14BF01230023DBB2A3
S214402CB040F2B3221A4918461A4B984778681A4B7E
S214402CC098470346FB7319497868194B9847AC21D7
S214402CD07868184B98474FF480717868154B98473A
S214402CE0FA7B154913465B0013449B000B440433A0
S214402CF01B6819467868114B9847FA7B0E4913466D
S214402D005B0013449B000B4408331B6819467868E5
S214402D100B4B9847002318461037BD4680BD00BF72
S214402D20B05A40008D154000212C400000524155BD
S214402D3091294000AF2940002400402059294000F6
S214402D407529400080B483B000AF786039607B68F6
S214402D503A685A6000BF0C37BD465DF8047B704742
S214402D6080B582B000AF78607B68002B05D07B686A
S214402D701B68002B01D0012300E0002303F0010371
S214402D80DBB2332207491846074B98477B681B68D7
S214402D9006491846064B9847002318460837BD464E
S214402DA080BD00BFDC5A40008D154000FF2FFF3F1E
S214402DB0452D400080B582B000AF1C20094B984797
S214402DC078607B68002B07D07B6800221A607B689F
S214402DD004331846044B98477B6818460837BD4668
S214402DE080BD00BF713740009931400080B590B03B
S214402DF000AFF860B9607A603B60FB687B63002395
S214402E00BB6300233B63FB68002B0BD14FF0800372
S214402E1072B683F31188BFF36F8FBFF34F8F62B6DE
S214402E203B62FEE7BB6803F07F43002B0BD04FF0BE
S214402E30800372B683F31188BFF36F8FBFF34F8F53
S214402E4062B6FB61FEE7BB68002B0BD14FF08003F8
S214402E5072B683F31188BFF36F8FBFF34F8F62B69E
S214402E60BB61FEE7494B98470346002B02D1BB6C3B
S214402E70002B01D1012300E00023002B0BD14FF0A3
S214402E80800372B683F31188BFF36F8FBFF34F8F03
S214402E9062B67B61FEE73E4B98477B6B1B68FB62E6
S214402EA03A68B968F86A3B4B9847B862BB6A002BE9
S214402EB00ED0FB6AFB630023BB647B68002B28D0E4
S214402EC07B6B1A68BB68DB431A407B6B1A6020E05A
S214402ED0BB6C002B04D1FB6AFB6301233B6318E009
S214402EE07B68002B03D0BB6B43F08073BB633B68AF
S214402EF0002B03D0BB6B43F08063BB637B6B181D1A
S214402F00BA68BB6B1343BA6C1946234B98470023E9
S214402F10FB63224B98477862BB6C002B31D07B6AB0
S214402F20002B07D11E4B4FF080521A60BFF34F8FD5
S214402F30BFF36F8F1B4B9847F863FB6B03F0007330
S214402F40002B1AD1184B98477B6B1B68FB633A687B
S214402F50B968F86B0F4B98470346002B09D07B683F
S214402F60002B06D07B6B1A68BB68DB431A407B6B32
S214402F701A6001233B630D4B9847FB6B23F07F435E
S214402F80FB63FB6B18464037BD4680BDE54F4000AF
S214402F901547400055314000414B40003147400006
S214402FA004ED00E0095140002D35400091354000C9
S214402FB080B586B000AF786039607B687B617B689F
S214402FC0002B0BD14FF0800372B683F31188BFF30A
S214402FD06F8FBFF34F8F62B6FB60FEE73B6803F030
S214402FE07F43002B0BD04FF0800372B683F31188DB
S214402FF0BFF36F8FBFF34F8F62B6BB60FEE7094BE0
S21440300098477B691B683B617B691A683B68DB4372
S2144030101A407B691A60044B98473B691846183734
S214403020BD4680BD2D3540009135400080B58EB000
S21440303000AF7860396000233B637B68BB62002347
S214403040FB627B68002B0BD14FF0800372B683F394
S2144030501188BFF36F8FBFF34F8F62B63B61FEE7B9
S2144030603B6803F07F43002B0BD04FF0800372B6D3
S21440307083F31188BFF36F8FBFF34F8F62B6FB6049
S214403080FEE7BB6A04337B627B6A08333B622E4BA7
S21440309098477B6ADB687B63BB6A1A683B681A435F
S2144030A0BB6A1A603CE07B6B5B68FB617B6B1B68B2
S2144030B0BB610023FB62BB6903F07F437B61BB6956
S2144030C023F07F43BB617B6903F08063002B08D10C
S2144030D0BB6A1A68BB691340002B0BD00123FB6206
S2144030E008E0BB6A1A68BB691A40BB699A4201D1BC
S2144030F00123FB62FB6A002B10D07B6903F08073D0
S214403100002B03D03A6BBB6913433B63BB6A1B6817
S21440311043F000731946786B0C4B9847FB697B630A
S2144031207A6B3B6A9A42BED1BB6A1A683B6BDB43FA
S2144031301A40BB6A1A60064B9847BB6A1B6818461B
S2144031403837BD4680BD00BF15474000F54C4000AF
S2144031503147400080B487B000AFF860B9607A600D
S21440316000237B617B68002B07D1FA68BB6813405D
S214403170002B0AD001237B6107E0FA68BB681A403F
S214403180BB689A4201D101237B617B6918461C3794
S214403190BD465DF8047B704780B483B000AF78606E
S2144031A07B6803F108027B685A607B684FF0FF3209
S2144031B09A607B6803F108027B68DA607B6803F1FB
S2144031C008027B681A617B6800221A6000BF0C37D1
S2144031D0BD465DF8047B704780B483B000AF78602E
S2144031E07B6800221A6100BF0C37BD465DF8047B41
S2144031F0704780B485B000AF786039607B685B68A4
S214403200FB603B68FA685A60FB689A683B689A605D
S214403210FB689B683A685A60FB683A689A603B6805
S2144032207A681A617B681B685A1C7B681A6000BF04
S2144032301437BD465DF8047B704780B485B000AF58
S214403240786039603B681B68BB60BB68B3F1FF3F82
S21440325003D17B681B69FB600CE07B680833FB602E
S21440326002E0FB685B68FB60FB685B681A68BB68EB
S2144032709A42F6D9FB685A683B685A603B685B6876
S2144032803A689A603B68FA689A60FB683A685A609F
S2144032903B687A681A617B681B685A1C7B681A60B0
S2144032A000BF1437BD465DF8047B704780B485B0D8
S2144032B000AF78607B681B69FB607B685B687A68F8
S2144032C092689A607B689B687A6852685A60FB6826
S2144032D05A687B689A4203D17B689A68FB685A6052
S2144032E07B6800221A61FB681B685A1EFB681A60DE
S2144032F0FB681B6818461437BD465DF8047B70476C
S21440330080B485B000AFF860B9607A60FB68043B73
S214403310FB60FB684FF080721A60FB68043BFB6002
S214403320BB6823F00102FB681A60FB68043BFB6045
S2144033300C4AFB681A60FB68143BFB607A68FB68C3
S2144033401A60FB68043BFB60FB686FF002021A6081
S214403350FB68203BFB60FB6818461437BD465DF8AB
S214403360047B70476933400080B485B000AF0023CB
S2144033707B60134B1B68B3F1FF3F0BD04FF08003CD
S21440338072B683F31188BFF36F8FBFF34F8F62B669
S214403390FB60FEE74FF0800372B683F31188BFF3FD
S2144033A06F8FBFF34F8F62B6BB6000BF7B68002B4A
S2144033B0FCD000BF1437BD465DF8047B704700BFA5
S2144033C04800402000000000000000000000000010
S2144033D0074B19680868B0E8F04F80F30988BFF3D8
S2144033E06F8F4FF0000080F311887047AFF3008076
S2144033F0E009402000BF00BF08480068006880F32E
S21440340008884FF0000080F3148862B661B6BFF3B8
S2144034104F8FBFF36F8F00DF00BF00BF08ED00E0A7
S21440342080B584B000AF364BFB60FB681B78DBB2E0
S2144034307B60FB68FF221A70FB681B78DBB2FB7070
S214403440FB78DBB223F07F03DAB22E4B1A702E4B9A
S21440345007221A6009E02C4B1B68013B2A4A13607E
S214403460FB78DBB25B00DBB2FB70FB78DBB203F0D1
S2144034708003802BEFD0244B1B68C3F10703032B3C
S2144034800BD04FF0800372B683F31188BFF36F8F73
S214403490BFF34F8F62B6BB60FEE71B4B1B681B0239
S2144034A0194A1360184B1B6803F4E063164A13600E
S2144034B07B68DAB2FB681A70144A144B1B6843F4F4
S2144034C060031360114A114B1B6843F0604313605E
S2144034D00F4B98470F4B00221A600F4B98470F4AE6
S2144034E00E4B1B6843F0404313600D4B98470D4B03
S2144034F098470D4B9847002318461037BD4680BD69
S21440350000E400E0700040207400402020ED00E021
S214403510A136400048004020D936400034EF00E055
S214403520F9334000314A40006933400080B483B0EC
S21440353000AF4FF0800372B683F31188BFF36F8FEE
S214403540BFF34F8F62B67B600F4B1B6801330E4A4A
S21440355013600D4B1B68012B10D10C4B1B68DBB264
S214403560002B0BD04FF0800372B683F31188BFF365
S2144035706F8FBFF34F8F62B63B60FEE700BF0C37DE
S214403580BD465DF8047B70474800402004ED00E0EF
S21440359080B483B000AF124B1B68002B0BD14FF0AA
S2144035A0800372B683F31188BFF36F8FBFF34F8FDC
S2144035B062B67B60FEE70A4B1B68013B084A136015
S2144035C0074B1B68002B04D100233B603B6883F30A
S2144035D0118800BF0C37BD465DF8047B704700BFBE
S2144035E048004020000000000000000000000000EE
S2144035F0EFF30980BFF36F8F154B1A681EF0100F5C
S21440360008BF20ED108A20E9F04F10602DE9090030
S2144036104FF0800072B680F31188BFF34F8FBFF330
S2144036206F8F62B601F004FA4FF0000080F3118805
S21440363009BC19680868B0E8F04F1EF0100F08BFC4
S214403640B0EC108A80F30988BFF36F8F704700BFD5
S214403650E009402000BF00BF80B582B000AF4FF009
S214403660800372B683F31188BFF36F8FBFF34F8F1B
S21440367062B67B60084B98470346002B03D0074B47
S2144036804FF080521A6000233B603B6883F31188FA
S21440369000BF0837BD4680BDA548400004ED00E0A9
S2144036A080B400AF084B00221A60084B00221A6014
S2144036B0074B084A1A60044B07221A6000BFBD46F3
S2144036C05DF8047B704700BF10E000E018E000E0C3
S2144036D014E000E0DF930400DFF80C00016841F4DA
S2144036E070010160704700BF88ED00E080B485B08F
S2144036F000AFEFF30583FB60FB680F2B15D9184A24
S214403700FB6813441B78FB72164B1B78FA7A9A4276
S2144037100BD24FF0800372B683F31188BFF36F8FDE
S214403720BFF34F8F62B67B60FEE70F4B1B6803F418
S214403730E0620E4B1B689A420BD94FF0800372B67C
S21440374083F31188BFF36F8FBFF34F8F62B63B6032
S214403750FEE700BF1437BD465DF8047B704700BFE8
S214403760F0E300E0700040200CED00E074004020E4
S21440377080B584B000AF78600023FB607B6803F0C0
S2144037800703002B04D07B6823F0070308337B60D5
S214403790174B9847174B1B68002B05D1164B23F049
S2144037A007031A46134B1A60144B1A687B68134477
S2144037B040F65712934213D8104B1A687B681A4447
S2144037C00E4B1B689A420BD90A4B1A680B4B1B6868
S2144037D01344FB60094B1A687B681344074A13601E
S2144037E0074B9847FB6818461037BD4680BD00BF5C
S2144037F015474000DC09402080004020D809402082
S2144038003147400080B485B000AF78607B68002BBD
S2144038100BD04FF0800372B683F31188BFF36F8FDF
S214403820BFF34F8F62B6FB60FEE700BF1437BD465E
S2144038305DF8047B7047000080B584B000AF7860C8
S21440384039607B68FB60FB68002B0BD14FF0800330
S21440385072B683F31188BFF36F8FBFF34F8F62B694
S214403860BB60FEE7284B9847FB681A68FB68DB6B33
S214403870F968096C01FB03F31A44FB685A60FB685D
S21440388000229A63FB681A68FB689A60FB681A68AD
S214403890FB68DB6B013BF968096C01FB03F31A44D8
S2144038A0FB68DA60FB68FF2283F84420FB68FF224F
S2144038B083F845203B68002B14D1FB681B69002B1E
S2144038C01AD0FB6810331846104B98470346002B17
S2144038D012D00F4B4FF080521A60BFF34F8FBFF39A
S2144038E06F8F09E0FB68103318460A4B9847FB6811
S2144038F024331846074B9847074B984701231846EA
S2144039001037BD4680BD00BF2D354000254C4000D9
S21440391004ED00E0993140009135400090B58BB001
S21440392002AFF860B9601346FB71FB68002B0BD101
S2144039304FF0800372B683F31188BFF36F8FBFF3E7
S2144039404F8F62B63B61FEE7BB68002B02D1002377
S214403950FB6104E0FB68BA6802FB03F3FB61FB69AA
S214403960543318460B4B9847B861BB69002B0BD0B5
S214403970BB6954337B61FA79BB69009313467A6915
S214403980B968F868044CA047BB6918462437BD465A
S21440399090BD00BF713740009D39400080B584B06F
S2144039A000AFF860B9607A60FB70BB68002B03D14B
S2144039B0BB69BA691A6002E0BB697A681A60BB697B
S2144039C0FA68DA63BB69BA681A640121B869064BBB
S2144039D09847BB69FA7883F85020BB6900229A64FE
S2144039E000BF1037BD4680BD3938400080B58EB028
S2144039F000AFF860B9607A603B6000237B63FB6889
S214403A003B633B6B002B0BD14FF0800372B683F3C6
S214403A101188BFF36F8FBFF34F8F62B6BB62FEE76E
S214403A20BB68002B03D13B6B1B6C002B01D10123E1
S214403A3000E00023002B0BD14FF0800372B683F3D7
S214403A401188BFF36F8FBFF34F8F62B67B62FEE77E
S214403A503B68022B03D13B6BDB6B012B01D101236F
S214403A6000E00023002B0BD14FF0800372B683F3A7
S214403A701188BFF36F8FBFF34F8F62B63B62FEE78E
S214403A80644B98470346002B02D17B68002B01D13C
S214403A90012300E00023002B0BD14FF0800372B6C9
S214403AA083F31188BFF36F8FBFF34F8F62B6FB610E
S214403AB0FEE7594B98473B6B9A6B3B6BDB6B9A42E6
S214403AC002D33B68022B3DD13A68B968386B534BFA
S214403AD09847F8623B6B9B6C002B0FD03968386B6D
S214403AE04F4B98470346002B28D04E4B4FF0805202
S214403AF01A60BFF34F8FBFF36F8F1FE03B6B5B6A5D
S214403B00002B10D03B6B24331846474B9847034650
S214403B10002B13D0434B4FF080521A60BFF34F8FA9
S214403B20BFF36F8F0AE0FB6A002B07D03D4B4FF088
S214403B3080521A60BFF34F8FBFF36F8F3B4B98474F
S214403B40012363E07B68002B03D1384B9847002362
S214403B505CE07B6B002B06D107F114031846344B10
S214403B60984701237B63314B9847324B98472A4B03
S214403B7098473B6B93F844305BB2B3F1FF3F03D1B9
S214403B803B6B002283F844203B6B93F845305BB296
S214403B90B3F1FF3F03D13B6B002283F84520234B14
S214403BA098473A1D07F1140311461846224B98478A
S214403BB00346002B24D1386B204B98470346002BF6
S214403BC018D03B6B10337A68114618461C4B984702
S214403BD0386B1C4B98471C4B98470346002B7FF48A
S214403BE068AF104B4FF080521A60BFF34F8FBFF351
S214403BF06F8F5EE7386B134B9847134B984758E7E1
S214403C00386B104B9847104B984700231846383768
S214403C10BD4680BDE54F40002D354000AD3F4000DD
S214403C209142400004ED00E0254C400091354000B4
S214403C30C54D400015474000F14D4000E141400071
S214403C40ED4A4000D94040003147400080B58EB034
S214403C5000AFF860B9607A603B60FB683B633B6BE3
S214403C60002B0BD14FF0800372B683F31188BFF35D
S214403C706F8FBFF34F8F62B67B62FEE7BB68002B49
S214403C8003D13B6B1B6C002B01D1012300E00023CA
S214403C90002B0BD14FF0800372B683F31188BFF32D
S214403CA06F8FBFF34F8F62B63B62FEE73B68022BD7
S214403CB003D13B6BDB6B012B01D1012300E00023DA
S214403CC0002B0BD14FF0800372B683F31188BFF3FD
S214403CD06F8FBFF34F8F62B6FB61FEE7324B98475C
S214403CE0EFF311824FF0800372B683F31188BFF36F
S214403CF06F8FBFF34F8F62B6BA617B61BB69FB6261
S214403D003B6B9A6B3B6BDB6B9A4202D33B68022B56
S214403D103ED13B6B93F8453087F82B303A68B9680C
S214403D20386B224B984797F92B30B3F1FF3F24D19D
S214403D303B6B9B6C002B0DD03968386B1C4B9847FF
S214403D400346002B21D07B68002B1ED07B680122C7
S214403D501A601AE03B6B5B6A002B16D03B6B243331
S214403D601846144B98470346002B0ED07B68002B12
S214403D700BD07B6801221A6007E097F82B3001339E
S214403D80DBB25AB23B6B83F8452001237B6301E0EC
S214403D9000237B63FB6A3B613B6983F311887B6B43
S214403DA018463837BD4680BDED364000AD3F400032
S214403DB091424000254C400080B58CB000AFF86082
S214403DC0B9607A600023FB62FB68BB62BB6A002B6B
S214403DD00BD14FF0800372B683F31188BFF36F8F19
S214403DE0BFF34F8F62B63B62FEE7BB68002B03D142
S214403DF0BB6A1B6C002B01D1012300E00023002B83
S214403E000BD14FF0800372B683F31188BFF36F8FE8
S214403E10BFF34F8F62B6FB61FEE7574B98470346AA
S214403E20002B02D17B68002B01D1012300E0002348
S214403E30002B0BD14FF0800372B683F31188BFF38B
S214403E406F8FBFF34F8F62B6BB61FEE74B4B984711
S214403E50BB6A9B6B7B627B6A002B1FD0B968B86AD3
S214403E60474B98477B6A5A1EBB6A9A63BB6A1B6974
S214403E70002B0FD0BB6A10331846424B9847034678
S214403E80002B07D0404B4FF080521A60BFF34F8F45
S214403E90BFF36F8F3D4B9847012369E07B68002B4B
S214403EA003D13A4B9847002362E0FB6A002B06D1C9
S214403EB007F110031846364B98470123FB62334BF5
S214403EC09847344B98472D4B9847BB6A93F84430F5
S214403ED05BB2B3F1FF3F03D1BB6A002283F84420B4
S214403EE0BB6A93F845305BB2B3F1FF3F03D1BB6A80
S214403EF0002283F84520254B98473A1D07F11003CA
S214403F0011461846244B98470346002B23D1B86ADF
S214403F10224B98470346002B17D0BB6A24337A6857
S214403F20114618461E4B9847B86A1E4B98471E4B7C
S214403F3098470346002B89D1134B4FF080521A60A6
S214403F40BFF34F8FBFF36F8F80E7B86A154B984724
S214403F50154B98477AE7B86A124B9847124B9847E2
S214403F60B86A0E4B98470346002B3FF46FAF0023CA
S214403F7018463037BD4680BDE54F40002D354000E1
S214403F8089404000254C400004ED00E0913540005B
S214403F90C54D400015474000F14D4000AD41400042
S214403FA0ED4A4000D94040003147400080B586B0D9
S214403FB000AFF860B9607A6000237B61FB689B6B5A
S214403FC03B61FB681B6C002B0DD1FB681B68002B0C
S214403FD04DD1FB685B681846294B98477861FB686B
S214403FE000225A6043E07B68002B19D1FB68986832
S214403FF0FB681B6C1A46B968224B9847FB689A6860
S214404000FB681B6C1A44FB689A60FB689A68FB68FE
S2144040105B689A422BD3FB681A68FB689A6026E076
S214404020FB68D868FB681B6C1A46B968154B9847FE
S214404030FB68DA68FB681B6C5B421A44FB68DA6014
S214404040FB68DA68FB681B689A4207D2FB685A68C6
S214404050FB681B6C5B421A44FB68DA607B68022B89
S21440406005D13B69002B02D03B69013B3B613B6974
S2144040705A1CFB689A637B6918461837BD4680BD54
S214404080215040004958400080B582B000AF78606B
S21440409039607B681B6C002B18D07B68DA687B68BD
S2144040A01B6C1A447B68DA607B68DA687B685B68FE
S2144040B09A4203D37B681A687B68DA607B68D96863
S2144040C07B681B6C1A463868024B984700BF083717
S2144040D0BD4680BD4958400080B584B000AF78608A
S2144040E02D4B98477B6893F84530FB731FE07B6801
S2144040F09B6C002B09D000217868284B98470346D4
S214404100002B10D0264B98470DE07B685B6A002B4F
S21440411012D07B6824331846224B98470346002B20
S21440412001D01F4B9847FB7B013BDBB2FB7397F9F3
S2144041300F30002BDBDC00E000BF7B68FF2283F8FB
S2144041404520194B9847144B98477B6893F8443062
S214404150BB7311E07B681B69002B12D07B68103361
S2144041601846104B98470346002B01D00C4B9847F7
S214404170BB7B013BDBB2BB7397F90E30002BE9DC0F
S21440418000E000BF7B68FF2283F84420064B984738
S21440419000BF1037BD4680BD2D35400091424000DF
S2144041A0C54E4000254C40009135400080B584B057
S2144041B000AF7860084B98477B689B6B002B02D11A
S2144041C00123FB6001E00023FB60044B9847FB683B
S2144041D018461037BD4680BD2D354000913540000D
S2144041E080B584B000AF7860094B98477B689A6B7F
S2144041F07B68DB6B9A4202D10123FB6001E000231F
S214404200FB60044B9847FB6818461037BD4680BD98
S2144042102D3540009135400080B586B000AFF8603F
S214404220B9607A60FB687B61154B98477B6993F869
S21440423044305BB2B3F1FF3F03D17B69002283F881
S21440424044207B6993F845305BB2B3F1FF3F03D11E
S2144042507B69002283F845200A4B98477B699B6B15
S214404260002B06D17B6924337A68B9681846064B1A
S21440427098477869054B984700BF1837BD4680BDBC
S2144042802D35400091354000C54B4000D940400098
S21440429080B588B000AF786039607B689B6CBB6146
S2144042A00023FB61BB69002B0BD14FF0800372B635
S2144042B083F31188BFF36F8FBFF34F8F62B63B61B6
S2144042C0FEE7BB699A6BBB69DB6B9A420BD34FF038
S2144042D0800372B683F31188BFF36F8FBFF34F8F9F
S2144042E062B6FB60FEE7BB699A6BBB69DB6B9A42C2
S2144042F025D2BB6993F84530FB753B1D3A68194695
S214404300B869114B9847F86197F91730B3F1FF3FFA
S2144043100ED1BB695B6A002B11D0BB6924331846AB
S2144043200A4B98470346002B09D00123FB6106E061
S214404330FB7D0133DBB25AB2BB6983F84520FB698B
S21440434018462037BD4680BDAD3F4000254C400056
S21440435090B58DB004AFF860B9603B601346FB8003
S214404360FB889B0018461B4B984778617B69002B5F
S2144043700ED05420174B9847F861FB69002B03D0AA
S214404380FB697A691A6305E07869134B984701E040
S2144043900023FB61FB69002B13D0FA8800230393AC
S2144043A0FB6902937B6B01933B6B00933B68B96858
S2144043B0F8680A4CA047F869094B98470123BB6147
S2144043C002E04FF0FF33BB61BB6918462437BD4659
S2144043D090BD00BF7137400005384000E5434000BF
S2144043E00145400080B588B000AFF860B9607A609B
S2144043F03B603B6B186B7B689B001A46A5213D4B88
S21440440098473B6B1A6B79686FF040430B449B00B0
S2144044101344BB61BB6923F00703BB61BB6903F070
S2144044200703002B0BD04FF0800372B683F311883E
S214404430BFF36F8FBFF34F8F62B67B61FEE70023FB
S214404440FB6112E0BA68FB69134419783A6BFB6962
S214404450134434330A461A70BA68FB6913441B780F
S214404460002B06D0FB690133FB61FB69072BE9D9BA
S21440447000E000BF3B6B002283F83B20BB6A042B66
S21440448001D90423BB623B6BBA6ADA623B6BBA6AF9
S2144044905A643B6B00229A643B6B04331846164BB7
S2144044A098473B6B18331846134B98473B6B3A6B11
S2144044B01A61BB6AC3F105023B6B9A613B6B3A6B70
S2144044C05A623B6B0022DA643B6B002283F8502032
S2144044D03A68F968B869094B984702463B6B1A60D8
S2144044E0FB6A002B02D0FB6A3A6B1A6000BF20378B
S2144044F0BD4680BD5F584000D93140000133400082
S21440450080B582B000AF78602E4B98472E4B1B6824
S21440451001332D4A13602D4B1B68002B09D12B4AC3
S2144045207B681360284B1B68012B10D1284B98479B
S2144045300DE0284B1B68002B09D1244B1B68DA6A18
S2144045407B68DB6A9A4202D8204A7B681360224B1B
S2144045501B680133204A13601F4B1A687B68DA6376
S2144045607B68DA6A1D4B1B689A4203D97B68DB6A14
S2144045701A4A13607B68DA6A13469B0013449B0012
S214404580174A1A447B68043319461046154B984719
S214404590154B98470F4B1B68002B0ED00B4B1B68D8
S2144045A0DA6A7B68DB6A9A4207D2104B4FF0805239
S2144045B01A60BFF34F8FBFF36F8F00BF0837BD46FB
S2144045C080BD00BF2D354000A00A4020E0094020B5
S2144045D0114F4000AC0A4020BC0A4020A80A4020A8
S2144045E0E4094020F33140009135400004ED00E0FE
S2144045F080B584B000AF78600023FB607B68002BFA
S21440460018D0144B1B68002B0BD04FF0800372B6AB
S21440461083F31188BFF36F8FBFF34F8F62B6BB60D3
S214404620FEE70D4B9847002178680C4B98470C4B9B
S2144046309847F860FB68002B07D10A4B4FF0805232
S2144046401A60BFF34F8FBFF36F8F00BF1037BD4662
S21440465080BD00BFC80A4020154740003951400081
S2144046603147400004ED00E090B587B002AF204BE4
S214404670019300230093002340221E491E481F4CEE
S214404680A047F860FB68012B02D11D4B9847F860A5
S214404690FB68012B17D14FF0800372B683F3118865
S2144046A0BFF36F8FBFF34F8F62B6BB60154B4FF0B3
S2144046B0FF321A60144B01221A60144B00221A6013
S2144046C0134B98470FE0FB68B3F1FF3F0BD14FF019
S2144046D0800372B683F31188BFF36F8FBFF34F8F9B
S2144046E062B67B60FEE700BF1437BD4690BD00BF94
S2144046F0C40A4020085B4000DD4E40005143400065
S214404700ED514000C00A4020AC0A4020A40A402098
S2144047102134400080B400AF044B1B680133034A89
S214404720136000BFBD465DF8047B7047C80A402052
S21440473080B584B000AF0023FB600023BB60424BD3
S2144047401B68002B0BD14FF0800372B683F31188A1
S214404750BFF36F8FBFF34F8F62B63B60FEE73B4BB6
S2144047609847394B1B68013B374A1360364B1B68EA
S214404770002B62D1364B1B68002B5ED02FE0354BAA
S214404780DB68DB68FB60FB6818331846324B98479B
S214404790FB6804331846304B9847FB68DA6A2F4B61
S2144047A01B689A4203D9FB68DB6A2C4A1360FB6895
S2144047B0DA6A13469B0013449B00294A1A44FB6856
S2144047C0043319461046274B9847FB68DA6A264B4F
S2144047D01B68DB6A9A4202D3244B01221A601D4BA7
S2144047E01B68002BCBD1FB68002B01D0204B984791
S2144047F0204B1B687B607B68002B10D01E4B984775
S2144048000346002B02D0194B01221A607B68013BFD
S2144048107B607B68002BF1D1164B00221A60134B4D
S2144048201B68002B09D00123BB60144B4FF080520D
S2144048301A60BFF34F8FBFF36F8F114B9847BB681B
S21440484018461037BD4680BDC80A40202D3540006A
S214404850A00A4020780A4020AD324000A80A4020F6
S214404860E4094020F3314000E0094020B40A4020EB
S214404870994F4000B00A4020A548400004ED00E0B3
S2144048809135400080B483B000AF054B1B687B6019
S2144048907B6818460C37BD465DF8047B704700BF02
S2144048A0A40A402080B586B000AF00237B61524BFF
S2144048B01B68002B40F08F80504B1B6801333B61D8
S2144048C04E4A3B6913603B69002B21D14C4B1B6819
S2144048D01B68002B0BD04FF0800372B683F3118811
S2144048E0BFF36F8FBFF34F8F62B63B60FEE7444B1C
S2144048F01B68FB60434B1B68414A1360414AFB6898
S2144049001360414B1B6801333F4A13603F4B984747
S2144049103F4B1B683A699A424ED3394B1B681B681B
S214404920002B01D1012300E00023002B04D0384B9C
S2144049304FF0FF321A603FE0314B1B68DB68DB68A4
S214404940BB60BB685B687B603A697B689A4203D20F
S2144049502F4A7B6813602FE0BB68043318462D4B04
S2144049609847BB689B6A002B04D0BB681833184630
S214404970284B9847BB68DA6A274B1B689A4203D98C
S214404980BB68DB6A244A1360BB68DA6A13469B003E
S21440499013449B00214A1A44BB6804331946104608
S2144049A01F4B9847BB68DA6A1E4B1B68DB6A9A4205
S2144049B0B3D301237B61B0E71A4B1B68DA6A174909
S2144049C013469B0013449B000B441B68012B07D9DE
S2144049D001237B6104E0144B1B680133124A1360C9
S2144049E0124B1B68002B01D001237B617B69184664
S2144049F01837BD4680BD00BFC80A4020A40A4020E4
S214404A00700A4020740A4020B80A4020994F40005F
S214404A10C00A4020AD324000A80A4020E4094020A9
S214404A20F3314000E0094020B00A4020B40A40205C
S214404A3080B485B000AF284B1B68002B03D0274BB3
S214404A4001221A6042E0254B00221A60244B1B6864
S214404A50FB6011E0FB68002B0BD14FF0800372B671
S214404A6083F31188BFF36F8FBFF34F8F62B67B60BF
S214404A70FEE7FB68013BFB601A49FA6813469B0059
S214404A8013449B000B441B68002BE3D0FA68134684
S214404A909B0013449B00134A1344BB60BB685B688F
S214404AA05A68BB685A60BB685A68BB6808339A4203
S214404AB004D1BB685B685A68BB685A60BB685B6871
S214404AC0DB68094A1360064AFB68136000BF143768
S214404AD0BD465DF8047B7047C80A4020B40A4020B3
S214404AE0A80A4020E4094020E009402080B584B070
S214404AF000AF786039607B68002B0BD14FF08003A5
S214404B0072B683F31188BFF36F8FBFF34F8F62B6D1
S214404B10FB60FEE7074B1B68183319467868064B60
S214404B20984701213868054B984700BF1037BD4667
S214404B3080BD00BFE00940203B3240003951400074
S214404B4080B586B000AFF860B9607A60FB68002B2D
S214404B500BD14FF0800372B683F31188BFF36F8F8B
S214404B60BFF34F8F62B67B61FEE7124B1B68002B8C
S214404B700BD14FF0800372B683F31188BFF36F8F6B
S214404B80BFF34F8F62B63B61FEE70B4B1B68BA68BC
S214404B9042F000429A61084B1B6818331946F86881
S214404BA0064B984701217868054B984700BF183751
S214404BB0BD4680BDC80A4020E0094020F331400091
S214404BC03951400080B586B000AFF860B9607A6071
S214404BD0FB68002B0BD14FF0800372B683F311882D
S214404BE0BFF36F8FBFF34F8F62B67B61FEE70A4B12
S214404BF01B6818331946F868084B98477B68002BA3
S214404C0002D04FF0FF33BB607968B868044B9847D2
S214404C1000BF1837BD4680BDE0094020F331400054
S214404C203951400080B586B000AF78607B68DB685D
S214404C30DB683B613B69002B0BD14FF0800372B6BB
S214404C4083F31188BFF36F8FBFF34F8F62B6FB605D
S214404C50FEE73B69183318461E4B98471E4B1B68A9
S214404C60002B1DD13B69043318461A4B98473B69C5
S214404C70DA6A1A4B1B689A4203D93B69DB6A174AC1
S214404C8013603B69DA6A13469B0013449B00144A40
S214404C901A443B69043319461046124B984705E0C0
S214404CA03B691833194610480E4B98473B69DA6AF9
S214404CB00E4B1B68DB6A9A4205D901237B610C4B7D
S214404CC001221A6001E000237B617B691846183791
S214404CD0BD4680BDAD324000C80A4020A80A4020EC
S214404CE0E4094020F3314000780A4020E0094020A3
S214404CF0B40A402080B586B000AF786039602A4B51
S214404D001B68002B0BD14FF0800372B683F31188DB
S214404D10BFF36F8FBFF34F8F62B63B61FEE73B68D2
S214404D2043F000427B681A607B68DB687B617B6986
S214404D30002B0BD14FF0800372B683F31188BFF37C
S214404D406F8FBFF34F8F62B6FB60FEE77868174BF6
S214404D5098477B6904331846144B98477B69DA6A50
S214404D60134B1B689A4203D97B69DB6A104A13606F
S214404D707B69DA6A13469B0013449B000D4A1A442B
S214404D807B690433194610460B4B98477B69DA6AB1
S214404D900A4B1B68DB6A9A4202D9094B01221A6009
S214404DA000BF1837BD4680BDC80A4020AD3240001F
S214404DB0A80A4020E4094020F3314000E0094020A2
S214404DC0B40A402080B483B000AF7860064B1A68BF
S214404DD07B681A60054B1A687B685A6000BF0C37C0
S214404DE0BD465DF8047B7047B80A4020A40A4020C0
S214404DF080B588B000AF786039607B68002B0BD1F7
S214404E004FF0800372B683F31188BFF36F8FBFF302
S214404E104F8F62B63B61FEE73B68002B0BD14FF0ED
S214404E20800372B683F31188BFF36F8FBFF34F8F43
S214404E3062B6FB60FEE71E4B98471E4B1B68BB6185
S214404E407B685B68BA69D31A7B613B681B68B3F1C1
S214404E50FF3F02D10023FB6123E07B681A68164BB4
S214404E601B689A4207D07B685A68BB699A4202D848
S214404E700123FB6115E03B681A687B699A420BD9AF
S214404E803B681A687B69D21A3B681A6078680B4B95
S214404E9098470023FB6104E03B6800221A60012328
S214404EA0FB61074B9847FB6918462037BD4680BDD7
S214404EB02D354000A40A4020B80A4020C54D400089
S214404EC09135400080B400AF034B01221A6000BF0A
S214404ED0BD465DF8047B7047B40A402080B582B07A
S214404EE000AF7860074B9847074B1B68012BF9D9F2
S214404EF0064B4FF080521A60BFF34F8FBFF36F8F51
S214404F00F0E700BF894F4000E409402004ED00E090
S214404F1080B582B000AF00237B600CE07A68134611
S214404F209B0013449B00104A134418460F4B984767
S214404F307B6801337B607B68042BEFD90C480B4BB6
S214404F4098470C48094B98470B48084B98470B48DE
S214404F50064B98470A4B064A1A600A4B054A1A609F
S214404F6000BF0837BD4680BDE40940209931400067
S214404F70480A40205C0A4020780A40208C0A40209C
S214404F80700A4020740A402080B400AF00BFBD467F
S214404F905DF8047B7047000080B483B000AF0F4BD1
S214404FA01B681B68002B01D1012300E00023002B67
S214404FB004D00B4B4FF0FF321A6008E0074B1B68DB
S214404FC0DB68DB687B607B685B68054A136000BF14
S214404FD00C37BD465DF8047B704700BF700A402022
S214404FE0C00A402080B483B000AF0B4B1B68002B38
S214404FF002D101237B6008E0084B1B68002B02D1DE
S21440500002237B6001E000237B607B6818460C37F8
S214405010BD465DF8047B7047AC0A4020C80A402075
S21440502080B586B000AF78607B683B6100237B61CB
S2144050307B68002B58D02F4B1B683A699A420BD09E
S2144050404FF0800372B683F31188BFF36F8FBFF3C0
S2144050504F8F62B6FB60FEE73B699B6C002B0BD123
S2144050604FF0800372B683F31188BFF36F8FBFF3A0
S2144050704F8F62B6BB60FEE73B699B6C5A1E3B692E
S2144050809A643B69DA6A3B695B6C9A422CD03B690E
S2144050909B6C002B28D13B6904331846164B984727
S2144050A03B695A6C3B69DA623B69DB6AC3F10502CD
S2144050B03B699A613B69DA6A104B1B689A4203D98E
S2144050C03B69DB6A0D4A13603B69DA6A13469B000C
S2144050D013449B000A4A1A443B6904331946104657
S2144050E0084B984701237B617B6918461837BD46B5
S2144050F080BD00BFE0094020AD324000A80A4020F5
S214405100E4094020F331400080B483B000AF094B3F
S2144051101B689B697B60074B1B68064A1268D26A0D
S214405120C2F105029A617B6818460C37BD465DF8A9
S214405130047B7047E009402080B584B000AF7860BB
S2144051403960214B1B68FB60204B1B6804331846B4
S2144051501F4B98477B68B3F1FF3F0AD13B68002B53
S21440516007D01A4B1B68043319461A481A4B9847FF
S21440517026E0FA687B681344BB60144B1B68BA6829
S2144051805A60BA68FB689A4209D2144B1A680F4BA9
S2144051901B68043319461046114B984710E0114BD4
S2144051A01A680A4B1B680433194610460C4B98473E
S2144051B00D4B1B68BA689A4202D20B4ABB68136012
S2144051C000BF1037BD4680BDA40A4020E0094020FD
S2144051D0AD3240008C0A4020F3314000740A402033
S2144051E03B324000700A4020C00A402090B585B04F
S2144051F002AF00237B60124B9847124B1B68002B74
S2144052000AD0114B019302230093002340220F49FA
S2144052100F48104CA04778607B68002B0BD14FF0AE
S214405220800372B683F31188BFF36F8FBFF34F8F3F
S21440523062B63B60FEE77B6818460C37BD4690BDBD
S2144052409D574000FC0A4020000B4020205B400059
S214405250915340005143400090B58BB000AFF8608A
S214405260B9607A603B6000237B62FB68002B0BD101
S2144052704FF0800372B683F31188BFF36F8FBFF38E
S2144052804F8F62B63B62FEE7194B1B68002B2AD055
S214405290BB687B617B68BB61FB68FB61BB68052BB9
S2144052A018DC144B98470346022B09D1104B18685C
S2144052B007F114010023BA6B0F4CA047786212E046
S2144052C00B4B186807F11401002300220A4CA04734
S2144052D0786208E0064B186807F1140100233A6824
S2144052E0064CA04778627B6A18462C37BD4690BD70
S2144052F0FC0A4020E54F4000ED3940004D3C400060
S21440530090B589B002AF786039601D4B1B68DB688A
S214405310DB687B617B69043318461A4B98477B6988
S214405320DB69012B23D17B699A697B68D1187B683E
S2144053303A687869144CA0470346002B17D00023E0
S214405340009300237A6800217869104CA0473861A2
S2144053503B69002B0BD14FF0800372B683F3118864
S214405360BFF36F8FBFF34F8F62B6FB60FEE77B697C
S2144053705B6A7869984700BF1C37BD4690BD00BF42
S214405380F40A4020AD3240000155400059524000DA
S21440539080B584B000AF786007F108031846054B27
S2144053A09847F860BB681946F868034B9847034B24
S2144053B09847F1E771544000C1534000895540007A
S2144053C080B584B000AF78603960214B984707F1CC
S2144053D0080318461F4B9847F860BB68002B30D12F
S2144053E03B68002B0AD17A68FB689A4206D81A4B6B
S2144053F09847F9687868194B984724E03B68002B33
S21440540008D0174B1B681B68002B0CBF01230023DA
S214405410DBB23B60134B18687A68FB68D31A3A686D
S2144054201946114B98470C4B98470346002B0AD118
S2144054300E4B4FF080521A60BFF34F8FBFF36F8F03
S21440544001E0054B984700BF1037BD4680BD00BF02
S21440545015474000B95440003147400001534000D2
S214405460F80A4020FC0A40201942400004ED00E0C3
S21440547080B485B000AF78600E4B1B681B68002B6D
S2144054800CBF01230023DBB21A467B681A607B6898
S2144054901B68002B05D1074B1B68DB681B68FB604D
S2144054A001E00023FB60FB6818461437BD465DF8F4
S2144054B0047B7047F40A402080B584B000AF786023
S2144054C00C4B9847F8600C4B1B68FA689A4205D21A
S2144054D00A4B98477B6801221A6002E07B680022EC
S2144054E01A60054AFB681360FB6818461037BD46CD
S2144054F080BD00BF85484000040B4020CD5640008C
S21440550080B586B000AFF860B9607A603B60002333
S2144055107B61FB68BA685A60FB68FA681A61BA68C9
S2144055207B689A4212D87A683B68D21AFB689B69B5
S2144055309A4202D301237B611BE0104B1A68FB683A
S2144055400433194610460E4B984712E07A683B687B
S2144055509A4206D2BA683B689A4202D301237B61DC
S21440556007E0084B1A68FB68043319461046044B9C
S21440557098477B6918461837BD4680BDF80A4020D4
S2144055803B324000F40A402090B58DB002AF7EE03A
S214405590BB68002B7BDB3B697B627B6A5B69002BCD
S2144055A004D07B6A04331846414B98473B1D184647
S2144055B0404B98473862BB68092B67D801A252F81F
S2144055C023F000BFED554000ED554000ED5540003E
S2144055D08F5640004B56400085564000ED554000E3
S2144055E0ED5540008F5640004B564000FA687B6AA7
S2144055F09B69D118FB683A6A786A2F4CA0470346E5
S214405600002B44D07B6A5B6A786A98477B6ADB6982
S214405610012B3CD1FA687B6A9B691A4400230093AD
S21440562000230021786A254CA047F861FB69002BCF
S2144056302DD14FF0800372B683F31188BFF36F8F7E
S214405640BFF34F8F62B6BB61FEE7FA687B6A9A612A
S2144056507B6A9B69002B0BD14FF0800372B683F3B5
S2144056601188BFF36F8FBFF34F8F62B67B61FEE743
S2144056707B6A9A693B6AD1183B6A3A6A786A0E4CEA
S214405680A04704E0786A0E4B984700E000BF0D4BF9
S2144056901B6807F10801002218460B4B9847034643
S2144056A0002B7FF475AF00BF2C37BD4690BD00BFC2
S2144056B0AD324000B95440000155400059524000B8
S2144056C005384000FC0A4020B93D400090B589B0FE
S2144056D002AF46E02C4B1B68DB681B687B612A4B9D
S2144056E01B68DB68DB683B613B6904331846274B25
S2144056F098473B695B6A386998473B69DB69012B89
S2144057002FD13B699A697B691344FB60FA687B69D1
S2144057109A420ED93B69FA685A603B693A691A61FF
S214405720194B1A683B69043319461046184B98477C
S21440573017E00023009300237A6900213869154C4E
S214405740A047B860BB68002B0BD14FF0800372B601
S21440575083F31188BFF36F8FBFF34F8F62B63B6002
S214405760FEE7094B1B681B68002BB3D1064B1B6832
S2144057707B60094B1B68044A1360074A7B681360CA
S21440578000BF1C37BD4690BDF40A4020AD324000F5
S2144057903B32400059524000F80A402080B500AFE6
S2144057A00E4B98470E4B1B68002B13D10D480E4BE3
S2144057B098470E480C4B98470D4B0A4A1A600D4BBB
S2144057C00A4A1A6000220C2102200B4B98470246D8
S2144057D0034B1A60094B984700BF80BD2D354000EB
S2144057E0FC0A4020CC0A402099314000E00A402084
S2144057F0F40A4020F80A40201D3940009135400008
S21440580070B50D4E0D4CA41BA4100025A54209D121
S2144058100B4E0C4C00F088F9A41BA4100025A542A2
S21440582005D170BD56F8253098470135EEE756F855
S214405830253098470135F2E7485B4000485B40001A
S214405840485B4000485B400010B5431E0A44914206
S21440585000D110BD11F8014B03F8014FF7E70244A1
S2144058600346934200D1704703F8011BF9E7000056
S2144058702E2E2F2E2E2F2E2E2F4452495645525323
S2144058802F53414D5637312F68706C2F70696F2FEC
S21440589068706C5F6770696F5F626173652E6800E1
S2144058A02E2E2F2E2E2F2E2E2F44524956455253F3
S2144058B02F53414D5637312F68616C2F696E636C9C
S2144058C07564652F68616C5F7764742E68000000AD
