S00B00004344482E737265634A
S214400000C00C4020E5014000690240006902400003
S214400010690240006902400069024000000000009A
S21440002000000000000000000000000069024000E0
S214400030690240000000000069024000690240007A
S21440004069024000690240006902400069024000BF
S21440005069024000690240006902400069024000AF
S214400060690240000000000069024000690240004A
S214400070690240006902400069024000690240008F
S214400080690240006902400069024000690240007F
S214400090690240006902400069024000690240006F
S2144000A0690240006902400069024000690240005F
S2144000B0690240006902400069024000690240004F
S2144000C0690240006902400069024000690240003F
S2144000D0690240006902400069024000690240002F
S2144000E0690240006902400069024000690240001F
S2144000F0690240006902400069024000690240000F
S21440010069024000690240006902400069024000FE
S2144001106902400069024000000000000000000044
S21440012069024000690240006902400069024000DE
S21440013069024000690240006902400069024000CE
S21440014069024000690240006902400069024000BE
S21440015069024000690240006902400069024000AE
S214400160690240006902400010B5054C237833B957
S214400170044B13B10448AFF300800123237010BD35
S2144001802400402000000000C82540000C4B43B12E
S2144001900C480D4910B5AFF300800C48036823B9EE
S2144001A010BD0A48036833B97047094B002BF7D097
S2144001B0BDE810401847064B002BF5D0184700BF47
S2144001C000000000C825400028004020C825400008
S2144001D00000000080B500AF014B984700BF80BDCF
S2144001E0850B400080B582B000AF164B7B60164B47
S2144001F03B607A683B689A420CD007E03B681A1D21
S2144002003A607A68111D796012681A603B680F4A36
S2144002109342F3D30E4B3B6004E03B681A1D3A60B2
S21440022000221A603B680B4A9342F6D30A4B7B6027
S2144002300A4A7B6823F07F039360094B9847094B33
S2144002409847FEE7C8254000240040202400402070
S214400250BC004020BC004020C825400000ED00E027
S214400260C9234000210C400080B400AFFEE780B4B4
S21440027083B000AF786039607B68D3F814213B6860
S2144002801A437B68C3F8142100BF0C37BD465DF89F
S214400290047B704780B483B000AF786039607B6879
S2144002A03A681A6000BF0C37BD465DF8047B70475D
S2144002B080B483B000AF786039607B683A685A6033
S2144002C000BF0C37BD465DF8047B704780B483B0F2
S2144002D000AF786039607B683A681A6100BF0C37B7
S2144002E0BD465DF8047B704780B483B000AF78604D
S2144002F039607B683A685A6100BF0C37BD465DF886
S214400300047B704780B483B000AF786039607B6808
S2144003103A681A6300BF0C37BD465DF8047B7047E9
S21440032080B483B000AF786039607B683A685A63BF
S21440033000BF0C37BD465DF8047B704780B483B081
S21440034000AF786039607B683A685A6600BF0C3701
S214400350BD465DF8047B704780B483B000AF7860DC
S21440036039607B683A681A6600BF0C37BD465DF850
S214400370047B704780B483B000AF786039607B6898
S2144003803A68C3F8942000BF0C37BD465DF8047B3E
S214400390704780B483B000AF786039607B683A6855
S2144003A0C3F8902000BF0C37BD465DF8047B70470D
S2144003B080B485B000AFF8600B467A60FB72FA7A7C
S2144003C0F97AFB681C3153F821107B681943FB68A7
S2144003D01C3243F8221000BF1437BD465DF8047B3C
S2144003E0704780B485B000AFF8600B467A60FB7209
S2144003F0FA7AF97AFB681C3153F821107B68DB43A4
S2144004001940FB681C3243F8221000BF1437BD4623
S2144004105DF8047B704780B483B000AF7860396085
S2144004207B683A681A6100BF0C37BD465DF8047BAE
S214400430704780B485B000AF786039607B689B6950
S214400440FB60FA683B681340FB60FB68184614374D
S214400450BD465DF8047B704780B483B000AF7860DB
S21440046039607B683A68C3F8002100BF0C37BD4648
S2144004705DF8047B704780B485B000AF7860396023
S2144004807B68D3F80831FB60FA683B681340FB6032
S214400490FB6818461437BD465DF8047B704780B449
S2144004A083B000AF786039607B683A68C3F80C2147
S2144004B000BF0C37BD465DF8047B704780B483B000
S2144004C000AF78607B68D3F80C3118460C37BD46D1
S2144004D05DF8047B704780B483B000AF78607B687B
S2144004E05B6843F400427B685A6000BF0C37BD46E9
S2144004F05DF8047B7047000080B483B000AF0346CD
S214400500FB71FB795B021A46034B134418460C37C3
S214400510BD465DF8047B7047000E0E4080B584B043
S21440052000AF03463960FB711346BB71FB79184632
S2144005300E4B9847F860BB79002B0EDB012B02DD93
S214400540022B05D009E03968F868094B984709E05E
S2144005503968F868074B984704E04122064900206E
S214400560064B984700BF1037BD4680BDF904400093
S214400570E9024000CD024000102440001511400022
S21440058080B584B000AF03463960FB711346BB713B
S214400590FB791846094B9847F860BB79002B04D086
S2144005A03968F868064B984703E03968F868054BA1
S2144005B0984700BF1037BD4680BD00BFF9044000D5
S2144005C0050340002103400080B584B000AF0346D9
S2144005D0FB710B46BB7113467B71FB791846234B68
S2144005E09847F8607B79012B14D0022B23D0002B40
S2144005F032D1BB79012202FA03F31946F8681C4B44
S2144006009847BB79012202FA03F31946F868194B5A
S214400610984727E0BB79012202FA03F31946F868A7
S214400620144B9847BB79012202FA03F31946F8683F
S214400630114B984716E0BB79012202FA03F319469C
S214400640F8680B4B9847BB79012202FA03F3194628
S214400650F8680A4B984705E0832209490020094B71
S214400660984700BF00BF1037BD4680BDF904400024
S21440067059034000930340003D034000750340008B
S214400680102440001511400080B584B000AF78605B
S21440069039607B685B09FB737B68DBB203F01F0342
S2144006A0BB73FB7B1846334B9847B860FB7B012BEC
S2144006B016D1BB7B042B0BD0BB7B052B08D0BB7B5A
S2144006C0062B05D0BB7B072B02D0BB7B0C2B07D160
S2144006D0BB7B012202FA03F319462748274B98476B
S2144006E03B68B3F1FF3F08D1BB7B012202FA03F31C
S2144006F01946B868224B984737E03B6803F0010339
S214400700002B09D0BB7B012202FA03F31A460021D4
S214400710B8681C4B984708E0BB7B012202FA03F3FB
S2144007201A460021B868184B98473B6803F0020306
S214400730002B09D0BB7B012202FA03F31A460121A3
S214400740B868104B984708E0BB7B012202FA03F3D7
S2144007501A460121B8680C4B9847BB7B012202FA27
S21440076003F31946B868094B984700BF1037BD4693
S21440077080BD00BFF9044000008008406F02400082
S21440078095024000B1034000E3034000B102400040
S21440079080B582B000AF03460A46FB711346BB7174
S2144007A0FB795B09D8B2FB7903F01F03DBB2BA7959
S2144007B01946034B984700BF0837BD4680BD00BF6B
S2144007C0C905400080B582B000AF786039603968AE
S2144007D07868034B984700BF0837BD4680BD00BFCA
S2144007E08906400080B582B000AF03460A46FB71DA
S2144007F01346BB71FB795B09D8B2FB7903F01F0344
S214400800012202FA03F3BA791946034B984700BF10
S2144008100837BD4680BD00BF1D05400080B582B08C
S21440082000AF03460A46FB711346BB71FB795B0972
S214400830D8B2FB7903F01F03012202FA03F3BA7918
S2144008401946034B984700BF0837BD4680BD00BFDA
S2144008508105400080B500AF014B984700BF80BD82
S214400860B911400080B584B000AF78607B681F2B1C
S21440087013D801227B6802FA03F319461F48204B1F
S21440088098470346002B35D101227B6802FA03F3D2
S21440089019461A481B4B98472CE07B683F2B16D8C6
S2144008A07B68203B7B6001227B6802FA03F3194693
S2144008B01248154B98470346002B1BD101227B68F4
S2144008C002FA03F319460D48104B984712E07B682E
S2144008D003F07F03194609480D4B984707480D4BD0
S2144008E09847F860FB6843F01023FB60F9680348BC
S2144008F0074B984700BF1037BD4680BD00060E40E8
S2144009003304400017044000770440005904400078
S2144009109F044000BD04400080B500AF0121742014
S214400920054B984701217520034B984701217620B7
S214400930014B984700BF80BDC507400080B500AF5B
S2144009401520024B984700BF80BD00BF6508400099
S21440095080B500AF084B9847084B98470346194662
S2144009600748084B984708490548084B9847084B9E
S214400970984700BF80BD00BF3D094000D5194000E4
S2144009804C0040207D0D400000800040B50D4000EA
S2144009901909400080B500AF00210420034B98475A
S2144009A000210320014B984700BF80BDC50740008B
S2144009B080B500AF1320024B984700BF80BD00BFF4
S2144009C06508400080B500AF044B98470449054889
S2144009D0054B9847054B984700BF80BDB10940007E
S2144009E000800140640040201D0D400095094000F5
S2144009F080B500AF02217C20034B984702217B2024
S214400A00014B984700BF80BDC507400080B500AF8A
S214400A102920024B984700BF80BD00BF65084000B4
S214400A2080B500AF044B984704490548054B9847A6
S214400A30054B984700BF80BD0D0A400000000640A9
S214400A409C0040201D0D4000F109400080B500AFDD
S214400A5000210920034B984700210A20014B984764
S214400A6000BF80BDC507400080B500AF0720024BE1
S214400A70984700BF80BD00BF6508400080B500AF06
S214400A80064B9847064B984703461A46054906487C
S214400A90064B9847064B984700BF80BD690A400002
S214400AA09522400000080E4090004020490F40002C
S214400AB04D0A400080B500AF02210520034B984701
S214400AC002210620014B984700BF80BDC507400065
S214400AD080B500AF0820024B984700BF80BD00BFDE
S214400AE06508400080B500AF064B9847064B9847D0
S214400AF003461A4605490648064B9847064B98470C
S214400B0000BF80BDD10A400095224000000A0E403A
S214400B1084004020490F4000B50A400080B500AF31
S214400B2002217920034B984702217A20014B9847AF
S214400B3000BF80BDC507400080B500AF2C20024BEB
S214400B40984700BF80BD00BF6508400080B500AF35
S214400B50064B9847064B984703461A4605490648AB
S214400B60064B9847064B984700BF80BD390B400060
S214400B7095224000001A0E4040004020490F400099
S214400B801D0B400080B500AF174B98470C20174B05
S214400B9098471748174B984700214F20164B9847C1
S214400BA002214F20154B98474FF0FF314F20144BF2
S214400BB0984701215620114B984700215620114B4B
S214400BC098474FF0FF3156200D4B98470E4B9847AD
S214400BD00E4B98470E4B98470E4B98470E4B9847F0
S214400BE00E4B984700BF80BD550840006508400042
S214400BF050180E40D70440001D084000E50740004E
S214400C00C50740009107400051094000C509400013
S214400C10210A40007D0A4000E50A40004D0B400096
S214400C2080B500AF014B9847FEE700BFD5014000B6
S214400C3080B485B000AF7860EFF31083FB60FA684D
S214400C407B681A6072B6BFF35F8F00BF1437BD462D
S214400C505DF8047B704780B485B000AF7860BFF322
S214400C605F8F7B681B68FB60FB6883F3108800BF60
S214400C701437BD465DF8047B7047000080B58AB0E7
S214400C8000AFF860B9601346FB80FB68143B7B629C
S214400C907B6A9B8BBB82FB88BB6148F20103FB826D
S214400CA0BB68FB617B6A07F1140211461846064B87
S214400CB0984738623B6A002B01D03B6A00E0FB88CD
S214400CC018462837BD4680BD451C400080B58AB0D2
S214400CD000AFF860B9601346FB80FB68143B7B624C
S214400CE07B6A9B8BBB82FB88BB614FF40043FB82D5
S214400CF0BB68FB617B6A07F1140211461846064B37
S214400D00984738623B6A002B01D03B6A00E0FB887C
S214400D1018462837BD4680BD451C400080B584B087
S214400D2000AF786039607B68002B14BF0123002336
S214400D30DBB25E220C4918460C4B98477B683968F4
S214400D4018460B4B9847F860FB68002B01D0FB68B1
S214400D5006E07B68074A9A617B68074A5A61002327
S214400D6018461037BD4680BD40244000151140004F
S214400D70A11B40007D0C4000CD0C400080B582B0E9
S214400D8000AF786039607B68002B14BF01230023D6
S214400D90DBB2392205491846054B98477B683A68C6
S214400DA01A6000BF0837BD4680BD00BF74244000AF
S214400DB01511400080B584B000AF786039600023DC
S214400DC0FB607B68002B04D03B68002B01D00123DE
S214400DD000E0002303F00103DBB24022104918462E
S214400DE0104B98477B683A685A607B68043339688A
S214400DF018460D4B9847F860FB68002B01DAFB68F5
S214400E000AE07B684FF400429A827B68074A1A6180
S214400E107B68074ADA60002318461037BD4680BD17
S214400E20742440001511400091164000350E4000D5
S214400E308D0E400080B588B000AFF860B9601346AC
S214400E40FB80FB68002B14BF01230023DBB2872204
S214400E500B4918460B4B9847FB680C3BFB61BB683D
S214400E607B6100233B61FB88BB6107F11003194699
S214400E70F869054B9847034618462037BD4680BD5F
S214400E807424400015114000E50E400080B588B03F
S214400E9000AFF860B9601346FB80FB68002B14BFB8
S214400EA001230023DBB2A3220B4918460B4B98477D
S214400EB0FB680C3BFB6100237B61BB683B61FB88A6
S214400EC0BB6107F110031946F869054B984703467E
S214400ED018462037BD4680BD74244000151140009A
S214400EE0E50E400080B586B000AF786039607B681C
S214400EF0002B04D03B68002B01D0012300E00023E8
S214400F0003F00103DBB2B3220C4918460C4B98475A
S214400F103B681B68FB603B685B683B613B689B6863
S214400F207B617B68043307F10C0211461846054B7B
S214400F309847034618461837BD4680BD742440007F
S214400F4015114000D518400080B586B000AFF86057
S214400F50B9607A60FB68002B04D0BB68002B01D0D8
S214400F60012300E0002303F00103DBB234220D49E5
S214400F7018460D4B9847FB680833B96818460B4B24
S214400F80984778617B69002B01D07B6906E0FB6857
S214400F90074A5A60FB68074A1A6000231846183703
S214400FA0BD4680BDA8244000151140006D2040007D
S214400FB081104000B90F400080B586B000AFF860A1
S214400FC0B9601346FB8000237B61FB683B61FB688E
S214400FD0002B07D0BB68002B04D0FB88002B01D029
S214400FE0012300E0002303F00103DBB2F1221F4996
S214400FF018461F4B984700BF3B69083318461D4BA1
S2144010009847034683F00103DBB2002BF4D13B69DB
S21440101003F10800BA687B6913441B781946164BDF
S214401020984700BF3B6908331846124B984703461B
S21440103083F00103DBB2002BF4D17B6901337B6183
S214401040FB887A699A42E2D300BF3B690833184668
S2144010500A4B9847034683F00103DBB2002BF4D1DA
S2144010607B6918461837BD4680BD00BFA82440009F
S2144010701511400051214000C520400091214000FC
S21440108090B587B000AFF860B9601346FB80002388
S2144010907B61FB683B61FB68002B07D0BB68002B7D
S2144010A004D0FB88002B01D0012300E0002303F08E
S2144010B00103DBB24FF4867212491846124B98472A
S2144010C000BF3B6908331846104B9847034683F0E9
S2144010D00103DBB2002BF4D1BA687B69D4183B69B4
S2144010E0083318460A4B9847034623707B690133FA
S2144010F07B61FB887A699A42E2D37B6918461C3743
S214401100BD4690BDA824400015114000D1214000A6
S2144011100D21400080B485B000AF0346B9607A60C8
S214401120FB73FB7B83F00103DBB2002B00D000BED9
S21440113000BF1437BD465DF8047B704780B485B069
S21440114000AF786039607B681B68FB60FB6823F4FF
S2144011507063FB603B681B0203F47063FA681343DA
S214401160FB607B68FA681A6000BF1437BD465DF8BE
S214401170047B704780B582B000AF3B1D18460B4BD2
S21440118098470B4A0A4BD3F8883043F47003C2F8AA
S2144011908830BFF34F8FBFF36F8F3B1D1846054B0C
S2144011A0984700BF0837BD4680BD00BF310C4000A1
S2144011B000ED00E0570C400080B500AF044B984768
S2144011C006210448044B9847044B984700BF80BD0F
S2144011D075114000000C0E403D114000E1144000E7
S2144011E080B483B000AF78607B689B6E03F00103E9
S2144011F0002B14BF01230023DBB218460C37BD4634
S2144012005DF8047B704780B483B000AF78607B683D
S2144012109B6E03F00203002B14BF01230023DBB2B6
S21440122018460C37BD465DF8047B704780B483B0E3
S21440123000AF78607B689B6E03F00803002B14BFFA
S21440124001230023DBB218460C37BD465DF8047B0D
S214401250704780B483B000AF786039607B681A6AA4
S2144012603B681A437B681A6200BF0C37BD465DF880
S214401270047B704780B483B000AF786039607B6889
S2144012803A681A6200BF0C37BD465DF8047B70476B
S21440129080B483B000AF78607B681B6A18460C3712
S2144012A0BD465DF8047B704780B485B000AF78607B
S2144012B039607B689B6AFB60FA68094B1340FB60A9
S2144012C03B681A04074B1340FA681343FB607B687D
S2144012D0FA689A6200BF1437BD465DF8047B7047D3
S2144012E0FFFF00F80000FF0780B483B000AF7860CF
S2144012F039607B683A689A6200BF0C37BD465DF835
S214401300047B704780B485B000AF786039607B68F6
S2144013101B6BFB60FB6823F00303FB603B6803F03A
S2144013200303FA681343FB607B68FA681A6300BFDE
S2144013301437BD465DF8047B704780B485B000AF77
S214401340786039607B681B6BFB60FB6823F070033A
S214401350FB603B681B0103F07003FA681343FB60B5
S2144013607B68FA681A6300BF1437BD465DF8047B95
S214401370704780B485B000AF786039607B681B6B7F
S214401380FB60FB6823F44073FB603B681B0203F47E
S2144013904073FA681343FB607B68FA681A6300BFC1
S2144013A01437BD465DF8047B7047000080B582B0B8
S2144013B000AF00237B601C481C4B9847034623F035
S2144013C002037B607A681A4B13437B607968164841
S2144013D0184B984700BF1448174B9847034683F06E
S2144013E00103DBB2002BF6D114490F48144B984743
S2144013F0144B7B6000210C48134B98477B6843F0A6
S214401400005319460848114B984700BF0648104BF2
S2144014109847034683F00103DBB2002BF6D100BFAA
S2144014200837BD4680BD00BF00060E409112400002
S214401430013E370075124000E111400000003701C0
S21440144053124000013F1800A9124000E912400024
S2144014500712400080B500AF00211548154B98474D
S21440146000BF1348144B9847034683F00103DBB292
S214401470002BF6D101210E48104B984700BF0C4870
S2144014800D4B9847034683F00103DBB2002BF6D1A1
S214401490022107480A4B984700BF0548064B984725
S2144014A0034683F00103DBB2002BF6D100BF80BDBC
S2144014B000060E403B1340002D12400073134000C0
S2144014C00513400080B400AF00BFBD465DF8047B06
S2144014D0704780B400AF00BFBD465DF8047B7047E0
S2144014E080B500AF044B9847044B9847044B984749
S2144014F0044B984700BF80BDAD13400055144000D4
S214401500C5144000D314400080B483B000AF786068
S2144015107B689B689BB218460C37BD465DF8047BDB
S214401520704780B483B000AF78607B681B6903F473
S2144015308033002B14BF01230023DBB218460C3740
S214401540BD465DF8047B704780B485B000AF7860D8
S21440155039607B681B69FB60FA683B681340FB6038
S214401560FB6818461437BD465DF8047B704780B468
S21440157083B000AF78607B681B6918460C37BD4661
S2144015805DF8047B704780B483B000AF7860396004
S2144015907B683A685A6000BF0C37BD465DF8047BEE
S2144015A0704780B485B000AFF8600B467A60FB7237
S2144015B0FA7AFB680C32796843F8221000BF143779
S2144015C0BD465DF8047B704780B483B000AF78605A
S2144015D039607B683A681A6000BF0C37BD465DF8D4
S2144015E0047B704780B483B000AF786039607B6816
S2144015F03A68DA6000BF0C37BD465DF8047B70473A
S21440160080B485B000AF78607A68084B13441B0CF2
S214401610FB73FB7B052B01D1012300E0002318461A
S2144016201437BD465DF8047B704700BF0080FFBF9F
S21440163080B584B000AF78607B681846124B9847F8
S2144016400346BB730023FB7315E0FA7B0F49134632
S2144016509B0013449B000B441B78BA7B9A4207D1ED
S214401660FA7B13469B0013449B00084A134406E04B
S214401670FB7B0133FB73FB7B002BE6D00023184635
S2144016801037BD4680BD00BF01164000DC24400038
S21440169080B584B000AF786039603B6818462A4B06
S2144016A09847F8607B68002B04D03B68002B01D03D
S2144016B0012300E0002303F00103DBB24FF49A72EB
S2144016C022491846224B9847FB68002B02D16FF000
S2144016D00C0335E038681F4B98470346002B02D072
S2144016E06FF010032CE0802138681B4B98477B68CE
S2144016F03A681A60FB685A68184B134019463868AF
S214401700154B9847FB689A68154B1340154A1A4381
S21440171011463868144B9847FB68DB681A46002128
S2144017203868124B9847FB681A8A7B68DA80FB68F1
S214401730DB68DBB223F00F03DAB27B681A71002352
S21440174018461037BD4680BD31164000F024400094
S2144017501511400023154000C91540007CFFFFFED0
S2144017606FFFF1FF10000E0087154000A3154000E4
S21440177080B582B000AF786000BF4FF400717868E3
S214401780044B98470346002BF7D000BF0837BD46AA
S21440179080BD00BF4915400080B584B000AF78607A
S2144017A039607868174B9847034603F00103002BCF
S2144017B001D1002322E07868134B9847F8603B68D5
S2144017C05B68002B14D03B685B68591C3A685160D4
S2144017D0FA68D2B21A703B681B7C012B08D93B686A
S2144017E05B68591C3A685160FA68120AD2B21A709D
S2144017F03B68DB685A1C3B68DA60012318461037A2
S214401800BD4680BD6F1540000915400080B586B0C6
S21440181000AFF860B9601346FB80F8681A4B9847EB
S214401820034603F00203002B01D1002328E0BB68E7
S2144018301B68002B18D0BB681B68591CBA6811601F
S2144018401B787B61BB681B7C012B0FD9BB681B6870
S2144018501B781B021A467B6913437B61BB681B6877
S2144018605A1CBB681A6001E0FB887B61BB689B68BA
S2144018705A1CBB689A607969F868044B98470123FC
S21440188018461837BD4680BD6F154000E515400028
S21440189080B582B000AF786039603B68002B14BFDB
S2144018A001230023DBB240F2222208491846084BA7
S2144018B098477B6803F00803002B02D06FF01203B2
S2144018C000E0002318460837BD4680BDF02440009F
S2144018D01511400080B58AB000AF786039607B68EB
S2144018E01B683B6200237B623B681B68FB603B686F
S2144018F05B683B6100237B610023BB617B681B798F
S2144019003B777B68002B04D03B6A002B01D0012339
S21440191000E0002303F00103DBB240F23122254908
S2144019201846254B9847386A244B9847034683F019
S2144019300103DBB2002B02D06FF0130335E007F152
S2144019400C031946386A1E4B9847034683F001033A
S214401950DBB2002B0BD0BA697B699A4207D37B680F
S214401960DA8807F10C031946386A164B9847386AE6
S214401970154B98470346396A1846144B9847786281
S2144019807B6A002B0CDB7A693B689B689A42D6D30D
S214401990BA693B689B689A42D1D37B697B6200E018
S2144019A000BF386A0A4B98477B6A18462837BD46B8
S2144019B080BD00BFF02440001511400023154000B4
S2144019C0991740000D1840006F15400091184000D0
S2144019D07117400080B400AF00231846BD465DF83E
S2144019E0047B704780B483B000AF78607B681B6A26
S2144019F003F00103002B14BF01230023DBB218467B
S214401A000C37BD465DF8047B704780B483B000AFAA
S214401A1078607B681B6A03F00203002B14BF012327
S214401A200023DBB218460C37BD465DF8047B704792
S214401A3080B483B000AF78607B681B6A03F4807321
S214401A40002B14BF01230023DBB218460C37BD46DB
S214401A505DF8047B704780B483B000AF78607B68E5
S214401A601B6A18460C37BD465DF8047B704780B449
S214401A7083B000AF78607B681B6B18460C37BD465A
S214401A805DF8047B704780B483B000AF78603960FF
S214401A907B683A685A6000BF0C37BD465DF8047BE9
S214401AA0704780B483B000AF786039607B683A682E
S214401AB0DA6000BF0C37BD465DF8047B704780B4E3
S214401AC083B000AF786039607B683A681A6100BFBF
S214401AD00C37BD465DF8047B704780B483B000AFDA
S214401AE0786039607B683A689A6300BF0C37BD46B9
S214401AF05DF8047B704780B483B000AF786039608F
S214401B007B683A685A6400BF0C37BD465DF8047B74
S214401B10704780B483B000AF786039607B683A68BD
S214401B201A6000BF0C37BD465DF8047B704780B432
S214401B3083B000AF786039607B683A685A6300BF0C
S214401B400C37BD465DF8047B7047000080B485B016
S214401B5000AF78600023FB7315E0FA7B0F4913460D
S214401B605B001344DB000B441A687B689A4207D13B
S214401B70FA7B13465B001344DB00084A134406E036
S214401B80FB7B0133FB73FB7B012BE6D90023184616
S214401B901437BD465DF8047B704700BF1C254000E7
S214401BA080B584B000AF786039607B68002B04D085
S214401BB03B68002B01D0012300E0002303F0010323
S214401BC0DBB27E2218491846184B98477B683A681D
S214401BD01A617B681B691846154B9847F8607B6806
S214401BE01A69FB685B6819461046124B98477B6833
S214401BF01A69FB689B68194610460F4B98477B68E6
S214401C001A69FB68DB68194610460C4B98477B6898
S214401C101A69FB681B6919461046094B984700230A
S214401C2018461037BD4680BD4C2540001511400073
S214401C304D1B4000131B4000DB1A4000F71A4000C3
S214401C40BF1A400080B582B000AF786039607B68CC
S214401C50002B04D03B68002B01D0012300E000237A
S214401C6003F00103DBB2C02211491846114B9847D6
S214401C707B685B889BB203F48073002B02D06FF0C6
S214401C80050311E03B685B889BB203F00103002B21
S214401C9005D039687868084B9847034604E03968A9
S214401CA07868064B9847034618460837BD4680BDB9
S214401CB04C25400015114000F91D4000C11C400055
S214401CC080B586B000AF7860396000233B613B68E2
S214401CD05B889BB243F480739AB23B685A803B68F9
S214401CE01B8803F48063002B1BD07B681A693B6813
S214401CF01B881B0A9BB243F078039BB21B0403F479
S214401D00FE0343F4807319461046354B98477B686C
S214401D101A693B681B88DBB219461046314B984718
S214401D200AE07B681A693B681B881B0403F4FE03C1
S214401D30194610462A4B984700237B6123E07B6870
S214401D401B691846284B9847F860FB6803F4807375
S214401D50002B03D06FF001033B6104E0FB6803F007
S214401D600403002BEBD03B69002B13D17B6818692A
S214401D703B689A687B6913441B7819461B4B984707
S214401D807B6901337B613B685B681A467B699A4294
S214401D90D5D800E000BF3B685B889BB21BB2002BE7
S214401DA011DA7B681B6902211846114B984700BF21
S214401DB07B681B6918460F4B9847034683F0010320
S214401DC0DBB2002BF4D17B685B889BB223F4807334
S214401DD09AB27B685A803B6918461837BD4680BD24
S214401DE0871A4000A31A4000571A40002F1B400095
S214401DF0131B4000E519400090B585B000AF7860F1
S214401E0039603B685B889BB243F480739AB23B6808
S214401E105A803B681B8803F48063002B1BD07B688A
S214401E201A693B681B881B0A9BB243F078039BB237
S214401E301B0403F4FE0343F48853194610463D4BF7
S214401E4098477B681A693B681B88DBB21946104680
S214401E50394B98470CE07B681A693B681B881B0423
S214401E6003F4FE0343F4805319461046314B98471B
S214401E707B681A693B685B68012B01D1032300E04D
S214401E800123194610462D4B98470023FB6031E04E
S214401E907B681B6918462A4B98470346002B02D09E
S214401EA06FF0010341E07B681B691846254B984755
S214401EB0034683F00103DBB2002BE9D13B689A6806
S214401EC0FB68D4187B681B6918461F4B9847034627
S214401ED0DBB223703B685B68023B1A46FB689A425B
S214401EE005D17B681B6902211846144B9847FB684E
S214401EF00133FB603B685B681A46FB689A42D2D85F
S214401F0000BF7B681B691846104B9847034683F012
S214401F100103DBB2002BF4D17B685B889BB223F4D1
S214401F2080739AB27B685A80002318461437BD46A1
S214401F3090BD00BF871A4000A31A4000131B400004
S214401F40311A40000B1A40006F1A4000E519400055
S214401F5080B483B000AF78607B685B6903F00103B0
S214401F60002B14BF01230023DBB218460C37BD46B6
S214401F705DF8047B704780B483B000AF78607B68C0
S214401F805B6903F00203002B14BF01230023DBB27E
S214401F9018460C37BD465DF8047B704780B483B066
S214401FA000AF78607B685B6903F40073002B14BF56
S214401FB001230023DBB218460C37BD465DF8047B90
S214401FC0704780B483B000AF78607B689B69DBB2B3
S214401FD018460C37BD465DF8047B704780B483B026
S214401FE000AF786039607B683A685A6000BF0C374B
S214401FF0BD465DF8047B704780B483B000AF786020
S21440200039607B683A681A6200BF0C37BD465DF897
S214402010047B704780B483B000AF786039607B68DB
S2144020203A68C3F8E42000BF0C37BD465DF8047B31
S214402030704780B483B000AF786039607B683A6898
S2144020401A6000BF0C37BD465DF8047B704780B40D
S21440205083B000AF786039607B683A68DA6100BF69
S2144020600C37BD465DF8047B7047000080B582B0F3
S21440207000AF786039607B68002B14BF01230023D3
S214402080DBB2A9220C4918460C4B98473B68002BFC
S21440209014BF01230023DBB2AA2207491846074B88
S2144020A098477B683A681A603868054B98470346F5
S2144020B018460837BD4680BD7C25400015114000B7
S2144020C02123400080B582B000AF78600B46FB709D
S2144020D07B68002B14BF01230023DBB240F295122D
S2144020E007491846074B98477B681B68FA7811469D
S2144020F01846054B984700BF0837BD4680BD00BF11
S2144021007C254000151140004F20400080B582B02D
S21440211000AF78607B68002B14BF01230023DBB23E
S21440212040F2A71207491846074B98477B681B683A
S2144021301846064B98470346DBB218460837BD4656
S21440214080BD00BF7C25400015114000C31F4000E5
S21440215080B582B000AF78607B68002B14BF012347
S2144021600023DBB24FF4D87206491846064B984710
S2144021707B681B681846054B984703461846083741
S214402180BD4680BD7C25400015114000771F4000AD
S21440219080B582B000AF78607B68002B14BF012307
S2144021A00023DBB240F2B91206491846064B984760
S2144021B07B681B681846054B984703461846083701
S2144021C0BD4680BD7C254000151140009D1F400047
S2144021D080B582B000AF78607B68002B14BF0123C7
S2144021E00023DBB240F2CB1206491846064B98470E
S2144021F07B681B681846054B9847034618460837C1
S214402200BD4680BD7C25400015114000511F400052
S21440221080B582B000AF78607B68002B14BF012386
S2144022200023DBB240F2192213491846134B984755
S2144022307B68134A934201D1002318E07B68114A19
S214402240934201D1012312E07B680F4A934201D1A9
S21440225002230CE07B680D4A934201D1032306E03B
S2144022607B680B4A934201D1042300E0FF231846C3
S2144022700837BD4680BD00BF7C2540001511400094
S21440228000080E40000A0E40001A0E40001C0E4089
S214402290001E0E4080B400AF00231846BD465DF8D1
S2144022A0047B704780B584B000AF78607B68002BB5
S2144022B014BF01230023DBB24FF42772144918469B
S2144022C0144B98477868144B98470346BB730023D3
S2144022D0FB730FE0FA7B114913465B0013449B00E7
S2144022E00B441B78BA7B9A4201D1FB7B0CE0FB7B0C
S2144022F00133FB73FB7B022BECD940F2A622044948
S2144023000020044B9847002318461037BD4680BD32
S2144023107C2540001511400011224000000040205E
S21440232080B584B000AF78607B68002B14BF012373
S2144023300023DBB240F2B3221A4918461A4B98479C
S21440234078681A4B98470346FB7319497868194BC7
S2144023509847AC217868184B98474FF48071786856
S214402360154B9847FA7B154913465B0013449B0070
S2144023700B4404331B6819467868114B9847FA7B20
S2144023800E4913465B0013449B000B4408331B68FE
S214402390194678680B4B9847002318461037BD46B9
S2144023A080BD00BF7C25400015114000A52240009E
S2144023B00052415515204000332040000000402088
S2144023C0DD1F4000F91F400070B50D4E0D4CA41B9C
S2144023D0A4100025A54209D10B4E0C4C00F0E4F8A1
S2144023E0A41BA4100025A54205D170BD56F8253083
S2144023F098470135EEE756F8253098470135F2E71D
S214402400C8254000C8254000C8254000C8254000D3
S2144024102E2E2F2E2E2F2E2E2F44524956455253B7
S2144024202F53414D5637312F68706C2F70696F2F80
S21440243068706C5F6770696F5F626173652E680075
S2144024402E2E2F2E2E2F2E2E2F4452495645525387
S2144024502F53414D5637312F68616C2F7372632F5F
S21440246068616C5F6932635F6D5F73796E632E631C
S214402470000000002E2E2F2E2E2F2E2E2F44524997
S214402480564552532F53414D5637312F68616C2F66
S2144024907372632F68616C5F7370695F6D5F737989
S2144024A06E632E63000000002E2E2F2E2E2F2E2E13
S2144024B02F445249564552532F53414D5637312F8C
S2144024C068616C2F7372632F68616C5F757361729D
S2144024D0745F73796E632E63000000000000000096
S2144024E0000000800100000002969604FFFF0000F6
S2144024F02E2E2F2E2E2F2E2E2F44524956455253D7
S2144025002F53414D5637312F68706C2F7370692F9B
S21440251068706C5F7370692E630000000080014035
S214402520200000000000000000000000BABA0200D0
S214402530F0490200000006402000000000000000B5
S21440254000000000BABA0200F04902002E2E2F2EDC
S2144025502E2F2E2E2F445249564552532F53414D1F
S2144025605637312F68706C2F74776968732F687090
S2144025706C5F74776968732E630000002E2E2F2ED2
S2144025802E2F2E2E2F445249564552532F53414DEF
S2144025905637312F68706C2F756172742F68706C67
S2144025A05F756172742E6300F8B500BFF8BC08BC56
S2144025B09E4670478D014000F8B500BFF8BC08BC89
S20C4025C09E4670476901400089
S2144025C80000000000080000510000000100000064
S2144025D8000800005100000002000000000800004B
S2084025E85100000059
S804400000BB
